:020000040800F2
:10000000880400202D2C00088503000887030008C1
:100010008B0300088F030008930300080000000012
:10002000000000000000000000000000970300082E
:1000300099030008000000009B0300089D030008CE
:10004000472C0008472C0008472C0008472C0008C4
:10005000472C0008472C0008472C0008472C0008B4
:10006000472C0008472C0008472C0008472C0008A4
:10007000472C0008472C0008472C0008472C000894
:10008000472C0008472C0008472C0008472C000884
:10009000472C0008472C0008472C0008472C000874
:1000A000472C0008472C0008472C0008472C000864
:1000B000472C0008472C0008472C0008472C000854
:1000C000472C0008472C0008472C0008472C000844
:1000D000472C0008472C0008472C0008472C000834
:1000E000472C0008472C0008472C0008472C000824
:1000F000472C0008472C0008472C0008472C000814
:10010000472C0008472C0008472C0008472C000803
:10011000472C0008472C0008472C0008472C0008F3
:10012000472C0008472C0008472C0008472C0008E3
:10013000DFF80CD003F016F800480047450100082E
:100140008804002094B000F049F94FF6FF7000F0E9
:1001500076FE54A04FF6FF734FF4784200210090D2
:100160001E2001F0CAF955A04FF6FF734FF47842F4
:10017000142100901E2001F0C0F954A04FF6FF7327
:100180004FF47842282100901E2001F0B6F953A0C8
:100190004FF6FF731F223C2100901E2001F0ADF9A5
:1001A00052A04FF6FF731F22502100901E2001F035
:1001B000A4F952A04FF6FF731F22642100901E2065
:1001C00001F09BF951A04FF6FF731F227821009098
:1001D0001E2001F092F951A04FF6FF731F228C21CF
:1001E00000901E2001F089F950A04FF6FF731F22E6
:1001F000A02100901E2001F080F950A04FF6FF735F
:100200001F22B42100901E2001F077F94FA04FF675
:10021000FF731F22C82100901E2001F06EF93FE0FD
:1002200010A9082001F027FB4FF0000A32E010A9C6
:1002300031F81A0002F094FE06460022474B02F005
:10024000A8FD04460022464B02F0A9FD804600228C
:10025000444B02F016FECDE9040110A830F81A0054
:10026000029004985246CDE900013FA106A802F091
:100270009BFF06A800900AEB8A003C2202EB80015B
:100280004FF6FF731F221E2001F037F90AF101001B
:1002900000F0FF0ABAF1080FC9DB642000F00AF988
:1002A000BEE7000053544D33324631303320436FA4
:1002B000726520426F61726400000000414453384F
:1002C0003638382054455354000000004C5A20451D
:1002D0006C656374726F6E69630000004348303A66
:1002E00020202020302E3030303056004348313A24
:1002F00020202020302E3030303056004348323A13
:1003000020202020302E3030303056004348333A01
:1003100020202020302E3030303056004348343AF0
:1003200020202020302E3030303056004348353ADF
:1003300020202020302E3030303056004348363ACE
:1003400020202020302E3030303056004348373ABD
:1003500020202020302E3030303056000000E04089
:100360000000C4400000F04043482531643A202595
:10037000382E346C666D562020443A20253458209F
:1003800020202000704700BFFEE700BFFEE700BF4F
:10039000FEE700BFFEE770477047704770470000F8
:1003A00008B50121402001F0B3FC3020ADF8000079
:1003B00003208DF8020010208DF8030069460648DE
:1003C00001F06AFD1021044801F013FE20210248CB
:1003D00001F00FFE08BD00000018014010B500F04C
:1003E000D0FAFFF7DDFF01F0D8F910BD704700BF6C
:1003F000411EC9B2081EFBD17047002100BF082171
:1004000000BF4A1ED2B2111EFBD1421ED2B2101E34
:10041000F5D17047002100BF0F2100BF4A1ED2B2A4
:10042000111EFBD1421E92B2101EF5D1704700BFC3
:10043000072100BF0B2200BF531E9BB21A1EFBD127
:100440004B1E9BB2191EF5D1431EDBB2181EEFD115
:10045000704700BF422100BF1E2200BF531EDBB207
:100460001A1EFBD14B1EDBB2191EF5D1431EDBB2A7
:10047000181EEFD17047652000BF582100BF4A1EEB
:1004800092B2111EFBD1421E92B2101EF5D17047DE
:1004900000BF772100BF432200BF531E9BB21A1E2C
:1004A000FBD14B1E9BB2191EF5D1431EDBB2181EA9
:1004B000EFD1704700BF40F2712100BF3F2200BF63
:1004C000531E9BB21A1EFBD14B1E9BB2191EF5D1B7
:1004D000431EDBB2181EEED1704700BF4FF47A7195
:1004E00000BF40F2012200BF531E9BB21A1EFBD177
:1004F0004B1E9BB2191EF4D1431EDBB2181EEDD168
:10050000704701B502E00098401E00900098002856
:10051000F9D108BD08B50121602001F0F9FB4CF6C6
:10052000B370ADF8000003208DF8020018208DF89C
:1005300003006946F74801F0AFFC4FF68070ADF854
:10054000000003208DF8020018208DF80300694692
:10055000F14801F0A1FC4FF44050ADF80000032039
:100560008DF8020010208DF803006946E94801F07B
:1005700093FC4FF40051E74801F03BFD08BD00B586
:1005800097B00121080201F0B6FB0121084601F0F5
:10059000BFFB022001900020029005200390002064
:1005A0000490059006904FF080500790002008902E
:1005B000099008200A9010200B9000200C900E90BB
:1005C0000F9010904FF480501190002012901390D3
:1005D000149001A81590169008A801F0F7FD0121CC
:1005E000002001F05BFF17B000BDCC4908807047C8
:1005F000CA49891C08807047C849891C088070470F
:10060000C648801C00887047C44A1080921C118024
:1006100070470146C1480180801C00887047C0486F
:100620004089BE4908807047BD490871032826D11A
:100630004FF4A071BA4A1180F02151801146098906
:1006400048F25252914209D12C21B54A51812A21B6
:1006500091812B21D1816021D18088E0B049098925
:1006600045F208429142F8D12221AD4A5181202120
:1006700091812121D18141F20801D18077E00428C4
:1006800026D14FF4A071A64A1180F0215180114665
:10069000098948F25252914209D12C21A04A518134
:1006A0002A2191812B21D181A021D1805FE09C4919
:1006B000098945F20842914259D12221984A518133
:1006C000202191812121D18141F23801D1804EE058
:1006D000012826D1F021924A11804FF4A071518057
:1006E0001146098948F25252914209D12C218C4A73
:1006F00051812A2191812B21D181C021D18036E0E5
:100700008749098945F20842914230D12221844A21
:100710005181202191812121D1814FF48151D180BA
:1007200025E0F0217E4A11804FF4A07151801146DE
:10073000098948F25252914209D12C21784A5181BB
:100740002A2191812B21D1810021D1800FE0744990
:10075000098945F20842914209D12221704A51810A
:10076000202191812121D18141F21001D180704756
:100770006C4A10606C4A1160704710B503460C4615
:100780006748008948F25251884215D164498989E5
:10079000C8B2FFF72AFF1812FFF72AFFD8B2FFF7F7
:1007A00027FF5F49C989C8B2FFF71FFF2012FFF773
:1007B0001FFFE0B2FFF71CFF5948008945F20841CE
:1007C00088420BD156498989C8B21946FFF71CFFE8
:1007D0005349C989C8B22146FFF716FF10BD2DE95C
:1007E000FC5F04460D46904699460026B246002717
:1007F000B3460020019000904948008948F25251C8
:10080000884234D1264604EB0900401E1FFA80FAC4
:100810002F4605EB0800401E1FFA80FB019600974B
:100820003F498989C8B2FFF7E0FE3012FFF7E0FECA
:10083000F0B2FFF7DDFE4FEA2A20FFF7D9FE0AF0FB
:10084000FF00FFF7D5FE3649C989C8B2FFF7CDFED4
:100850003812FFF7CDFEF8B2FFF7CAFE4FEA2B20A1
:10086000FFF7C6FE0BF0FF00FFF7C2FE83E02C4847
:10087000008945F2084188427DD129480079032842
:100880001CD127484088401BA0EB080086B22448B2
:100890004088401B401E1FFA80FA21480088001B38
:1008A000A0EB090087B21E480088001B401E1FFAFB
:1008B00080FBCDF804A0CDF800B04CE018480079DA
:1008C00004280ED12E4605EB0800401E1FFA80FAC0
:1008D000274604EB0900401E1FFA80FB0196009793
:1008E00039E00F480079012820D10D480088001B0D
:1008F000A0EB090086B20A480088001B401E1FFAC0
:1009000080FA2F4605EB08001FFA80FBCDF804A003
:10091000009720E00014014000180140FEFF016034
:10092000740000204000002044000020264604EB14
:100930000900401E1FFA80FAFE484088401BA0EBC9
:10094000080087B2FB484088401B401E1FFA80FB0E
:100950000196CDF800B031465020FFF755FE5146C4
:100960005120FFF751FE39465220FFF74DFE594600
:100970005320FFF749FEDDE90010FFF7FEFEBDE85A
:10098000FC9F10B5FFF7C6FDFFF7F9FD0A20FFF742
:100990007FFD4FF48051E84801F02DFB0A20FFF75E
:1009A00077FD4FF48051E44801F023FB0A20FFF764
:1009B0006FFD0420FFF72DFEFFF722FEDD490881C1
:1009C000FFF71EFEDB490881084600894FF6FF71DC
:1009D00001EA0020D7490881FFF712FED5490989AD
:1009E0000843D44908810846008948F25251884298
:1009F00004D00020FFF70DFECE490881CD480089C4
:100A000048F2525188427CD11120FFF7EEFD782048
:100A1000FFF73EFD3620FFF7E8FD0020FFF7E8FD79
:100A20003A20FFF7E2FD0520FFF7E2FDB220FFF7D5
:100A3000DCFD0C20FFF7DCFD0C20FFF7D9FD0020CA
:100A4000FFF7D6FD3320FFF7D3FD3320FFF7D0FDAE
:100A5000B720FFF7CAFD3520FFF7CAFDBB20FFF71F
:100A6000C4FD2820FFF7C4FDC020FFF7BEFD2C20E9
:100A7000FFF7BEFDC220FFF7B8FD0120FFF7B8FD6C
:100A8000C320FFF7B2FD0B20FFF7B2FDC420FFF734
:100A9000ACFD2020FFF7ACFDC620FFF7A6FD0F2020
:100AA000FFF7A6FDD020FFF7A0FDA420FFF7A0FDD3
:100AB000A120FFF79DFDE020FFF797FDD020FFF775
:100AC00097FD0120FFF794FD0820FFF791FD0F200F
:100AD000FFF78EFD1120FFF78BFD2A20FFF788FD21
:100AE0003620FFF785FD5520FFF782FD4420FFF7F4
:100AF0007FFD3A20FFF77CFD0B20FFF779FD0620F4
:100B000000E04CE0FFF774FD1120FFF771FD20209D
:100B1000FFF76EFDE120FFF768FDD020FFF768FDCD
:100B20000220FFF765FD0720FFF762FD0A20FFF7AF
:100B30005FFD0B20FFF75CFD1820FFF759FD342007
:100B4000FFF756FD4320FFF753FD4A20FFF750FD06
:100B50002B20FFF74DFD1B20FFF74AFD1C20FFF760
:100B600047FD2220FFF744FD1F20FFF741FD29200C
:100B7000FFF73BFD2C20FFF738FD0320FFF754FD66
:100B80003620FFF732FD6B49C888FFF731FD694811
:100B90000388428800210846FFF721FE28E16548C6
:100BA000008945F208418842F8D14FF48071012054
:100BB000FFF72AFD4FF4E0610220FFF725FD41F227
:100BC00030010320FFF720FD00210420FFF71CFD6A
:100BD00040F202210820FFF717FD00210920FFF74E
:100BE00013FD00210A20FFF70FFD00210C20FFF765
:100BF0000BFD00210D20FFF707FD00210F20FFF75F
:100C000003FD00211020FFF7FFFC00211120FFF75A
:100C1000FBFC00211220FFF7F7FC00211320FFF757
:100C2000F3FCC820FFF734FC07211120FFF7ECFC90
:100C30003220FFF72DFC41F2B0211020FFF7E4FC39
:100C40003220FFF725FC40F2BD111220FFF7DCFC3B
:100C50003220FFF71DFC4FF4A0511320FFF7D4FC06
:100C60000E212920FFF7D0FC3220FFF711FC0021D4
:100C70002020FFF7C9FC40F23F112120FFF7C4FC00
:100C800040F60D313020FFF7BFFC41F62311312033
:100C9000FFF7BAFC41F626413220FFF7B5FC42F2DD
:100CA0001C613320FFF7B0FC42F219413420FFF7FA
:100CB000ABFC40F60B513520FFF7A6FC41F20601D4
:100CC0003620FFF7A1FC4FF4C2613720FFF79CFCF0
:100CD00040F206713820FFF797FC4FF4417139203C
:100CE000FFF792FC40F605613A20FFF78DFC40F6D5
:100CF00001613B20FFF788FC4FF487713C20FFF730
:100D000083FC40F20E513D20FFF77EFC40F2034190
:100D10003E20FFF779FC40F207613F20FFF774FCAB
:100D200000215020FFF770FCEF215120FFF76CFCF1
:100D3000002103E074000020001401405220FFF75E
:100D400063FC40F23F115320FFF75EFC4FF4274154
:100D50006020FFF759FC01216120FFF755FC0021BD
:100D60006A20FFF751FC00218020FFF74DFC002195
:100D70008120FFF749FC00218220FFF745FC00217C
:100D80008320FFF741FC00218420FFF73DFC002178
:100D90008520FFF739FC10219020FFF735FC00215A
:100DA0009220FFF731FC03219320FFF72DFC4FF435
:100DB00088719520FFF728FC00219720FFF724FC7D
:100DC00000219820FFF720FC0320FFF72DFCFB48B3
:100DD000C1880320FFF718FC4FF489710720FFF743
:100DE00013FCF6480388428800210846FFF7F7FC09
:100DF000F349F448FFF7BCFC4FF40051F24801F00E
:100E0000FAF810BD03B5BDF80000F0490880BDF840
:100E10000400EF4908800CBDEC4A12880280EC4ABD
:100E200012880A80704701B5BDF80000E7490880C4
:100E300008BD01B5BDF80000E549088008BD70B5E2
:100E400004460025DD480388428800210846FFF754
:100E5000C6FCFFF7E4FB00BF02E0DE4804806D1C27
:100E6000D6480088D54949884843A842F5D870BD7E
:100E70002DE9F04707468846164600250024D64847
:100E800000688088C01DC0F3C709D3480068838804
:100E9000D1480068C28841463846FFF7A0FCFFF7FA
:100EA000BEFB00BF1CE0002414E005FB09F000EBD2
:100EB000D400305C04F0070280211141084020B9C1
:100EC000C3480088FFF798FB03E0C0480088FFF79D
:100ED00093FB641CC04800688088A042E5D86D1C64
:100EE000BD480068C088A842DDD8B448038842885D
:100EF00000210846FFF773FCBDE8F0872DE9F041BB
:100F000005460E461446A4F12001B34A1268D28861
:100F10005143B14A12689288D01DC21700EB527239
:100F2000D210AD4B1B681B6801FB02373A463146B5
:100F30002846FFF79DFFBDE8F08130B50246A7487F
:100F400000680489002120E0A4480068006801EBE3
:100F5000811510F815001578A84214D19F48006833
:100F6000006801EB811500EB450040785578A842F8
:100F700009D19A480068006801EB811500EB450033
:100F8000831C184630BD481C81B2A142DCDB002026
:100F9000F8E72DE9F0470746884615460026002465
:100FA0008E4800688088C01DC0F3C7098B48006860
:100FB00083888A480068C28841463846FFF70FFC9C
:100FC000FFF72DFB00BF28E000241FE0C5B106FBA2
:100FD00009F101EBE401695CE21704EB5272D210F3
:100FE000A4EBC20380221A41114021B9784800883D
:100FF000FFF702FB08E075480088FFF7FDFA03E001
:1010000073480088FFF7F8FA601C84B273480068E0
:101010008088A042DADC701C86B270480068C08804
:10102000B042D1DC65480388428800210846FFF7BA
:10103000D6FBBDE8F0872DE9F04105460E46144683
:1010400000272046FFF779FF07463A4631462846F3
:10105000FFF79FFFBDE8F0812DE9F04106460F46FE
:1010600014463546B84629E0544800885A4909686C
:101070008988401AA8421ADB207880280BDA227867
:1010800041462846FFF73AFF5348006880882844C5
:1010900085B2641C12E0224641462846FFF7CBFF8A
:1010A0004E4800688088284485B2A41C06E00025CC
:1010B00049480068C08840441FFA80F8207800281A
:1010C000D2D1BDE8F08110B54FF4A073F022591EC3
:1010D000EF20FFF784FB41F218010320FFF794FA99
:1010E00010BD2DE9F04106460F4614460025234663
:1010F000012239463046FFF772FBFFF790FA00BF36
:1011000004E032480088FFF777FA6D1CA542F8D357
:101110002A480388428800210846FFF760FBBDE8A3
:10112000F0812DE9F04106460F461446002523467E
:10113000012239463046FFF752FBFFF770FA00BF35
:1011400010E00320B5FBF0F100FB1150022804D1A0
:101150001F480088FFF750FA03E01C480088FFF79B
:101160004BFA6D1CA542ECD3144803884288002139
:101170000846FFF734FBBDE8F0812DE9F041064653
:101180000F46144600250123224639463046FFF714
:1011900026FBFFF744FA00BF04E00C480088FFF785
:1011A0002BFA6D1CA542F8D304480388428800211D
:1011B0000846FFF714FBBDE8F08100007400002032
:1011C00028000020100000200014014048000020EA
:1011D0004A0000200000026040000020440000207F
:1011E0002DE9F04106460F461546002401232A4604
:1011F00039463046FFF7F3FAFFF711FA00BF10E067
:101200000320B4FBF0F100FB1140022804D1FD489B
:101210000088FFF7F1F903E0FB480088FFF7ECF9DD
:10122000641CAC42ECD3F94803884288002108468C
:10123000FFF7D5FABDE8F0812DE9F04105460E46ED
:1012400017461C46224631462846FFF74AFFF0194A
:10125000401E81B222462846FFF743FF3A463146F8
:101260002846FFF78AFF2919491E88B23A463146B7
:10127000FFF783FFBDE8F0812DE9F04780468946FE
:1012800016461F46DDF820A0002400253B463246C6
:1012900049464046FFF7A3FAFFF7C1F900BF14E043
:1012A00000250FE01AF804000121A940084020B9E8
:1012B000D4480088FFF7A0F903E0D3480088FFF77F
:1012C0009BF96D1C082DEDD3641C06FB07F0B4EBF5
:1012D000E00FE5D3CD480388428800210846FFF798
:1012E0007EFABDE8F0872DE9F0478046894615462D
:1012F0001E46089F002433462A4649464046FFF7CB
:101300006EFAFFF78CF900BF0BE017F814100122FA
:1013100002EB4402BA5C01EB022188B2FFF76CF9E0
:10132000641C05FB06F0A042EFD8B8480388428849
:1013300000210846FFF753FABDE8F0872DE9F04198
:101340000746884614461D4600262B46224641463F
:101350003846FFF744FAFFF762F900BF04E0A948F6
:101360000088FFF749F9761C04FB05F0B042F6D877
:10137000A6480388428800210846FFF730FABDE8F6
:10138000F08110B5A148008948F25251884238D006
:1013900000211020FFF738F900211120FFF734F960
:1013A00000211220FFF730F900211320FFF72CF95C
:1013B000C820FFF76DF841F2B0711020FFF724F953
:1013C00040F237111120FFF71FF93220FFF760F8C4
:1013D00040F239111220FFF717F93220FFF758F8C1
:1013E0004FF4E8511320FFF70FF913212920FFF7DD
:1013F0000BF93220FFF74CF840F273110720FFF78A
:1014000003F910BD00B58148008948F25251884265
:1014100003D12920FFF7E9F804E040F27311072017
:10142000FFF7F2F800BD00B57848008948F2525144
:10143000884203D12820FFF7D8F803E000210720D5
:10144000FFF7E2F800BD70B504460D46002C0BDB3B
:101450006E480088401EA04206DB002D04DB6B486E
:101460004088401EA84200DA70BDA9B2A0B2012295
:10147000FFF737FE00BFF7E72DE9F04104460D46C0
:1014800016462746A8466148008945F20841884229
:1014900028D15E48007903280BD15C484088401B66
:1014A000401E87B259480088001B401E1FFA80F872
:1014B00018E056480079042802D12F46A04611E0D2
:1014C00052480079012806D150480088001B401E70
:1014D00087B2A84606E027464C484088401B401E7D
:1014E0001FFA80F841463846FFF747F9FFF797F8AB
:1014F0003046FFF781F8BDE8F0812DE9F04106465E
:101500000F4614461D46DDF8188029462046FFF791
:1015100079FC424639463046FFF79EFDBDE8F08132
:101520002DE9F04106460F4614461D46DDF81880A9
:1015300029462046FFF766FC35493648FFF718F97B
:10154000424639463046FFF787FD33493148FFF7B9
:101550000FF9BDE8F0812DE9FC4104460D46164621
:101560001F46DDF8208042462CA101A801F01CFE98
:1015700001A83B463246294600902046FFF7BDFFB2
:10158000BDE8FC812DE9FE4304460D4616461F4684
:10159000DDF82880424622A101A801F005FE01A83D
:1015A0003B463246294600902046FFF7A6FFBDE89D
:1015B000FE832DE9FF4105460E46174698460A9CD4
:1015C0002246002317A101A801F0EEFD01A8434621
:1015D0003A46314600902846FFF78FFFBDE8FF816D
:1015E0002DE9F04105460E4617461C460548018880
:1015F0002046FFF707FC3A4631462846FFF771FDC3
:10160000BDE8F0814A00002048000020740000205E
:101610003400002010000020280000202533640042
:10162000253564002531306C6C6400002DE9F041F3
:1016300005460E4617461C46DDF8188041462046F2
:10164000FFF7E0FB3A4631462846FFF76AFDBDE862
:10165000F0812DE9F04105460E4617461C46244808
:1016600001882046FFF7CEFB3A4631462846FFF771
:1016700084FDBDE8F0812DE9F04105460E46174690
:101680001C46DDF8188041462046FFF7BBFB3A4672
:1016900031462846FFF7A4FDBDE8F0812DE9F04171
:1016A00004460D4616461F46DDF81880104801888E
:1016B0004046FFF7A7FB3B46324629462046FFF748
:1016C000BBFDBDE8F0812DE9F04104460D4616460C
:1016D0001F46DDF81880414606480088FFF792FB58
:1016E0003B46324629462046FFF728FEBDE8F081FA
:1016F0004A0000204800002008B50121082000F021
:1017000007FB4FF49850ADF8000003208DF802005D
:1017100010208DF8030069466F4800F0BDFB08BD3E
:1017200038B504460020009020128DF80000E0B289
:101730008DF801004FF48051674800F05CFC9DF883
:10174000000000F0CBF89DF8010000F0C7F84FF45E
:101750008051614800F04DFC38BD38B504460D4657
:1017600000200090012000EB4400C0B28DF8000082
:101770008DF801504FF48051574800F03CFC9DF823
:10178000000000F0ABF89DF8010000F0A7F84FF45E
:101790008051514800F02DFC38BD10B5FFF7ACFF6B
:1017A00000F0C3F8002000F005F94FF480714A48BA
:1017B00000F021FC0220FEF720FE4FF48071464825
:1017C00000F017FC4FF40071434800F014FC4FF494
:1017D0000540FFF7A5FF0220FEF70FFE01210520BF
:1017E000FFF7BBFF01210620FFF7B7FF012107200C
:1017F000FFF7B3FF01210820FFF7AFFF0121092008
:10180000FFF7ABFF01210A20FFF7A7FF01210B2003
:10181000FFF7A3FF01210C20FFF79FFF002102200B
:10182000FFF79BFFFF210120FFF797FF4FF42040B8
:10183000FFF776FF10BD38B5044600200090600623
:10184000000E8DF800004FF48051234800F0D3FBC8
:101850009DF8000000F042F89DF8010000F03EF80D
:10186000FF2000F03BF805464FF480511A4800F085
:10187000C0FB284638BD7CB505460E4600200090CA
:10188000002425E04FF48051134800F0B4FB9DF88C
:10189000000000F023F89DF8010000F01FF8002080
:1018A00000F01CF88DF80400002000F017F88DF807
:1018B00005004FF48051084800F09BFB9DF805009F
:1018C0009DF8041040EA012026F81400601CC4B200
:1018D000AC42D7DB7CBD0000000C014070B5054672
:1018E000002405E0601CC4B2C82C01DD002070BDDE
:1018F00002214E4801F073F80028F3D029464B48E6
:1019000001F01AF8002405E0601CC4B2C82C01DD07
:101910000020ECE70121454801F061F80028F3D0F0
:10192000424801F00BF8C0B2E1E700B587B00121F1
:10193000082000F0EDF90121880300F0F6F94FF4DA
:101940006040ADF8180018208DF81B0003208DF8BA
:101950001A0006A9364800F09FFA4FF46041344857
:1019600000F047FB0020ADF804004FF48270ADF8A2
:1019700006000020ADF80800ADF80A000120ADF81F
:101980000C004002ADF80E002020ADF81000002041
:10199000ADF812000720ADF8140001A9234800F0AB
:1019A000F5FE0121214800F096FFFF20FFF796FF8A
:1019B00007B000BD10B504461C4800884FF6C7713B
:1019C00008401A4908800846008820430880012101
:1019D000164800F080FF10BD70B50446002505E0F4
:1019E000681CC5B2C82D01DD012070BD02210F4861
:1019F00000F0F5FF0028F3D021460C4800F09CFFD2
:101A00000020F2E710B5002405E0601CC4B2C82C29
:101A100001DD002010BD0121044800F0E0FF002896
:101A2000F3D0024800F08AFFC0B2F3E7003800406C
:101A3000000C0140DF48006840F00100DD4908600B
:101A400008464068DC490840DA49486008460068B2
:101A5000DA490840D74908600846006820F4802029
:101A600008600846406820F4FE0048604FF41F00FC
:101A700088607047CF49096821F48031CD4A1160F0
:101A80001146096821F480211160B0F5803F03D030
:101A9000B0F5802F0ED106E0C649096841F48031C7
:101AA000C44A116007E0C349096841F4A021C14A52
:101AB000116000E000BF00BF704710B50146002272
:101AC000002300204A11012A02D1BA4C236806E003
:101AD000022A02D1B74C236A01E0B64C636A01F0D6
:101AE0001F02012494401C400CB1012000E00020A2
:101AF00010BD38B5002000900024002500BF312023
:101B0000FFF7DBFF05460098401C00900098B0F5F9
:101B1000A06F01D0002DF2D03120FFF7CEFF08B129
:101B2000012400E00024204638BD01460020A14ADF
:101B3000106820F0F80040EAC10010607047A0492A
:101B400008607047024600209A4B586820F47C10C9
:101B500042EA01031843974B58607047984908665A
:101B6000704701460020934A506820F00300084364
:101B7000506070478F48406800F00C007047014685
:101B800000208C4A506820F0F000084350607047F5
:101B900001460020874A506820F4E0600843506006
:101BA000704701460020834A506820F4605040EAA4
:101BB000C1005060704729B17E4A527A02437D4B82
:101BC0005A7204E07B4A527A82437A4B5A727047C7
:101BD0007B49D8310860704701460020754A50683B
:101BE00020F440400843506070470021714A203281
:101BF0001170704A82F82010012802D004280AD1FE
:101C000004E001216B4A2032117005E00521694A88
:101C10002032117000E000BF00BF704769490860C2
:101C200070476449096A0143624A11627047654915
:101C300044390860704730B5002100220024002399
:101C40005C4D6D6805F00C0121B1042905D008290F
:101C500023D105E05C4D056022E05B4D05601FE08F
:101C6000544D6D6805F47012524D6D6805F4803462
:101C7000022505EB92421CB9544D554305600BE01B
:101C80004C4D6D6805F400351DB1504D5543056050
:101C900002E04D4D5543056002E04B4D056000BF2D
:101CA00000BF444D6D6805F0F0010909484D6B5CBB
:101CB0000568DD4045603F4D6D6805F4E061090A47
:101CC000434D6B5C4568DD4085603A4D6D6805F4B9
:101CD0006051C90A3E4D6B5C4568DD40C560354DBD
:101CE0006D6805F44041890B3A4D6B5CC568B5FBE6
:101CF000F3F5056130BD29B12E4A526902432D4BDF
:101D00005A6104E02B4A526982432A4B5A61704758
:101D100029B1284A92690243264B9A6104E0254A78
:101D200092698243234B9A61704729B1214AD26953
:101D30000243204BDA6104E01E4AD26982431D4B04
:101D4000DA61704729B11B4AD2680243194BDA6045
:101D500004E0184AD2688243164BDA60704729B112
:101D6000144A12690243134B1A6104E0114A1269C2
:101D70008243104B1A61704712494039086070471E
:101D80000F49C86470470B49C87170470948406AD9
:101D900040F0807007494862704701460020054ABC
:101DA00092680A400AB1012000E000207047014912
:101DB00088727047001002400000FFF8FFFFF6FE37
:101DC000000042428004424200127A0000093D00B5
:101DD0004C0000205C00002010B50446CC48844232
:101DE00008D101210420FFF7ADFF00210420FFF7F7
:101DF000A9FF46E0C748844208D101210820FFF727
:101E0000A1FF00210820FFF79DFF3AE0C24884426D
:101E100008D101211020FFF795FF00211020FFF7C6
:101E200091FF2EE0BD48844208D101212020FFF718
:101E300089FF00212020FFF785FF22E0B848844277
:101E400008D101214020FFF77DFF00214020FFF74E
:101E500079FF16E0B348844208D101218020FFF7C2
:101E600071FF00218020FFF76DFF0AE0AE48844239
:101E700007D101218015FFF765FF0021A015FFF7AD
:101E800061FF10BD10B501210846FFF75BFF00217F
:101E90000120FFF757FF10BD2DE9F0410246002554
:101EA0000026002000230024002791F803C00CF036
:101EB0000F0591F803C00CF0100CBCF1000F03D01B
:101EC00091F802C04CEA050591F800C0BCF1000F82
:101ED00031D0146800202BE04FF0010C0CFA00F315
:101EE000B1F800C00CEA03069E4220D183004FF0F7
:101EF0000F0C0CFA03F7BC4305FA03FC4CEA04048C
:101F000091F803C0BCF1280F06D14FF0010C0CFA78
:101F100000FCC2F814C00AE091F803C0BCF1480FFD
:101F200005D14FF0010C0CFA00FCC2F810C0401CA7
:101F30000828D1D31460B1F800C0BCF1FF0F34DD24
:101F4000546800202EE000F1080C4FF0010808FA58
:101F50000CF3B1F800C00CEA03069E4221D18300C5
:101F60004FF00F0C0CFA03F7BC4305FA03FC4CEAE4
:101F7000040491F803C0BCF1280F05D100F1080C4E
:101F800008FA0CF8C2F8148091F803C0BCF1480FAD
:101F900007D100F1080C4FF0010808FA0CF8C2F85C
:101FA0001080401C0828CED35460BDE8F0814FF665
:101FB000FF710180022181700421C17070470246C7
:101FC000002093680B400BB1012000E00020704717
:101FD0000146886880B2704702460020D3680B40F3
:101FE0000BB1012000E0002070470146C86880B2B4
:101FF000704701617047416170470AB1016100E0BB
:1020000041617047C16070474FF480320A4382617A
:102010008161826182698269704702460020434B78
:1020200018684FF68073184040EA021008433F4B8F
:10203000186070473E49C8617047F0B50A460023F2
:1020400000240021002500F00046B6F1004F02D127
:10205000364EF16901E0354E7168C0F3034583B235
:1020600000F44016B6F5401F08D121F070612F4EE4
:10207000766826F070662D4F7E6012E000F48016C0
:10208000B6F5801F06D1032606FA05F4A14341F0F8
:10209000706106E0460D360103FA06F6B14341F0E1
:1020A000706122B1460D360103FA06F6314300F0A5
:1020B0000046B6F1004F02D11C4EF16101E01B4E0B
:1020C0007160F0BD30B500228B071C0F0F2303FA9F
:1020D00004F2164B08338C1053F824309343134CFE
:1020E00008348D1044F8253023468C1053F82430E2
:1020F0008C07240F00FA04F423430C4C08348D1091
:1021000044F8253030BD0A49DC31086070470000D2
:1021100000080140000C0140001001400014014083
:1021200000180140001C0140002001400000014057
:102130000000204230B943F2DB028100A1F1C0412E
:102140000A6005E043F2D2028100A1F1C0410A60B9
:102150006FF07042411C8900A1F1C0410A6081000A
:10216000A1F1C041C1F80421704710280AD11821FB
:102170004FF020421166402151664FF0FC319166CC
:10218000D16610E01821F74A116040214FF020423B
:10219000C2F884104FF0FC31F24A083211604FF05F
:1021A0002042C2F88C1070471820EE492031086098
:1021B00000200906C1F8A4004FF0FC30E94928319D
:1021C0000860091D0860091D08607047D0E9011208
:1021D0001143C26811430269114342691143826984
:1021E0001143C2691143026A1143426A1143826A70
:1021F0001143C26A1143026B114302689200A2F1BB
:10220000C0421160816808290BD101688900A1F1E1
:10221000C041096841F0400201688900A1F1C04154
:102220000A60416B0968426B526841EA0211426BD5
:10223000926841EA0221426B928941EA0241426B73
:10224000128A41EA0251426B127D41EA0261426BFD
:10225000926911430268521C9200A2F1C0421160BF
:10226000C16AB1F5804F1BD1816B0968826B5268DE
:1022700041EA0211826B926841EA0221826B128A62
:1022800041EA0251826B127D41EA0261826B9269DE
:10229000114302689200A2F1C042C2F8041107E0A3
:1022A0006FF0704201688900A1F1C041C1F80421BA
:1022B000704730B5002100220023446844F0080430
:1022C00085682C43C5682C4305692C43456944EA5D
:1022D0004524856944EA4531C4692468C5696D6847
:1022E00044EA0524C5692D8944EA0544C5692D7B66
:1022F00044EA0562046A2468056A6D6844EA0524B4
:10230000056A2D8944EA0544056A2D7B44EA056384
:102310000468102C05D14FF020442166A266E366C4
:1023200008E0904C21604FF02044C4F888208D4C88
:102330000C34236030BD016841F01001426841EA6D
:102340004221826841EA4231864A20321160C168E6
:102350000968C268526841EA0221C268128941EAEA
:102360000241C268127B41EA02617E4A2832116052
:10237000016909680269526841EA02210269128909
:1023800041EA02410269127B41EA0261754A2C323C
:102390001160416909684269526841EA0221426953
:1023A000128941EA02414269127B41EA02614FF01F
:1023B0002042C2F8B0107047002101600221416044
:1023C00000218160C160016141618161C16101627F
:1023D0004FF480514162490081620021C162016372
:1023E0000F21426B1160426B5160FF21426B916083
:1023F0000F21426BD160426B1161426B5161002130
:10240000426B91610F21826B1160826B5160FF21E1
:10241000826B91600F21826BD160826B1161826B44
:1024200051610021826B9161704710210160002190
:1024300041608160C160016141618161FC21C269CB
:102440001160C2695160C2699160C269D160026A5B
:102450001160026A5160026A9160026AD16070473D
:102460000021016041608160FC21C2681160C26886
:102470005160C2689160C268D160026911600269EE
:102480005160026991600269D160426911604269DC
:102490005160426991604269D160704751B18200D8
:1024A000A2F1C042126842F001038200A2F1C042D0
:1024B000136009E08200A2F1C04212682A4B1A4060
:1024C0008300A3F1C0431A60704799B1102808D166
:1024D0004FF02042126E42F004024FF020431A6681
:1024E0001DE0204A126842F004024FF02043C3F876
:1024F000802014E0102809D14FF02042126E1A4BB0
:10250000DB1E1A404FF020431A6608E0154A126895
:10251000154BDB1E1A404FF02043C3F88020704754
:1025200048B110492031096841F004014FF02042C0
:10253000C2F8A01009E00B49203109680A4AD21EEE
:1025400011404FF02042C2F8A0107047B9B11028D6
:102550000CD14FF02042126E42F040024FF0204367
:102560001A661FE0800000A0FEFF0F00724A12688A
:1025700042F040024FF02043C3F8802012E01028C0
:1025800008D14FF02042126E6C4B1A404FF020439E
:102590001A6607E0684A1268684B1A404FF02043F9
:1025A000C3F88020704701460020102903D14FF066
:1025B0002042506F02E0604A14321068704710B534
:1025C000F2B1102807D14FF020435B6E0B434FF060
:1025D0002044636632E0B0F5807F08D1564B1B1D66
:1025E0001B680B434FF02044C4F8843026E0524B64
:1025F00024331B680B434FF02044C4F8A4301DE083
:10260000102807D14FF020435B6E8B434FF02044DE
:10261000636613E0B0F5807F08D1474B1B1D1B6834
:102620008B434FF02044C4F8843007E0424B2433FE
:102630001B688B434FF02044C4F8A43010BD10B584
:10264000024600200023102A03D14FF02044636E7D
:1026500009E0B2F5807F03D1374C241D236802E0E6
:10266000354C2434236803EA01040CB1012000E056
:10267000002010BD102807D14FF02042526E8A432F
:102680004FF020435A6613E0B0F5807F08D12A4A04
:10269000121D12688A434FF02043C3F8842007E0DC
:1026A000254A243212688A434FF02043C3F8A420FD
:1026B000704770B502460020002300240025102A30
:1026C00003D14FF02046736E09E0B2F5807F03D14D
:1026D000194E361D336802E0174E2436336803EA7C
:1026E000010403EAD10514B10DB1012000E000207E
:1026F00070BD102808D14FF02042526E22EAD1025C
:102700004FF020435A6615E0B0F5807F09D10A4AA0
:10271000121D126822EAD1024FF02043C3F8842030
:1027200008E0054A2432126822EAD1024FF0204321
:10273000C3F8A42070470000800000A0BFFF0F0076
:1027400010B50446BE48844208D101218014FFF729
:10275000F9FA0021A014FFF7F5FA16E0B94884420F
:1027600008D101210014FFF7FAFA00212014FFF725
:10277000F6FA0AE0B448844207D10121C013FFF7FA
:10278000EEFA0021E013FFF7EAFA10BD10B50022BF
:10279000028802F441520B884C8823438C882343DF
:1027A000CC8823430C8923434C8923438C892343BE
:1027B000CC8923431A430280838B4FF2FF7423405A
:1027C00083830B8A038210BD2DE9F04F85B0054647
:1027D0000C464FF0000902274FF000084FF0010BA4
:1027E0000026B246A88B4FF240010840A883022081
:1027F0002884B5F81C90A068022801D100BF38E0F9
:10280000A08810B94FF0010B01E04FF0020B8D488A
:10281000854200D100E000BF6846FFF70CFADDF802
:1028200000A0E088B0F5007F0AD14FEA1A2000EB43
:1028300080004000A168B0FBF1F0401D86B20BE0C3
:102840004FEA4B10BAFBF0F000EB80004000A168AB
:10285000B0FBF1F0401D86B20A20B6FBF0F606F0A0
:102860000108A6EB0800C0F34F074FF6FF7000EA1F
:102870000828022F01DBFF2F02DD02274FF000089E
:10288000E08840EA080038432884A088A1890843EA
:10289000618808432188084340F4006040EA090940
:1028A000A5F81C9005B0BDE8F08F002101804180A3
:1028B0008180C180018141818181C18107210182A3
:1028C00070470021018041808180C18002218160A8
:1028D00000218181704721B1028842F040020280CC
:1028E00004E002884FF6BF731A400280704721B19E
:1028F000828B42F48062828304E0828B4FF6FF3346
:102900001A408283704730B5002400230C11012542
:10291000A540ABB21AB185881D43858002E0858849
:102920009D43858030BD1AB183880B43838002E0CC
:1029300083888B43838070478181704701468889F3
:1029400070474FF6FF62914204D0028842F48072D1
:10295000028004E002884FF6FF631A40028070474D
:1029600021B1828842F00402828004E082884FF61E
:10297000FB731A408280704702884FF2FF731A403F
:10298000028002880A4302807047018841F4805126
:102990000180704721B1028842F40052028004E0B5
:1029A00002884DF6FF731A400280704702460020ED
:1029B000012901D0108B00E0908A70470146088AF7
:1029C0007047B1F5804F04D1028842F48042028002
:1029D00004E002884BF6FF731A40028070470246FB
:1029E000002013890B400BB1012000E0002070474C
:1029F000CA4302817047F0B502460020002400233C
:102A0000002501F00F070126BE40B4B20B110126CC
:102A10009E40B3B2968806EA03051689264016B191
:102A20000DB1012000E00020F0BD10B5002201F042
:102A30000F040123A3409AB2D343038110BD0000C9
:102A40000030014000380040003C00400CB5002040
:102A5000019000906C48006840F480306A4908603A
:102A600000BF6948006800F4003000900198401CE5
:102A70000190009818B90198B0F5A06FF1D16248A3
:102A8000006800F4003010B10120009001E0002047
:102A900000900098012843D15C48006840F0100085
:102AA0005A4908600846006820F00300086008469C
:102AB000006840F00200086053484068524948608E
:102AC0000846406848600846406840F480604860B6
:102AD0000846406820F47C1048600846406840F48E
:102AE000E81048600846006840F08070086000BF49
:102AF0004548006800F000700028F9D0424840685E
:102B000020F00300404948600846406840F0020059
:102B1000486000BF3C48406800F00C000828F9D12C
:102B20000CBD10B5FFF792FF10BD10B53648006818
:102B300040F00100344908600846406834490840C4
:102B40003149486008460068324908402E4908600B
:102B50000846006820F4802008600846406820F499
:102B6000FE0048604FF41F008860FFF7DAFF4FF067
:102B700000602949086010BD10B500210020002226
:102B8000214B5B6803F00C0121B1042906D0082910
:102B900028D107E0214B224C236027E01F4B204C1B
:102BA000236023E0184B5B6803F47010164B5B68DE
:102BB00003F48032022303EB904022B9194B4343C4
:102BC000174C23600DE0104B5B6803F4003323B116
:102BD000144B4343124C236003E0104B4343104C0F
:102BE000236003E00D4B0E4C236000BF00BF064B7B
:102BF0005B68C3F303130C4CE15C094B1B68CB40CF
:102C0000074C236010BD000000100240002002406D
:102C10000000FFF8FFFFF6FE08ED00E000127A006A
:102C20006000002000093D00640000200648804745
:102C300006480047FEE7FEE7FEE7FEE7FEE7FEE7A1
:102C4000FEE7FEE7FEE7FEE72B2B00083101000858
:102C50002DE9FE4F804681EA0300C00F0C4600902C
:102C600021F0004123F00045B8EB0200A94105D254
:102C70004046214690461C460B46024623F0004043
:102C8000104347D0270DC7F30A00C3F30A5102903F
:102C9000401A019040286BDAC3F3130040F4801B04
:102CA0000098924620B10023D2EB030A63EB0B0B92
:102CB00001985946C0F14002504600F0A5F9064679
:102CC0000D4650465946019A00F0ADF910EB080048
:102CD0006141002487EA115284EAE7731A4340D025
:102CE000009A62B3019A012A4FEA075215DC001BD1
:102CF00061EB02014FF0004202EA0752CDE90042C7
:102D0000001C41F5801132462B4600F0ADF903B0AE
:102D1000BDE8F08F40462146F9E7001B61EB020158
:102D2000001C41F5801300185B412018A2F5001724
:102D300047EB030140EAD570B6196D4111E06D080B
:102D40004FEA360645EAC0754FEA0752001B61EBB1
:102D50000201001C41F5801149084FEA30000019BA
:102D6000514132462B4603B0BDE8F04F00F06DB93B
:102D70000098012240000023D0EB020263EBE073D5
:102D8000009821464FEAE074B8EB000061EB0401C3
:102D9000E9E783F000435BE781F0004158E72DE964
:102DA000FE4F81EA030404F0004421F00041009446
:102DB0004FF0000B23F0004350EA01045ED052EACA
:102DC00003045BD0C3F30A54C1F30A552C44A4F2A4
:102DD000F3340194A0FB0254C1F3130141F48011B8
:102DE000C3F3130343F4801301FB024400FB034EBF
:102DF000840A970A44EA815447EA8357A4FB076888
:102E000002958D0A05FB07854FEA932C04FB0C54B1
:102E10002705029D4FEA065847EA1637B5EB080525
:102E20006EEB070C870E920E47EA811742EA831277
:102E3000A7FB0201B6EB0B0164EB00042B0D43EA88
:102E40000C335E1844EB1C50DA465146E7FB020196
:102E5000C5F313044FEA0B3343EA14534FEA043229
:102E6000019C43EA0603A4F10C040294009CCDE902
:102E700000B400F0F9F803B0BDE8F08F002001467F
:102E8000F9E72DE9F04D81EA030404F0004B21F04D
:102E9000004514464FF0000A23F0004150EA0502B5
:102EA00020D054EA01021DD0C5F30A570246C5F3EB
:102EB0001303C1F31300C1F30A5640F4801543F421
:102EC0008013A7EB0608101BD64608F2FD3873EBFB
:102ED000050002D308F1010801E092185B41B8F146
:102EE000000F03DA00200146BDE8F08D00204FF40A
:102EF0008011064684460EE0171B73EB050705D3C9
:102F0000121B63EB050306434CEA010C49084FEA28
:102F1000300092185B4150EA0107EDD152EA0300FC
:102F200012D082EA040083EA0501084305D0101B91
:102F3000AB4106D20122002306E000224FF00043FD
:102F400002E06FF0010253101AEB06004CEB08513F
:102F500010EB0A0041EB0B01BDE8F04D00F075B835
:102F60000EB540F2334102910021CDE900110A462D
:102F70000B4600F079F803B000BD30B50B460146B2
:102F800000202022012409E021FA02F59D4205D308
:102F900003FA02F5491B04FA02F52844151EA2F1B2
:102FA0000102F1DC30BD2DE9F05F054600209246BC
:102FB0009B4688460646814640241BE028464146FB
:102FC0004746224600F0E0F853465A46C01A91415F
:102FD00010D311461846224600F016F82D1A67EB5A
:102FE00001084F4622460120002100F00DF817EBA2
:102FF00000094E41201EA4F10104DFDC48463146A1
:103000002A464346BDE8F09F202A04DB203A00FA16
:1030100002F1002070479140C2F1200320FA03F32F
:10302000194390407047202A06DBCB17203A41FA1B
:1030300002F043EAE07306E041FA02F3D040C2F145
:103040002002914008431946704710B5141E73F1D1
:10305000000408DA401C41F1000192185B411A4358
:1030600001D120F0010010BD2DE9F04D92469B46A4
:1030700011B1B1FA81F202E0B0FA80F2203290464A
:10308000FFF7C2FF04460F4640EA0A0041EA0B017F
:1030900053465A46084313D0114653EA010019D04B
:1030A000C8F14002504600F06FF805460E46504603
:1030B00059464246FFF7A8FF084305D0012004E027
:1030C00020463946BDE8F08D0020054346EAE0760B
:1030D0002C4337430A986305E40AA0EB080000225A
:1030E000FD0A44EA47540A3002D500200146E9E7C8
:1030F000010510196941DDE9084500196941BDE87C
:10310000F04DA2E7C1F30A52C1F3130140F2FF33BD
:1031100041F480119A4202DA00200146704740F2E1
:1031200033439A42A2F2334202DC524200F02CB8FE
:10313000FFF76ABF30B5041E71F1000404DB4FF0E5
:103140000044404264EB0101141E73F1000405DBEE
:103150001C464FF00043524263EB0403994208BF00
:10316000904230BD064C074D06E0E06840F0010398
:1031700094E8070098471034AC42F6D3FCF7DCFF24
:10318000F087000810880008202A04DB203A21FA82
:1031900002F00021704721FA02F3D040C2F1200270
:1031A00091400843194670470FB4084B10B504A965
:1031B00002AA039800F0DEF8044602A9002000F0FD
:1031C00070FC204610BC5DF814FB0000A33A000818
:1031D00002E008C8121F08C1002AFAD170477047E0
:1031E000002001E001C1121F002AFBD1704700003E
:1031F0002DE9FF5F82B00021DDE90430020DDDF82A
:1032000040B0034318D044F61050A2F2FF324243BC
:103210001514119801281FD0A5EB0B00401C5FEA84
:10322000000A4FF000064E4FDFF83891B046504686
:1032300015D5CAF1000413E0119801244AA301280E
:1032400001D16FEA0B010298119AC0E90031C0E97F
:10325000024206B0BDE8F09FCBF10000DFE7044674
:103260000021404A491842EB0450CDE9001012E019
:10327000E00707D032463B4640464946FFF78FFD00
:103280008046894632463B4610461946FFF787FD81
:1032900006460F466410002CEAD1DDE90401DDE9A1
:1032A0000023BAF1000F06DAFFF779FD42464B46DC
:1032B000FFF775FD05E0FFF7E4FD42464B46FFF7DB
:1032C000E0FD04460E460022284BFFF733FF03D8EB
:1032D0004FF0FF30014607E00022254B20463146E3
:1032E000FFF7B6FCFFF70EFF102409E0002C0ADB05
:1032F0000A220023FFF757FE039B30321A55641E43
:1033000050EA0102F2D1641C039AC4F1110314447F
:10331000119A012A03D0012208430DD10AE0084383
:1033200004D000204FF0110B119072E7A3EB0B05B6
:103330006D1E0DE05B4504DD4FF0000205F1010557
:1033400004E003DA4FF00002A5F10105002AECD0F9
:1033500002981199C0E90231C0E9004579E70000FF
:10336000000014400000F03F300000000000F04377
:103370000000E03F2DE9FF4F95B09B468946064689
:1033800000250FE2252877D100242746F84A01219D
:10339000059400E0044316F8013F203B01FA03F0D6
:1033A0001042F7D130782A2811D06FF02F033078EF
:1033B000A0F13002092A16D8059A44F0020402EB63
:1033C000820203EB42021044761C0590EFE759F8A5
:1033D000042B0592002A03DA504244F4005405906D
:1033E00044F00204761C30782E2816D116F8010F0E
:1033F00044F004042A280DD06FF02F023078A0F199
:103400003003092B09D807EB870302EB4303C718E6
:10341000761CF3E759F8047B761C30786C280FD0C3
:1034200006DC4C2817D068280DD06A2814D104E097
:10343000742810D07A280FD10DE044F400140AE06B
:1034400044F4801401E044F440147278824202D1C2
:1034500004F58014761C761C307866280BD013DCBB
:10346000582877D009DC002875D04528F6D04628A2
:10347000F4D047281AD19DE118E0632835D064289C
:1034800079D0652812D195E1702873D008DC6728BF
:10349000F1D069286FD06E280DD06F2806D1B5E025
:1034A00073282CD0752875D0782874D05A4617996F
:1034B00090476D1C75E1C4F30250022809D003281F
:1034C0000DD0D9F8001004280DD00D6009F10409C1
:1034D00067E1D9F80010EA17C1E90052F6E7D9F818
:1034E00000100D80F2E70D70F0E719F8041B8DF85D
:1034F000001000208DF80100EA46012003E059F891
:1035000004AB4FF0FF3061074FF0000102D40DE033
:1035100008F101018846B9420FDA8045F8DB1AF854
:1035200008100029F4D108E008F101018846814221
:10353000FADB1AF808100029F6D105985B46A0EBD3
:10354000080721463846179A00F094FA284400EB01
:10355000080507E04DE029E10DE01AF8010B5A4695
:1035600017999047B8F10108F7D25B4621463846D3
:10357000179A13E142E00A220092C4F302524FF07C
:10358000000A022A08D059F804CB032A4FEAEC714A
:103590000AD00DE029E02AE009F1070121F0070235
:1035A000F2E802C1914609E00FFA8CFC4FEAEC7197
:1035B000042A03D14FFA8CFC4FEAEC71002907DA98
:1035C0000A460021DCF1000C61EB02012D2202E031
:1035D000220504D52B228DF80420012203E0E20706
:1035E00001D02022F7E7904659E00A2102E010229C
:1035F0000DE010214FF0000A00910BE010224FF077
:10360000000A44F004040827009203E008224FF067
:10361000000A0092C4F30252022A05D059F804CBE2
:103620000021032A08D009E009F1070121F007026F
:10363000F2E802C1914605E01FFA8CFC042A01D190
:103640000CF0FF0C4FF00008220728D5702806D098
:10365000009B83F0100353EA0A0305D00EE04022DA
:103660008DF80420012208E05CEA010206D0302235
:103670008DF804208DF8050002229046009B83F00F
:10368000080353EA0A030AD15CEA010201D1620786
:1036900005D530228DF804204FF001087F1E5828F0
:1036A00004D034A003900EA802900DE036A0F9E7F4
:1036B00053466046009AFFF776FC84460398825C86
:1036C0000298401E029002705CEA0100F0D102985C
:1036D00006A9081A00F1200A600702D524F48034F4
:1036E00000E00127574502DDA7EB0A0000E00020BB
:1036F00000EB0A01009005984144401A0590E00350
:1037000006D45B462146179A059800F0B3F90544A4
:10371000002706E001A85A46C05D179990476D1C26
:103720007F1C4745F6DBE0030CD55B462146179A24
:10373000059800F09FF9054404E030205A46179997
:1037400090476D1C0099481E00900029F5DC08E0A8
:10375000029802995A460078491C0291179990479D
:103760006D1CBAF10001AAF1010AF1DC65E100006B
:103770000928010030313233343536373839616247
:10378000636465660000000030313233343536370B
:1037900038394142434445460000000000F058F9E2
:1037A0000544761C307800287FF4ECAD19B028462B
:1037B000BDE8F08F620700D4062709F1070222F066
:1037C000070CFCE80223E14603F000485FEA080C1E
:1037D00002D00FF2702C0DE05FEA045C02D50FF20C
:1037E000682C07E05FEAC47C02D00FF2602C01E095
:1037F000AFF2700C4FF0FF3823F00043CDF850C00B
:1038000065280CD006DC452809D046281DD047285D
:103810003DD13DE0662818D067287ED138E00021F0
:10382000112F01DB112000E0781CCDE9000106A971
:103830000EA8FFF7DDFCDDE90F010E9A03910021D0
:10384000009207F1010A04914DE04FF0004000970B
:10385000CDE9011006A90EA8FFF7CAFCDDE90F02A9
:1038600003920E9B11990022DDF80CA000930492A4
:1038700011B9791C00EB010AB7EB0A0004D4C0F1BE
:10388000FF3007F1010A0490AAEB0700019044E021
:10389000012F00DA01270021112F01DD112000E0A6
:1038A0003846CDE9000106A90EA8FFF7A1FCDDE925
:1038B0000F010E9A0391002104910092BA4621074C
:1038C0000CD40399514500DA8A46BAF1010F05DD9F
:1038D000009AAAF10101515C302908D0B84202DAFD
:1038E00010F1040F06DA0121CDE9011015E0AAF16B
:1038F0000101E9E7002805DC049901440491AAEBE1
:10390000000102E0411C514500DD8A460499401A3D
:10391000401C01904FF000400290200704D4019811
:10392000504501DBCDF8048000208DF84F0002984F
:103930000DF14F07B0F1004F25D02B200E900298CB
:103940004FF0020800280CDA404202902D200E9021
:1039500007E00A210298FFF710FB3031029007F8C8
:10396000011DB8F10001A8F10108F2DC029800285D
:10397000EFD1791E0E980870307800F0200040F0EA
:10398000450007F8020D12A8C01B00F107081498A3
:10399000007800B1012000EB0A01019801EBE07111
:1039A00005984144401A401E0590E00306D45B464A
:1039B0002146179A059800F05DF8054414980078A0
:1039C00018B15A46179990476D1CE00324D55B4601
:1039D0002146179A059800F04DF805441CE004981C
:1039E000002807DBDDE90301884203DD0098405C25
:1039F000179901E0179930205A469047049805F12D
:103A00000105401C04900198401E019004D12E2015
:103A10005A46179990476D1CBAF10001AAF1010AA4
:103A2000DDDC05E017F8010B5A46179990476D1C2D
:103A3000B8F10001A8F10108F4DC5B462146179AB1
:103A40000598ABE62D0000002B00000020000000D0
:103A50002DE9F041044600251E461746880404D48B
:103A600005E039462020B0476D1C641EF9D5284674
:103A7000BDE8F0812DE9F041044600251E46904640
:103A8000C80301D5302700E02027880404D505E0CD
:103A900041463846B0476D1C641EF9D52846BDE83E
:103AA000F0810A68531C0B60107070470000000022
:103AB00000000000202020200020000050500000C6
:103AC000000000002850F850F850A000203060306E
:103AD00010602000202018601010000000382060C6
:103AE000507800002020200000000000102020203E
:103AF0002020100040202020202040002070205056
:103B000000000000002020F820200000000000003D
:103B100010202000000000700000000000000000E5
:103B200000200000102020204040800020505050F5
:103B3000502000006020202020F80000205020208D
:103B400040700000205010201060000010305078AD
:103B5000103800007040601050200000304060506D
:103B60005060000070501020202000002050205095
:103B70005020000030505030106000000000200045
:103B8000002000000000100010200000001020C0E5
:103B9000201000000070007000000000004020189D
:103BA00020400000205010200020000030484858DD
:103BB000484038006020507088D80000F0487048B5
:103BC00048F000007050404040300000F048484845
:103BD00048F00000F848604048F80000F8486040AD
:103BE00040E000007040405850300000E8487848FD
:103BF00048E800007020202020700000381010508D
:103C000050200000D850607050D80000E040404084
:103C100048F80000D8D8D8A888D80000D8686858D4
:103C200058E800003048484848300000F0484870E4
:103C300040E000003048484848301800F0484870DC
:103C400048E800007050201050700000F8A82020B4
:103C500020700000D848484848300000D8884850B4
:103C600050300000D888A8A8A8500000D8502020C4
:103C700050D80000D88850202070000078481020CC
:103C80004878000030202020202030008040402054
:103C900020201000602020202020600020205000E4
:103CA0000000000000000000000000F820100000EC
:103CB000000000000000301070780000C040704824
:103CC00048F00000000070404070000018083848BC
:103CD0004838000000007070403000001020702054
:103CE000207000000000384848380830C040704854
:103CF00048E80000200060202070000020007010C4
:103D000010101070C040587050D800006020202063
:103D1000207000000000D0A8A8A800000000F04813
:103D200048C8000000003048483000000000F0485B
:103D3000487040E0000038484838081800007820F3
:103D40002070000000003020106000000040F040B3
:103D5000483000000000D848483800000000C8483B
:103D6000303000000000D8A8A85000000000483003
:103D7000304800000000D8505020206000007850EB
:103D80002878000010202060202010002020202013
:103D9000202020004020203020204000000000286B
:103DA00050000000000000000000000000000000C3
:103DB000001010101010000010000000006C4848A7
:103DC0000000000000000000001414287C287C285B
:103DD000505000000010384040384870101000006B
:103DE000002050200C70081408000000000000188B
:103DF0002020544834000000001010101000000073
:103E00000000000000080810101010101008080032
:103E100000202010101010101020200000107C1026
:103E200028280000000000000000101010FE1010F4
:103E300010000000000000000000001810302000FA
:103E400000000000007C00000000000000000000F6
:103E500000000030300000000004040808101020AA
:103E600020400000003844444444444438000000EA
:103E700000301010101010107C00000000384404B6
:103E8000081020447C000000003844041804044456
:103E900038000000000C141424447E040E000000BE
:103EA000003C20203804044438000000001C20405E
:103EB0007844444438000000007C4404080808109A
:103EC00010000000003844443844444438000000E6
:103ED00000384444443C04087000000000000030F6
:103EE00030000030300000000000001818000018FA
:103EF0003020000000000C10608060100C000000FA
:103F0000000000007C007C00000000000000C020D9
:103F100018041820C0000000000018240408100035
:103F2000300000003844444C54544C4044380000A5
:103F30000030102828287C44EE00000000F844449B
:103F400078444444F8000000003C44404040404471
:103F50003800000000F0484444444448F0000000A9
:103F600000FC445070504044FC000000007E2228B9
:103F70003828202070000000003C4440404E44445B
:103F80003800000000EE44447C444444EE0000004D
:103F9000007C1010101010107C000000003C08087D
:103FA000084848483000000000EE4448507048443B
:103FB000E600000000702020202024247C00000067
:103FC00000EE6C6C54544444EE00000000EE646457
:103FD0005454544CEC0000000038444444444444DD
:103FE00038000000007824242438202070000000CD
:103FF0000038444444444444381C000000F844441D
:1040000044784844E200000000344C403804046422
:104010005800000000FE9210101010103800000030
:1040200000EE4444444444443800000000EE44445C
:10403000282828101000000000EE44445454545422
:104040002800000000C6442810102844C6000000C4
:1040500000EE44282810101038000000007C4408AE
:10406000101020447C000000003820202020202058
:1040700020203800004020202010100808080000F0
:104080000038080808080808080838000010102838
:1040900044000000000000000000000000000000DC
:1040A000000000FE001008000000000000000000FA
:1040B00000000038443C44443E00000000C040582A
:1040C00064444444F80000000000003C4440404484
:1040D00038000000000C04344C4444443E0000000E
:1040E00000000038447C40403C000000001C207C64
:1040F000202020207C000000000000364C44444476
:104100003C04380000C0405864444444EE000000C1
:1041100000100070101010107C00000000100078DB
:10412000080808080808700000C0405C4870504843
:10413000DC00000000301010101010107C00000097
:10414000000000E854545454FE000000000000D861
:1041500064444444EE0000000000003844444444F9
:1041600038000000000000D8644444447840E00077
:10417000000000364C4444443C040E000000006C37
:10418000302020207C0000000000003C4438044423
:10419000780000000000207C202020221C0000006D
:1041A000000000CC4444444C36000000000000EE07
:1041B0004444282810000000000000EE44545454E9
:1041C00028000000000000CC48303048CC0000003F
:1041D000000000EE44242818101078000000007C35
:1041E000481020447C00000000081010101020101F
:1041F0001010080000101010101010101010000007
:1042000000201010101008101010200000000000F6
:104210000024580000000000000000000000000022
:10422000000000000000000000000010101010103E
:10423000101000001818000000123624480000007A
:104240000000000000000000000000242424FE48BC
:104250004848FE4848480000000010385454503088
:10426000181414545438101000000044A4A8A8A82E
:10427000541A2A2A2A4400000000003048484850B6
:104280006EA494888976000000606020C000000061
:1042900000000000000000000002040808101010D8
:1042A0001010100808040200004020101008080830
:1042B0000808081010204000000000001010D63838
:1042C00038D6101000000000000000001010101080
:1042D000FE101010100000000000000000000000A0
:1042E00000000000606020C000000000000000002E
:1042F0007F0000000000000000000000000000003F
:1043000000000000606000000000010202040408D8
:1043100008101020204040000000001824424242B3
:104320004242424224180000000000107010101099
:1043300010101010107C00000000003C42424204AB
:1043400004081020427E00000000003C4242041895
:104350000402024244380000000000040C1424242B
:1043600044447E04041E00000000007E404040588B
:1043700064020242443800000000001C24404058FF
:1043800064424242241800000000007E44440808B1
:1043900010101010101000000000003C4242422497
:1043A00018244242423C00000000001824424242CD
:1043B000261A02022438000000000000000018182D
:1043C00000000000181800000000000000000010AD
:1043D000000000000010102000000002040810205F
:1043E0004020100804020000000000000000FE0051
:1043F0000000FE0000000000000000402010080443
:1044000002040810204000000000003C424262020A
:10441000040808001818000000000038445AAAAA2E
:10442000AAAAB4424438000000000010101828283E
:10443000243C444242E70000000000F84444447831
:104440004442424244F800000000003E4242808064
:104450008080804244380000000000F8444242421C
:104460004242424244F80000000000FC42484878C2
:104470004848404242FC0000000000FC42484878A6
:104480004848404040E000000000003C4444808038
:10449000808E844444380000000000E742424242DB
:1044A0007E42424242E700000000007C10101010E3
:1044B00010101010107C00000000003E08080808D2
:1044C00008080808080888F0000000EE444850700A
:1044D0005048484444EE0000000000E040404040A6
:1044E0004040404042FE0000000000EE6C6C6C6CEE
:1044F0005454545454D60000000000C76262525213
:104500004A4A4A4646E2000000000038448282825D
:104510008282828244380000000000FC4242424213
:104520007C40404040E0000000000038448282822D
:104530008282B2CA4C380600000000FC4242427C33
:104540004848444442E300000000003E424240200C
:1045500018040242427C0000000000FE921010107D
:104560001010101010380000000000E742424242D4
:1045700042424242423C0000000000E742424424E2
:104580002428281810100000000000D69292929261
:10459000AAAA6C4444440000000000E74224241806
:1045A0001818242442E70000000000EE44442828A4
:1045B00010101010103800000000007E840408085D
:1045C0001020204242FC0000001E1010101010109D
:1045D0001010101010101E0000004040202010107D
:1045E00010080804040402020078080808080808F3
:1045F0000808080808087800001C220000000000D5
:1046000000000000000000000000000000000000AA
:1046100000000000000000FF00606020C0000000FB
:104620000000000000000000000000000000003C4E
:10463000421E2242423F0000000000C0404040585D
:104640006442424264580000000000000000001C68
:1046500022404040221C0000000000060202021E10
:1046600022424242261B0000000000000000003CE5
:10467000427E4040423C00000000000F1110107EBE
:1046800010101010107C0000000000000000003E20
:10469000444438403C42423C000000C04040405C42
:1046A0006242424242E700000000003030000070E9
:1046B00010101010107C00000000000C0C00001CFA
:1046C0000404040404044478000000C04040404E48
:1046D0004850684844EE00000000007010101010B0
:1046E00010101010107C000000000000000000FE00
:1046F0004949494949ED000000000000000000DC84
:104700006242424242E70000000000000000003C1C
:1047100042424242423C000000000000000000D83B
:1047200064424242447840E0000000000000001E65
:1047300022424242221E020700000000000000EE5A
:104740003220202020F80000000000000000003E81
:1047500042403C02427C0000000000000010107C3F
:1047600010101010100C000000000000000000C627
:1047700042424242463B000000000000000000E7C9
:10478000422424281010000000000000000000D780
:104790009292AAAA44440000000000000000006EAB
:1047A000241818182476000000000000000000E71C
:1047B00042242428181010E0000000000000007EB1
:1047C00044081010227E00000003040404040408BE
:1047D000040404040404030008080808080808087E
:1047E00008080808080808080060101010101008D1
:1047F0001010101010106000304C4300000000003A
:1048000000000000000000000000000000000000A8
:104810000000000000000000000000000000000098
:104820000000000000000000000000000000000088
:104830000000070007000700070007000700070047
:104840000200020000000000070007000000000056
:104850000000000000000000000000001CE01CE060
:104860001CE0084008400840000000000000000074
:104870000000000000000000000000000000000038
:104880000CC00CC00CC00CC00CC03FF03FF00CC002
:104890000CC03FF03FF00CC00CC00CC00CC00CC0F2
:1048A00000000000000000000300030007E00FE02C
:1048B000186018001F000FC000E0186018601FC0CB
:1048C0001F80030003000300000000000000000040
:1048D00000001C002200220022001C6001E00F806A
:1048E0003C0031C002200220022001C00000000074
:1048F000000000000000000000000000000003E0D5
:104900000FE00C000C0006000F301FF019E018C07B
:104910001FF007B0000000000000000000000000D1
:1049200000000000038003800380010001000100FB
:104930000000000000000000000000000000000077
:104940000000000000000000000000C000C0018066
:104950000180018003000300030003000300030043
:1049600001800180018000C000C000000000000044
:1049700000000C000C000600060006000300030007
:1049800003000300030003000600060006000C00FD
:104990000C00000000000000000003000300030002
:1049A0001B601FE0078007800FC00CC000000000E4
:1049B00000000000000000000000000000000000F7
:1049C00000000000000003000300030003003FF0AC
:1049D0003FF003000300030003000000000000009C
:1049E00000000000000000000000000000000000C7
:1049F0000000000000000000000000000000038034
:104A00000300030006000600040000000000000090
:104A100000000000000000000000000000003FE077
:104A20003FE0000000000000000000000000000067
:104A30000000000000000000000000000000000076
:104A400000000000000000000000000000000380E3
:104A50000380038000000000000000000000000050
:104A60000060006000C000C000C001800180030041
:104A70000300060006000C000C000C0018001800D3
:104A8000000000000000000000000F801FC018C0E0
:104A9000306030603060306030603060306018C04E
:104AA0001FC00F8000000000000000000000000098
:104AB000000003001F001F000300030003000300A9
:104AC00003000300030003001FE01FE000000000DC
:104AD000000000000000000000000F801FC038E050
:104AE0003060006000C00180030006000C00180068
:104AF0003FE03FE000000000000000000000000078
:104B000000000F803FC030E0006000E007C007C039
:104B100000E00060006060E07FC03F8000000000B7
:104B20000000000000000000000001C003C003C03E
:104B300006C00CC00CC018C030C03FE03FE000C051
:104B400003E003E00000000000000000000000009F
:104B500000001FC01FC0180018001F801FC018E0F1
:104B600000600060006030E03FC01F800000000077
:104B70000000000000000000000003E00FE01E0045
:104B80001800380037803FC038E03060306018E0EF
:104B90001FC00780000000000000000000000000AF
:104BA00000003FE03FE03060006000C000C000C097
:104BB0000180018001800300030003000000000069
:104BC000000000000000000000000F801FC038E05F
:104BD000306038E01FC01FC038E03060306038E01F
:104BE0001FC00F8000000000000000000000000057
:104BF00000000F001FC038C03060306038E01FE098
:104C00000F6000E000C003C03F803E0000000000D5
:104C10000000000000000000000000000000000094
:104C20000000038003800380000000000000038078
:104C3000038003800000000000000000000000006E
:104C40000000000000000000000001C001C001C021
:104C500000000000000003800300060006000400BE
:104C60000000000000000000000000000000003014
:104C700000F003C007001C0078001C00070003C000
:104C800000F0003000000000000000000000000004
:104C9000000000000000000000007FF07FF0000036
:104CA00000007FF07FF00000000000000000000026
:104CB00000000000000000000000000000003000C4
:104CC0003C000F00038000E0007800E003800F004C
:104CD0003C00300000000000000000000000000068
:104CE000000000000F801FC018601860006001C045
:104CF0000380030000000000070007000000000020
:104D00000000000000000000000003800C8008404C
:104D10001040104011C012401240124011C010004B
:104D200008000840078000000000000000000000AC
:104D3000000000001F801F80038006C006C00CC05A
:104D40000C601FE01FE030307878787800000000B9
:104D50000000000000000000000000003F803FC095
:104D60001860186018E01FC01FE018701830183065
:104D70003FF03FE0000000000000000000000000E5
:104D80000000000007B00FF01C7038303000300019
:104D90003000300038301C700FE007C00000000009
:104DA0000000000000000000000000007F807FC0C5
:104DB00030E030703030303030303030307030E013
:104DC0007FC07F80000000000000000000000000A5
:104DD000000000003FF03FF01830183019801F80AD
:104DE0001F801980183018303FF03FF0000000009D
:104DF0000000000000000000000000003FF03FF055
:104E00001830183019801F801F8019801800180072
:104E10003F003F0000000000000000000000000014
:104E20000000000007B01FF0187030303000300074
:104E300031F831F8303018301FF007C000000000A2
:104E40000000000000000000000000003CF03CF00A
:104E50001860186018601FE01FE018601860186084
:104E60003CF03CF0000000000000000000000000EA
:104E7000000000001FE01FE0030003000300030028
:104E800003000300030003001FE01FE00000000018
:104E900000000000000000000000000003F803F81C
:104EA000006000600060006030603060306030E0C2
:104EB0003FC00F8000000000000000000000000064
:104EC000000000003EF83EF818E019801B001F00AB
:104ED0001D8018C018C018603E783E3800000000E1
:104EE0000000000000000000000000003F003F0044
:104EF0000C000C000C000C000C000C300C300C30C2
:104F00003FF03FF000000000000000000000000043
:104F1000000000007878787838703CF034B037B012
:104F200037B03330333030307CF87CF8000000008C
:104F300000000000000000000000000039F03DF01B
:104F40001C601E601E601B601B6019E019E018E009
:104F50003EE03E6000000000000000000000000095
:104F60000000000007800FC01CE038703030303087
:104F70003030303038701CE00FC007800000000077
:104F80000000000000000000000000003FC03FE003
:104F900018701830183018701FE01FC01800180063
:104FA0003F003F0000000000000000000000000083
:104FB0000000000007800FC01CE038703030303037
:104FC0003030303038701CE00FC0078007B00FF071
:104FD0000CE0000000000000000000003FC03FE0C7
:104FE0001870183018701FE01FC018E01860187093
:104FF0003E383E18000000000000000000000000E5
:10500000000000000FB01FF03870303038001F80F3
:1050100007E00070303038703FE037C0000000001B
:105020000000000000000000000000003FF03FF022
:105030003330333033300300030003000300030038
:105040000FC00FC0000000000000000000000000C2
:10505000000000003CF03CF0186018601860186018
:105060001860186018601CE00FC007800000000086
:1050700000000000000000000000000078F078F060
:105080003060306018C018C00D800D800D800700A2
:105090000700070000000000000000000000000002
:1050A000000000007C7C7C7C301833983398339867
:1050B00036D816D01C701C701C7018300000000010
:1050C00000000000000000000000000078F078F010
:1050D000306018C00D80070007000D8018C03060D8
:1050E00078F078F0000000000000000000000000F0
:1050F000000000003CF03CF018600CC00780078006
:1051000003000300030003000FC00FC000000000F5
:105110000000000000000000000000001FE01FE091
:10512000186018C001800300030006000C601860BE
:105130001FE01FE000000000000000000000000071
:10514000000003C003C003000300030003000300CA
:10515000030003000300030003000300030003C077
:1051600003C0000000000000180018000C000C0034
:105170000C0006000600030003000180018000C04F
:1051800000C000C0006000600000000000000000DF
:1051900000000F000F0003000300030003000300E2
:1051A00003000300030003000300030003000F00DB
:1051B0000F000000000000000000020007000D804A
:1051C00018C0306020200000000000000000000037
:1051D00000000000000000000000000000000000CF
:1051E00000000000000000000000000000000000BF
:1051F00000000000000000000000000000000000AF
:1052000000000000FFFCFFFC000004000300008021
:10521000000000000000000000000000000000008E
:10522000000000000000000000000000000000007E
:10523000000000000000000000000FC01FE0006040
:105240000FE01FE0386030E03FF01F70000000000A
:10525000000000000000000000007000700030003E
:10526000300037803FE038603030303030303860E8
:105270007FE07780000000000000000000000000D8
:105280000000000000000000000007B01FF0183010
:1052900030303000300038301FF00FC00000000008
:1052A00000000000000000000000007000700030EE
:1052B000003007B01FF018703030303030303870A8
:1052C0001FF807B800000000000000000000000008
:1052D0000000000000000000000007801FE01860D0
:1052E0003FF03FF0300018301FF007C00000000012
:1052F0000000000000000000000003F007F00600BE
:1053000006001FE01FE0060006000600060006007B
:105310001FE01FE00000000000000000000000008F
:105320000000000000000000000007B81FF818701F
:1053300030303030303018701FF007B0003000705F
:105340000FE00FC000000000000038003800180017
:1053500018001BC01FE01C601860186018601860FF
:105360003CF03CF0000000000000000000000000E5
:10537000000003000300000000001F001F000300E6
:1053800003000300030003001FE01FE00000000013
:105390000000000000000000000003000300000007
:1053A00000001FC01FC000C000C000C000C000C07F
:1053B00000C000C000C001C03F803F0000000000EE
:1053C000000038003800180018001BE01BE01B002C
:1053D0001E001E001B00198039F039F0000000008B
:1053E000000000000000000000001F001F0003007C
:1053F0000300030003000300030003000300030095
:105400001FE01FE00000000000000000000000009E
:10541000000000000000000000007EE07FF033305C
:1054200033303330333033307BB87BB8000000008A
:10543000000000000000000000000000000000006C
:1054400000003BC03FE01C601860186018601860E6
:105450003CF03CF0000000000000000000000000F4
:105460000000000000000000000007801FE018603E
:1054700030303030303018601FE00780000000000E
:10548000000000000000000000000000000000001C
:10549000000077807FE03860303030303030386066
:1054A0003FE03780300030007C007C0000000000CE
:1054B0000000000000000000000007B81FF818708E
:1054C00030303030303018701FF007B0003000300E
:1054D00000F800F8000000000000000000000000DC
:1054E00000003CE03DF00F300E000C000C000C0002
:1054F0003FC03FC0000000000000000000000000AE
:105500000000000000000000000007E01FE018603D
:105510001E000FC001E018601FE01F8000000000A7
:105520000000000000000000000000000C000C0063
:105530000C003FE03FE00C000C000C000C000C30B5
:105540000FF007C000000000000000000000000095
:105550000000000000000000000038E038E01860A3
:1055600018601860186018E01FF00F70000000004D
:10557000000000000000000000000000000000002B
:10558000000078F078F0306018C018C00D800D80F1
:1055900007000700000000000000000000000000FD
:1055A0000000000000000000000078F078F0326099
:1055B000326037E01DC01DC018C018C000000000D8
:1055C00000000000000000000000000000000000DB
:1055D00000003CF03CF00CC00780030007800CC0CA
:1055E0003CF03CF000000000000000000000000063
:1055F0000000000000000000000078F078F030604B
:1056000018C018C00D800F800700060006000C00AF
:105610007F007F000000000000000000000000008C
:1056200000001FE01FE018C00180030006000C60AE
:105630001FE01FE00000000000000000000000006C
:10564000000001C003C003000300030003000300C7
:1056500007000E000700030003000300030003C05F
:1056600001C0000000000000000003000300030070
:105670000300030003000300030003000300030012
:10568000030003000300030003000000000000000B
:1056900000001C001E0006000600060006000600B2
:1056A00007000380070006000600060006001E0033
:1056B0001C000000000000000000000000000000CE
:1056C000000000000E003F3033F001E00000000059
:1056D00000000000000000000000000000000000CA
:1056E00000000000000000000000000000000000BA
:1056F00000000000000000000000000000000000AA
:105700000000000000000000000000000000000099
:105710000000000000000000000000000000000089
:1057200000000000000000000000000000000380F6
:1057300000038000038000038000038000038000DA
:1057400003800003800003800001000001000000CE
:105750000000000000038000038000000000000043
:105760000000000000000000000000000000000039
:105770000000000000000000000E70000E70000E1F
:105780007000042000042000042000042000000019
:105790000000000000000000000000000000000009
:1057A00000000000000000000000000000000000F9
:1057B0000000000000000000000000000000066083
:1057C000000660000660000660000660003FF8000A
:1057D0003FF8000660000CC0003FF8003FF8000CE6
:1057E000C0000CC0000CC0000CC0000CC0000000C9
:1057F00000000000000000000000000000000000A9
:1058000000000001800001800007B0000FF00018C8
:1058100070001870001C00000F800007E00000F00E
:10582000001830001C30001C70001FE0001BC0007E
:105830000180000180000180000180000000000064
:1058400000000000000000000000000000000780D1
:10585000000FC0001CE0001860001860001CE00091
:105860000FF80007E0001FF00007380006180006D8
:10587000180007380003F00001E0000000000000FD
:105880000000000000000000000000000000000018
:1058900000000000000000000000000003F000070E
:1058A000F0000C60000C00000C0000060000070077
:1058B000000F9C001DFC0018F0001870000FFC0089
:1058C00007DC0000000000000000000000000000F5
:1058D00000000000000000000000000000000000C8
:1058E000000380000380000380000100000100002D
:1058F00001000001000000000000000000000000A6
:105900000000000000000000000000000000000097
:105910000000000000000000000000000000000087
:1059200000000000000000180000380000700000B7
:10593000F00000E00000E00001C00001C00001C074
:105940000001C00001C00001C00000E00000E00054
:105950000070000070000038000018000000000017
:10596000000000000000000000000000000018001F
:10597000001C00000E00000E0000070000070000E1
:105980000380000380000380000380000380000385
:1059900080000700000700000F00000E00001C0040
:1059A00000180000000000000000000000000000DF
:1059B0000000000000000180000180000180001D47
:1059C000B8001FF80007E00003C00003C000066035
:1059D0000006600000000000000000000000000061
:1059E00000000000000000000000000000000000B7
:1059F00000000000000000000000000000000000A7
:105A00000000000001800001800001800001800092
:105A10000180003FFC003FFC00018000018000018C
:105A200080000180000180000000000000000000F4
:105A30000000000000000000000000000000000066
:105A40000000000000000000000000000000000056
:105A50000000000000000000000000000000000046
:105A60000000000000000000000000E00000C00096
:105A700001C000018000018000030000030000005D
:105A80000000000000000000000000000000000016
:105A90000000000000000000000000000000000006
:105AA0000000001FF8001FF80000000000000000C8
:105AB00000000000000000000000000000000000E6
:105AC00000000000000000000000000000000000D6
:105AD00000000000000000000000000000000000C6
