:020000040800F2
:10000000F8660024B10200082F360008C333000848
:100010002D36000889090008494600080000000044
:10002000000000000000000000000000753800081B
:100030008B090008000000003136000883380008F2
:10004000CB020008CB020008CB020008CB0200085C
:10005000CB020008CB020008CB020008CB0200084C
:10006000CB020008CB020008CB020008CB0200083C
:10007000CB020008CB020008CB020008CB0200082C
:10008000CB020008CB020008CB020008CB0200081C
:10009000CB020008CB020008CB020008CB0200080C
:1000A000CB020008113A0008CB020008CB0200087E
:1000B0001D3A0008CB020008CB020008CB02000862
:1000C000CB020008CB020008CB020008CB020008DC
:1000D000CB020008CD450008CB020008CB02000887
:1000E000CB020008CB02000800000000CB02000891
:1000F000CB020008CB020008CB020008CB020008AC
:10010000CB020008CB020008CB020008CB0200089B
:10011000CB020008CB020008CB020008CB0200088B
:10012000CB020008CB020008CB020008CB0200087B
:10013000CB020008CB020008CB020008CB0200086B
:1001400000000000000000000000000000000000AF
:10015000CB020008CB020008CB020008CB0200084B
:10016000CB020008CB020008CB020008CB0200083B
:10017000CB020008CB020008CB020008CB0200082B
:10018000CB020008CB020008CB020008CB0200081B
:10019000CB020008CB020008CB020008CB0200080B
:1001A000CB020008CB020008CB020008CB020008FB
:1001B000CB020008CB020008CB020008CB020008EB
:1001C000CB020008CB020008CB020008CB020008DB
:1001D000CB020008CB020008CB020008CB020008CB
:1001E000CB020008CB020008CB020008CB020008BB
:1001F000CB020008CB020008CB020008CB020008AB
:10020000CB020008CB020008CB020008CB0200089A
:10021000CB020008CB020008CB020008CB0200088A
:10022000CB020008CB020008CB020008000000004F
:10023000CB020008CB02000800000000CB0200083F
:10024000CB020008CB020008CB020008CB0200085A
:10025000CB020008CB020008CB020008CB0200084A
:10026000CB020008CB020008CB020008CB0200083A
:10027000CB020008CB020008CB02000800000000FF
:10028000CB020008CB020008CB02000800000000EF
:1002900000000000CB020008DFF810D000F05CFA8C
:1002A00000480047514F0008AFF30080F866002473
:1002B0000648804706480047FEE7FEE7FEE7FEE700
:1002C000FEE7FEE7FEE7FEE7FEE7FEE72D39000862
:1002D000990200082DE9F05F0546002092469B46F2
:1002E00088460646814640241BE02846414647464C
:1002F000224600F069F853465A46C01A914110D37D
:1003000011461846224600F016F82D1A67EB010830
:100310004F4622460120002100F00DF817EB00099E
:100320004E41201EA4F10104DFDC484631462A4636
:100330004346BDE8F09F202A04DB203A00FA02F190
:10034000002070479140C2F1200320FA03F31943C3
:1003500090407047202A06DBCB17203A41FA02F082
:1003600043EAE07306E041FA02F3D040C2F1200212
:100370009140084319467047D2B201E000F8012BC2
:10038000491EFBD270470022F6E710B513460A4615
:1003900004461946FFF7F0FF204610BD30B50B4666
:1003A000014600202022012409E021FA02F59D42A5
:1003B00005D303FA02F5491B04FA02F52844151E79
:1003C000A2F10102F1DC30BD202A04DB203A21FA3F
:1003D00002F00021704721FA02F3D040C2F120025E
:1003E00091400843194670472DE9FE4F804681EA47
:1003F0000300C00F0C46009021F0004123F000459F
:10040000B8EB0200A94105D24046214690461C4661
:100410000B46024623F00040104347D0270DC7F398
:100420000A00C3F30A510290401A019040286BDA87
:10043000C3F3130040F4801B0098924620B10023C0
:10044000D2EB030A63EB0B0B01985946C0F1400253
:100450005046FFF770FF06460D4650465946019A32
:10046000FFF778FF10EB08006141002487EA115282
:1004700084EAE7731A4340D0009A62B3019A012AD2
:100480004FEA075215DC001B61EB02014FF00042FE
:1004900002EA0752CDE90042001C41F580113246C4
:1004A0002B4600F07AF903B0BDE8F08F40462146B4
:1004B000F9E7001B61EB0201001C41F580130018F5
:1004C0005B412018A2F5001747EB030140EAD57005
:1004D000B6196D4111E06D084FEA360645EAC07560
:1004E0004FEA0752001B61EB0201001C41F580112D
:1004F00049084FEA30000019514132462B4603B0FB
:10050000BDE8F04F00F03AB9009801224000002306
:10051000D0EB020263EBE073009821464FEAE074EF
:10052000B8EB000061EB0401E9E783F000435BE70F
:1005300081F0004158E72DE9FE4F81EA030404F001
:10054000004421F0004100944FF0000B23F00043E1
:1005500050EA01045ED052EA03045BD0C3F30A54AC
:10056000C1F30A552C44A4F2F3340194A0FB0254C5
:10057000C1F3130141F48011C3F3130343F4801357
:1005800001FB024400FB034E840A970A44EA8154AB
:1005900047EA8357A4FB076802958D0A05FB078588
:1005A0004FEA932C04FB0C542705029D4FEA065892
:1005B00047EA1637B5EB08056EEB070C870E920E6F
:1005C00047EA811742EA8312A7FB0201B6EB0B014F
:1005D00064EB00042B0D43EA0C335E1844EB1C5013
:1005E000DA465146E7FB0201C5F313044FEA0B3329
:1005F00043EA14534FEA0432019C43EA0603A4F190
:100600000C040294009CCDE900B400F0C6F803B0DD
:10061000BDE8F08F00200146F9E72DE9F04D81EAB1
:10062000030404F0004B21F0004514464FF0000A8B
:1006300023F0004150EA050220D054EA01021DD007
:10064000C5F30A570246C5F31303C1F31300C1F300
:100650000A5640F4801543F48013A7EB0608101BDC
:10066000D64608F2FD3873EB050002D308F1010805
:1006700001E092185B41B8F1000F03DA0020014657
:10068000BDE8F08D00204FF48011064684460EE050
:10069000171B73EB050705D3121B63EB050306431A
:1006A0004CEA010C49084FEA300092185B4150EACD
:1006B0000107EDD152EA030012D082EA040083EA76
:1006C0000501084305D0101BAB4106D201220023CF
:1006D00006E000224FF0004302E06FF001025310E9
:1006E0001AEB06004CEB085110EB0A0041EB0B0132
:1006F000BDE8F04D00F042B8C1F30A52C1F3130156
:1007000040F2FF3341F480119A4202DA00200146A0
:10071000704740F233439A42A2F2334202DC524223
:10072000FFF752BEFFF707BE30B5041E71F100049B
:1007300004DB4FF00044404264EB0101141E73F1EE
:10074000000405DB1C464FF00043524263EB0403F8
:10075000994208BF904230BD064C074D06E0E06864
:1007600040F0010394E8070098471034AC42F6D3F8
:10077000FFF796FDE85000080851000810B5141E58
:1007800073F1000408DA401C41F1000192185B414A
:100790001A4301D120F0010010BD2DE9F04D924621
:1007A0009B4611B1B1FA81F202E0B0FA80F2203238
:1007B0009046FFF7C0FD04460F4640EA0A0041EAB2
:1007C0000B0153465A46084313D0114653EA010021
:1007D00019D0C8F140025046FFF7F6FD05460E4617
:1007E000504659464246FFF7A6FD084305D0012072
:1007F00004E020463946BDE8F08D0020054346EA76
:10080000E0762C4337430A986305E40AA0EB08001E
:100810000022FD0A44EA47540A3002D5002001466E
:10082000E9E7010510196941DDE908450019694149
:10083000BDE8F04DA2E70000094A4FF40001F0B412
:1008400006480223074E01248D1091610360046065
:10085000B5610520F0BC00F0A7BB000018040258E9
:10086000001002580000025870B50446FFF7E4FF7C
:100870004FF4054000F05CF8012000F095FB2046A5
:1008800002F0F9FFE54302E0204602F0F4FF022007
:10089000E9B200F065F8142000F086FB012000F0BA
:1008A00003F8A042F0D170BD10B5074C4FF40031F1
:1008B00021604006000E00F01FF800F007F800F07D
:1008C00005F80221216010BD180402582023094AAE
:1008D000002130B51C040846936140061569000EDE
:1008E0006D0601D5401CC0B29461491CC9B20829EB
:1008F000F2D330BD000002580B4A4FF4003170B5FE
:1009000011602024094B00212504060601D514603E
:1009100000E015604006491C9C61000EC9B29D6153
:100920000829F2D370BD00001804025800000258D4
:1009300030B50A4D04464FF400302860200AFFF716
:10094000DBFFE0B2FFF7D8FF0020FFF7D5FF002064
:10095000FFF7D2FF0220286030BD000018040258C3
:1009600030B5084C0D464FF400312160012101EBF8
:100970004000C0B2FFF7C0FF2846FFF7BDFF0220CE
:10098000206030BD18040258FEE7704772B6FEE7DB
:1009900030B50A4C4FF4003020600020FFF7ACFF68
:1009A0000020FFF7A9FFFFF791FF0546FFF78EFF35
:1009B0000221216040EA052030BD000018040258E1
:1009C0002DE9F84F044600F02DFC002C009008D0D3
:1009D00094F83500022805D080216165002084F854
:1009E0003400E3E0C84DC84EC7491835206830369A
:1009F000DFF81883DFF818938842DFF818A3DFF8D0
:100A000018B32ED0A8422CD0B0422AD0404528D0CE
:100A1000484526D0504524D0584522D0BE4A1832E9
:100A200090421ED0BD4A90421BD0BC4A1832904220
:100A300017D0BA4A3032904213D0B84A4832904266
:100A40000FD0B64A603290420BD0B44A783290420E
:100A500007D0B24A9032904203D0B04AA8329042B6
:100A600009D1026822F01E0202602068426922F069
:100A70008002426103E0026822F00E0202602768F1
:100A80008F4238464DD0A8424BD0B04249D0404565
:100A900047D0484545D0504543D0584541D09E4A5F
:100AA000183290423DD09D4A90423AD09B4A18322B
:100AB000904236D0994A3032904232D0974A4832EA
:100AC00090422ED0954A603290422AD0934A783292
:100AD000904226D0914A9032904222D08F4AA8323A
:100AE00090421ED08E4A90421BD08D4A14329042C2
:100AF00017D08B4A2832904213D0894A3C32904218
:100B00000FD0874A503290420BD0854A64329042CF
:100B100007D0834A7832904203D0814A8C32974280
:100B200004D1206E026822F4807202607649206847
:100B3000884228D0A84226D0B04224D0404522D0B6
:100B4000484520D050451ED058451CD07249183118
:100B5000884218D07149884215D0704918318842AE
:100B600011D06E49303188420DD06C4948318842ED
:100B700009D06A496031884205D068497831884295
:100B800001D066499031016821F00101016010E057
:100B900000F048FB0099401A05280AD92022626516
:100BA0000020032184F8340084F835100120BDE8CA
:100BB000F88F3868C007EBD1534A01212068904272
:100BC0002ED0A8422CD0B0422AD0404528D048454B
:100BD00026D0504524D0584522D04F4B1833984248
:100BE0001ED04E4B98421BD04C4B1833984217D016
:100BF0004A4B3033984213D0484B483398420FD079
:100C0000464B603398420BD0444B7833984207D020
:100C1000424B9033984203D0404BA833984208D1BE
:100C200094F85C703F23A06D07F01F07BB40836002
:100C300007E094F85C30A06D03F01F0301FA03F3A2
:100C40004360206890424DD0A8424BD0B04249D07A
:100C5000404547D0484545D0504543D0584541D000
:100C60002D4A183290423DD02C4A90423AD02B4A1D
:100C70001832904236D0294A3032904232D0274A38
:100C8000483290422ED0254A603290422AD0234AE0
:100C90007832904226D0214A9032904222D01F4A88
:100CA000A83290421ED01E4A90421BD01C4A1432D9
:100CB000904217D01A4A2832904213D0184A3C3238
:100CC00090420FD0164A503290420BD0144A6432F0
:100CD000904207D0124A7832904203D0104A8C32A8
:100CE00090420BD1D4E919024260E06E30B1026843
:100CF00022F480720260D4E91C024260002084F871
:100D0000340084F8351052E71000024058000240C9
:100D10007000024088000240A0000240100402401F
:100D2000085402582DE9F05F28B190F835100229D7
:100D300004D0802141650120BDE8F09F904C904B8C
:100D40000168183C18338E4ADFF83C92A1428D4C62
:100D5000DFF838E28E4FDFF83CB2DFF83CA28F4D6F
:100D60008F4E31D091422FD099422DD0A1422BD01D
:100D7000494529D0714527D0B94225D0DFF810C2A6
:100D80000CF1180C61451FD0DFF808C2ACF1600C03
:100D9000614519D0DFF8FCC1ACF1480C614513D0B6
:100DA000DFF8F0C1ACF1300C61450DD0DFF8E4C1E3
:100DB000ACF1180C614507D0594505D0514503D019
:100DC000A94201D0B1422CD1DFF8B4C14FF00408E0
:100DD00080F83580ACF1180C61451DD091421BD0D4
:100DE000994219D0A14217D0494515D0714513D069
:100DF000B94211D06648183081420DD0654860383C
:100E0000814209D063484838814205D06148303872
:100E1000814201D05F481838086820F0010008605E
:100E2000ABE0D1F800C02CF00E08DFF854C1C1F8D7
:100E30000080ACF1180C0168614527D0914225D0A3
:100E4000994223D0A14221D049451FD071451DD0E0
:100E5000B9421BD0DFF838C10CF1180C614515D030
:100E6000DFF830C1ACF1600C61450FD0DFF824C170
:100E7000ACF1480C614509D0DFF818C1ACF1300C79
:100E8000614503D0DFF80CC1ACF1180CD1F800C0FB
:100E90002CF0010CC1F800C0DFF8E4804FF0010C29
:100EA0000168A8F11808414546D0914244D09942C2
:100EB00042D0A14240D049453ED071453CD0B942D4
:100EC0003AD0334A1832914236D0324A603A91428F
:100ED00032D0304A483A91422ED02E4A303A91428E
:100EE0002AD02C4A183A914226D0594524D051454F
:100EF00022D0A94220D0B1421ED02A4A91421BD012
:100F0000284A1432914217D0264A2832914213D0EF
:100F1000244A3C3291420FD0224A503291420BD0A7
:100F2000204A6432914207D01E4A7832914203D05F
:100F30001C4A8C32914218D1016E0A6822F48072E8
:100F40000A6090F85C20816D02F01F020CFA02F238
:100F50004A60D0E919124A60C16E31B10A6822F4C0
:100F600080720A60D0E91C124A600022016D80F88C
:100F7000342080F835C001B188470020DCE600004D
:100F800028000240580002407000024088000240E1
:100F9000A00002407004024088040240A004024005
:100FA000B80402400854025870B5044600F03AF9FB
:100FB0000546601C02D004480078044400F032F971
:100FC000401BA042FAD370BD0C0000242DE9FC4F59
:100FD00001257E4C00234FF0030A4FF0B04E4FF036
:100FE0000F0BEBE005FA03F637403A0077D04F6875
:100FF000012F05D0022F03D0112F01D0122F1AD1AB
:1010000087684FEA4308D1F80CC00AFA08F927EAC2
:1010100009070CFA08FC4CEA070CC0F808C047683E
:1010200091F804C0B743CCF3001C0CFA03FC4CEA63
:10103000070CC0F804C0C6684FEA430CD1F808801A
:10104000E1460AFA0CF7BE43019708FA09F848EAA4
:101050000608C0F80C804E68022E01D0122E12D164
:10106000DE084FEA437C00EB860600960F69366A7D
:101070004FEADC6C0BFA0CF807FA0CF726EA0806C4
:101080003743009E37620E790768DDF804C006F02A
:10109000030606FA09F627EA0C073E4306604E6887
:1010A000F6001CD54A4E376847F0020737603668AD
:1010B0009F0706F00206009623F0030606F1B046ED
:1010C000B1463F0FD6F80864DFF808810BFA07FC39
:1010D000404526EA0C0603D14FF0000C41E06CE0DD
:1010E000DFF8F4C0604502D14FF0010C39E0DFF8C1
:1010F000ECC0604502D14FF0020C32E0DFF8E0C0F6
:10110000604502D14FF0030C2BE0DFF8D8C06045FA
:1011100002D14FF0040C24E0DFF8CCC0604502D1CE
:101120004FF0050C1DE0DFF8C4C0604502D14FF060
:10113000060C16E0DFF8B8C0604502D14FF0070C8E
:101140000FE0DFF8B0C0604502D14FF0080C08E0B6
:10115000DFF8A4C0604502D14FF0090C01E04FF068
:101160000A0C0CFA07FC4CEA060CC9F808C42668FD
:101170004F6826EA0206FF0300D51643266066681C
:101180004F6826EA0206BF0300D516436660D1F811
:1011900004C07646DEF800705FEACC2C27EA02072E
:1011A00000D517433760D1F804C077685FEA8C2C0C
:1011B00027EA020700D5174377605B1C0A681746C9
:1011C000DA407FF40FAFBDE8FC8F000080000058CC
:1011D000F444025800000258000402580008025863
:1011E000000C02580010025800140258001802584F
:1011F000001C02580020025800240258426921EACB
:1012000002030A4043EA0241816170470AB18161E9
:1012100070470904FBE7000001480068000C7047B4
:101220000010005C01488068704700000C0000243A
:101230000248816802781144816070470C000024E4
:10124000032010B500F086F800F0F4FF0F4A1049B3
:1012500014681368C4F3032203F00F038A5CC95CAB
:1012600002F01F0201F01F01D0400A4A20FA01F1EA
:10127000116009490860002000F010F808B1012051
:1012800010BD00F02BF8002010BD000018440258DB
:10129000D85000081C0000241800002470B50D4D23
:1012A00004462878A0B14FF47A71B1FBF0F00A49F6
:1012B0000968B1FBF0F001F0DDFA48B9102C07D253
:1012C00000222146501E00F025F800206C6070BD01
:1012D000012070BD0C00002418000024054808B54A
:1012E000016841F002010160006800F00200009016
:1012F00008BD0000F4440258002809DB410900F051
:101300001F028900012001F1E0219040C1F8000195
:10131000704700000E4BF0B41B680D46C3F3022368
:10132000C3F10706042E00D90426191D072901D28E
:10133000002300E0DB1E012404FA06F19C40491E54
:101340002940641E994014402143F0BC03F08EB93B
:101350000CED00E0064900F0070210B54FF6FF045F
:101360000868044B204040EA02201843086010BD82
:101370000CED00E00000FA05134970B50A68D2438D
:10138000520705D5096801F00701814213D118E021
:101390000A6822F0070202430A60FFF743FF0A4D82
:1013A0004FF47A760446083D07E000BFFFF73AFFA6
:1013B000001BB04201D9012070BD2868C0438004E1
:1013C000F4D4002070BD00000C48025810B500F0A5
:1013D000EBFE05490968054AC1F30211515C01F0B1
:1013E0001F01C84010BD000020440258D85000081A
:1013F000494930B5484C0B1D0A68143409681D680A
:10140000246802F00303C5F30012C1F30531C4F3ED
:10141000CC04002914FB02F200EE102AF8EE400A78
:1014200075D03F4A9FED3D1AB7EE000A6BB1DFED74
:101430003D1A012B01D0022B64D002EE101A116864
:10144000F8EE422A81EEA22A21E0334C283C2368A0
:101450009B0612D5344B246801EE901A1168C4F330
:10146000C104F8EE612AE34001EE903AC1F30801AD
:10147000F8EE611A81EEA22A0BE001EE901ADFED80
:101480002B2A00BFF8EE611A116882EEA12AC1F37F
:10149000080101EE901A1168F8EE611A40EE811A07
:1014A00071EE800A62EE200AC1F3462101EE101AA5
:1014B000B8EE411A31EE001AC0EE811ABCEEE11A04
:1014C00080ED001A1168C1F3064101EE101AB8EE62
:1014D000411A31EE001AC0EE811ABCEEE11A80ED1D
:1014E000011A1168C1F3066101EE101AB8EE411A33
:1014F00031EE000A80EE801ABCEEC10A80ED020ACD
:1015000030BD04E001EE901ADFED092ABAE70021B0
:10151000016041608160F3E728440258000000390F
:10152000384402580024744A0090D0030024744CBC
:101530000024F44A494930B5484C0B1D0A681C3454
:1015400009681D68246802F00303C5F30022C1F393
:101550000551C4F3CC04002914FB02F200EE102A5A
:10156000F8EE400A75D03F4A9FED3D1AB7EE000AEB
:101570006BB1DFED3D1A012B01D0022B64D002EEDE
:10158000101A1168F8EE422A81EEA22A21E0334CAB
:10159000283C23689B0612D5344B246801EE901A30
:1015A0001168C4F3C104F8EE612AE34001EE903AF9
:1015B000C1F30801F8EE611A81EEA22A0BE001EEF8
:1015C000901ADFED2B2A00BFF8EE611A116882EE47
:1015D000A12AC1F3080101EE901A1168F8EE611A10
:1015E00040EE811A71EE800A62EE200AC1F34621B4
:1015F00001EE101AB8EE411A31EE001AC0EE811A4F
:10160000BCEEE11A80ED001A1168C1F3064101EE4B
:10161000101AB8EE411A31EE001AC0EE811ABCEE73
:10162000E11A80ED011A1168C1F3066101EE101A8A
:10163000B8EE411A31EE000A80EE801ABCEEC10A03
:1016400080ED020A30BD04E001EE901ADFED092AB8
:10165000BAE70021016041608160F3E72844025845
:1016600000000039404402580024744A0090D0031E
:101670000024744C0024F44A2DE9FC5F044650F821
:10168000241B002500902E460801FE4FDFF8F8834A
:101690001DD5606E50B1B0F5801F0CD0B0F5001FA5
:1016A0000ED0B0F5401F1DD001250FE0386840F482
:1016B0000030386016E00221201D01F0BBFF03E07E
:1016C0000098022102F046F805000BD02E46208833
:1016D000C00523D5606D05281ED2DFE800F00C118F
:1016E000161B1B00626ED8F8001021F44011114344
:1016F000C8F80010EBE7386840F40030386009E0C3
:101700000021201D01F096FF03E00098002102F067
:1017100021F805466DB100E001252E4620888005A0
:1017200028D5A06D80281ED00CDC90B140280ED1A9
:1017300014E0626DD8F8001021F007011143C8F8D9
:101740000010EBE7C02813D0B0F5807F10D0012542
:101750000FE0386840F40030386009E00021201DB7
:1017600001F068FF03E00098002101F0F3FF054657
:1017700095B12E462088DFF81093400509F108093D
:101780002CD5D4F8A400B0F5800F20D00DDCA0B18A
:10179000B0F5001F0FD115E0A26DD8F8001021F4AC
:1017A000E0711143C8F80010E4E7B0F5C00F13D0A2
:1017B000B0F5000F10D001250FE0386840F400307C
:1017C000386009E00021201D01F034FF03E000989B
:1017D000002101F0BFFF054675B12E4620880005A7
:1017E0002DD5D4F8A800B0F1007F21D00EDCA8B12F
:1017F000B0F1807F10D116E0D4F8A420D9F8001001
:1018000021F460011143C9F80010E7E7B0F1407F0F
:1018100013D0B0F1806F10D001250FE0386840F48C
:101820000030386009E00021201D01F003FF03E0D3
:101830000098002101F08EFF05466DB12E4620680C
:1018400080011FD5A06CD8B110280FD0202812D04D
:10185000302815D0012514E0D4F8A820D9F80010BC
:1018600021F0E0611143C9F80010E8E7386840F45E
:101870000030386004E00221201D01F0DBFE054647
:101880006DB12E462088C0042BD5E06DB0F5005F09
:1018900020D00DDCA0B1B0F5805F0FD115E07A4803
:1018A000A26C001F016821F0300111430160E9E7DB
:1018B000B0F5405F13D0B0F5804F10D001250FE098
:1018C000386840F40030386009E00021201D01F044
:1018D000B1FE03E00098002101F03CFF054685B110
:1018E0002E462088800429D5206EB0F5403F23D0B5
:1018F00010DC08B3B0F5803F14D0B0F5003F0FD135
:1019000015E0E26DD8F8001021F4E0411143C8F869
:101910000010E6E7B0F5802F0ED0B0F5A02F0BD069
:1019200001250AE00121201D01F084FE03E000985A
:10193000012101F00FFF05468DB12E46208840049D
:101940002AD5D4F8AC00B0F1405F23D010DC08B346
:10195000B0F1805F14D0B0F1005F0FD115E0226EBE
:10196000D8F8001021F4E0211143C8F80010E5E791
:10197000B0F1804F0ED0B0F1A04F0BD001250AE09E
:101980000121201D01F056FE03E00098012101F025
:10199000E1FE05466DB12E46208800041FD5E06E9D
:1019A000D8B1B0F1805F0ED0B0F1005F10D001254A
:1019B00014E0D4F8AC20D9F8001021F0E041114334
:1019C000C9F80010E8E7386840F40030386004E0F7
:1019D0000121201D01F02EFE05466DB12E46206826
:1019E000C0011ED5606CD0B101280ED0022811D0E4
:1019F000032814D0012513E0E26ED8F8001021F07E
:101A000040511143C8F80010E9E7386840F400304D
:101A1000386004E00221201D01F00CFE054685B16E
:101A20002E462068DFF85CB04002ABF11C0B57D5A6
:101A30001648016841F480710160FFF7F3FB8246AC
:101A40000EE01148626C001F016821F00301114390
:101A50000160E6E7FFF7E6FBA0EB0A0064283DD84B
:101A60000A480068C005F5D57DBBDFF81CA0B4F8B6
:101A7000B0200AF1200ADAF8001002F4407001F4F4
:101A8000407105E02C440258504402580048025866
:101A9000814211D0DAF80010DAF8002021F4407108
:101AA00042F48032CAF80020DAF8002022F48032B2
:101AB000CAF80020CAF80010D4F8B000B0F5807F52
:101AC00021D1FFF7AFFB019019E008E0FFF7AAFB77
:101AD0000199411A41F28830814210D903252E46DE
:101AE0002078DFF844A4C0073DD0A06F182838D074
:101AF00026DC80B3082829D0102825D12CE0DAF87C
:101B000000008007E2D5D4F8B010C1F3012003280B
:101B100058460DD0016821F47C510160B4F8B02022
:101B2000DAF80010C2F30B021143CAF80010D7E72D
:101B3000FE4A036802EA111223F47C511143ECE7D8
:101B400020280ED028280CD001250BE00121201DD3
:101B500001F070FD04E004E00098012101F0FAFDBD
:101B600005465DB12E46207880071ED5606F062899
:101B700019D2DFE800F0160C11161616A26FDAF86B
:101B8000001021F038011143CAF80010EBE70121E1
:101B9000201D01F04FFD03E00098012101F0DAFD66
:101BA000054675B100E001252E46207840071FD577
:101BB000D4F89000062819D2DFE800F0160C1116B0
:101BC0001616626FDAF8001021F007011143CAF807
:101BD0000010EAE70121201D01F02CFD03E0009830
:101BE000012101F0B7FD05469DB100E001252E461B
:101BF000207880062BD5D4F88C00B0F1405F24D03B
:101C000011DC10B3B0F1805F15D0B0F1005F10D1DE
:101C100016E0D4F89020D9F8001021F00701114304
:101C2000C9F80010E4E7B0F1804F0ED0B0F1A04F3A
:101C30000BD001250AE00021201D01F0FBFC03E090
:101C40000098022101F086FD05468DB12E462078D0
:101C500040062BD5D4F89800B0F5406F24D011DCA5
:101C600010B3B0F5806F15D0B0F5006F10D116E04D
:101C7000D4F88C20DAF8001021F0E0411143CAF8C2
:101C80000010E4E7B0F5805F0ED0B0F5A05F0BD098
:101C900001250AE00021201D01F0CCFC03E00098A2
:101CA000022101F057FD05468DB12E462078000631
:101CB0002BD5D4F89C00B0F5C04F24D011DC10B364
:101CC000B0F5005F15D0B0F5804F10D116E0D4F814
:101CD0009820D9F8001021F4E0511143C9F8001000
:101CE000E4E7B0F5004F0ED0B0F5204F0BD0012542
:101CF0000AE00021201D01F09DFC03E00098022174
:101D000001F028FD05464DB12E46207800071ED56E
:101D1000D4F88000B0F5805F0AD00FE0D4F89C20A2
:101D2000D9F8001021F460411143C9F80010ECE724
:101D30000098022101F00EFD00B10126D4F88020A8
:101D4000DAF8001021F440511143CAF8001020784D
:101D5000C00613D5D4F89400B0F5807F05D1009863
:101D6000022101F0F7FC00B10126D4F89420D9F843
:101D7000001021F440711143C9F8001020680003DD
:101D800016D5D4F8A00038B1B0F5803F09D0B0F531
:101D9000003F0BD001250AE00021201D01F04AFC84
:101DA00003E00098022101F0D5FC054685B12E46DE
:101DB0002068400322D5D4F88400B0F5801F11D0EC
:101DC000B0F5001F13D0B0F5401F15D0012514E069
:101DD000D4F8A020D9F8001021F440311143C9F8FB
:101DE0000010E5E7386840F40030386004E00098FF
:101DF000012101F0AFFC054655B12E462068C00315
:101E00001CD5E06C70B1B0F5803F10D0012514E016
:101E1000D4F88420DAF8001021F440111143CAF8F4
:101E20000010EBE7386840F40030386004E002212D
:101E3000201D01F0FFFB0546CDB12E462068800035
:101E400005D50098022101F085FC00B1012620682B
:101E500080031BD5E06FB8B1B0F5807F10D0B0F52E
:101E6000007F11D0B0F5407F0ED001250DE02E4847
:101E7000E26C0838016821F4803111430160DDE72C
:101E8000386840F400303860F5B32E462068C00250
:101E900007D5226FD8F8001021F000411143C8F88F
:101EA00000102068C00008D5D4F8B420DBF800107A
:101EB00021F480411143CBF800102068800207D53F
:101EC000A26ED8F8001021F080711143C8F80010FC
:101ED000206840000CD5DBF8001021F40041CBF85D
:101EE0000010DBF80010D4F8B8201143CBF8001034
:101EF0002068002807DA0C48226D0838016821F0B4
:101F000040511143016000E014E02068000208D550
:101F1000D4F88820DAF8001021F440011143CAF8FF
:101F2000001086B1012003E054440258CFFFFF00A7
:101F3000BDE8FC9FE26FDAF8001021F44071114314
:101F4000CAF80010A2E70020EDE700002DE9F05FDD
:101F500004000F467ED0DFF83882D8F8000000F089
:101F60000F00B8420CD2D8F8001021F00F0139430D
:101F7000C8F80010D8F8000000F00F00B84269D18E
:101F80002078844D40070AD52069296801F0700146
:101F9000884204D9296821F0700101432960207822
:101FA0007C4E361D00070AD56069316801F070016A
:101FB000884204D9316821F07001014331602078F2
:101FC000C0060AD5A069316801F4E061884204D9ED
:101FD000316821F4E061014331602078DFF8B4B169
:101FE00080060BF1080B0CD5E1695846DBF80020A0
:101FF00002F07002914204D9026822F070020A4392
:102000000260207880070AD5E068296801F00F0196
:10201000884204D9296821F00F0101432960207802
:10202000C0073ED05B49A2682868183920F4706068
:10203000104328606068022818D0032819D0096866
:10204000012819D0490700294ADADFF848A1AAF186
:10205000080A00E044E0DAF8002022F00702024318
:10206000CAF80020FFF7DEF8814612E0096889030C
:10207000E9E709688901E6E7C905E4E7FFF7D2F86F
:10208000A0EB090141F28830814202D90320BDE86A
:10209000F09F6168DAF8000000F03800B0EBC10F83
:1020A000ECD1207880070AD5E068296801F00F019B
:1020B000884204D2296821F00F0101432960D8F831
:1020C0000010404601F00F01B9420BD9016821F020
:1020D0000F0139430160006800F00F00B84201D0E1
:1020E0000120D4E7207840070AD52069296801F04B
:1020F0007001884204D2296821F0700101432960EF
:10210000207800070AD56069316801F070018842C3
:1021100004D2316821F07001014331602078C0069B
:102120000AD5A069316801F4E061884204D23168BF
:1021300021F4E06101433160207880060CD5E1692B
:102140005846DBF8002002F07002914204D2026887
:1021500022F070020A43026000F06CF80E492A680F
:102160002B68C2F3032203F00F038A5CC95C02F000
:102170001F0201F01F01D040084A20FA01F111604E
:102180000749086007480068BDE8F05FFFF786B8B8
:102190000020005218440258D85000081C000024A7
:1021A000180000241000002430B500F043F80B4A5A
:1021B0000B490C4B15681468C5F3032204F00F0497
:1021C0008A5C095D02F01F0201F01F01D040064A3F
:1021D00020FA01F119601060084630BD1844025819
:1021E000D85000081C0000241800002400B5FFF798
:1021F000DBFF05490968054AC1F30211515C01F092
:102200001F01C84000BD00001C440258D8500008FF
:1022100000B5FFF7C9FF05490968054AC1F3022166
:10222000515C01F01F01C84000BD00001C44025871
:10223000D8500008454970B545480968434B103BE4
:1022400011F0380208D00111082A03D0102A0BD04F
:10225000182A0BD0084670BD19688906FBD5196885
:10226000C1F3C101C84070BD3A4870BD3749374D10
:1022700018310C1D24350A68096826682D6802F09B
:10228000030406F00102C1F30511C5F3CC0515FBEB
:1022900002F200EE102AB8EE400AE9B32F4ADFED51
:1022A0002E0AB7EE001A6CB1DFED2D1A012C01D009
:1022B000022C43D002EE101A1068F8EE422A81EE8A
:1022C000A22A1EE01C68A40611D51B6801EE901A14
:1022D0001168C3F3C103F8EE612AD84001EE900AF9
:1022E000C1F30800F8EE611A81EEA22A0BE001EEBC
:1022F000901ADFED1C2A00BFF8EE611A106882EE1A
:10230000A12AC0F3080001EE900AF8EE611A40EE2F
:10231000201A31EE810A00E015E022EE000A106872
:10232000C0F34620401C00EE900AF8EE600A80EEF2
:10233000201ABCEEC10A10EE100A70BD01EE901A10
:10234000DFED092AD8E7002070BD000010440258D4
:102350000090D00300127A00000000393044025887
:102360000024744A0024744C0024F44A2DE9F05FE0
:1023700004007CD0FF4F2078FE4D1837DFF8F4932F
:10238000103DC00748D0D9F80000396800F0380087
:10239000102815D0182803D101F0030002280FD00F
:1023A0006068B0F5803F12D010B1B0F5A02F18D002
:1023B000286820F480302860286820F4802009E014
:1023C0002868800328D560680028D2D024E02868D7
:1023D00040F480302860606888B1FEF723FF06462D
:1023E00009E0286840F480202860F0E7FEF71AFF33
:1023F000801B64287ED828688003F7D50CE0FEF7A0
:1024000011FF064605E000BFFEF70CFF801B6428A5
:10241000F0D828688003F7D4207841F20308D54E1D
:102420000C3E800753D5D9F80000396810F0380009
:102430000ED0182801D188070AD0E068A8B329680F
:1024400021F0190101432960FEF7ECFE82461BE0F2
:102450002868400702D5E06800288AD0FEF7DCFE35
:1024600040451BD82069402812D0316800E0CCE0FC
:1024700021F47C3141EA0030306028E0FEF7D2FEE2
:10248000A0EB0A000228B5D828684007F6D5E5E792
:10249000306820F47C3040F40030EDE7207C316877
:1024A00021F0FE4141EA0060E6E7FFE7286820F0FE
:1024B00001002860FEF7B6FE824605E0FEF7B2FE98
:1024C000A0EB0A00022895D828684007F6D42078A7
:1024D000C0065FD5D9F80000DFF898B2396800F07F
:1024E0003800ABF1040B082812D0182805D101F0F0
:1024F000030000E0EAE001280AD0E069002828682B
:1025000038D040F080002860FEF78CFE824623E041
:102510002868C00523D5E069802876D11FE0206AAD
:10252000202821D0316821F0F84141EA80603060F4
:1025300030E000BF94F82010DBF8002022F07C523D
:1025400042EA0161CBF8001024E000BFFEF76AFE0A
:10255000A0EB0A00022896D82868C005F6D5FEF739
:102560005BFE4045E6D8DAE7306820F0F84040F0FE
:102570008040DCE720F080002860FEF753FE06462E
:1025800005E000BFFEF74EFE801B02289BD828689E
:10259000C005F7D42078000729D5764861696430F2
:1025A00000298046016811D041F001010160FEF769
:1025B00039FE064605E000BFFEF734FE801B022808
:1025C000C9D8D8F800008007F6D510E021F0010145
:1025D0000160FEF727FE064605E000BFFEF722FE7B
:1025E000801B022872D8D8F800008007F6D4207823
:1025F000800623D5A0690028286810D040F48050B8
:102600002860FEF70FFE064605E02CE1FEF70AFE05
:10261000801B02285AD828688004F7D50EE020F4E1
:1026200080502860FEF7FEFD064604E0FEF7FAFD46
:10263000801B02284AD828688004F7D420784007F5
:102640004FD5DFF83481D8F8001041F48071C8F814
:102650000010FEF7E7FD064605E000BFFEF7E2FDCD
:10266000801B642832D8D8F80000C005F6D5414E4A
:10267000A068603601280AD008B1052813D0306858
:1026800020F001003060306820F0040002E0306883
:1026900040F001003060A06841F2883A90B1FEF746
:1026A000C1FD80460AE0306840F004003060EEE78B
:1026B000FEF7B8FDA0EB0801514507D83068800748
:1026C000F6D50EE0FEF7AEFD804607E084E000BFE1
:1026D000FEF7A8FDA0EB080151457DD830688007C2
:1026E000F6D4606AF0B3DFF88C80D9F8001008F1F6
:1026F0002008C1F3C20103296FD00228286820F006
:102700008070286003D0FEF78DFD044680E0FEF760
:1027100089FD064605E000BFFEF784FD801B022808
:1027200073D828688001F7D4E26A40F2F331386840
:1027300054F8283F884340EA021018433860217B50
:102740004FF4FE0C22894FF0FE47208A4902267D75
:10275000521E401EA1F5007189B20CEA0040C2F37E
:10276000080200E081E01143761E0143014807EAB8
:10277000066203E010440258004802581C3011431E
:102780003B4AC8F80010016821F00101016011689E
:102790004FF6F876236AB14341EAC301116001683C
:1027A000A26921F00C01114301600168E26921F086
:1027B000020111430160016841F480310160016848
:1027C00041F400310160016841F480210160016839
:1027D00041F00101016001E017E01DE0286840F0D0
:1027E00080702860FEF71EFD044604E0FEF71AFD27
:1027F000001B022809D828688001F7D535E000BF02
:10280000FEF710FD001B022802D90320BDE8F09F4F
:1028100028688001F4D428E039680128D8F800003D
:1028200021D0A26A01F0030393421CD1E26AC1F3F2
:1028300005118A4217D1216BC0F30802491E8A4252
:1028400011D1616BC0F34622491E91420BD1A16B9D
:10285000C0F30642491E914205D1E16BC0F3066008
:10286000491E814201D00120D0E70020CEE70000C0
:1028700034440258401EB0F1807F10B501D30120CE
:1028800010BD4FF0E02460610F21601701F0EEFEF3
:102890000020A0610721216110BD7047704770477B
:1028A000F0B590F83C20012A38D01D4E012480F864
:1028B0003C40022280F83D2002681A4D5368B24223
:1028C000D2F808C001D0AA4203D14F6823F47003A4
:1028D0003B430F6823F070031F4357600268B24206
:1028E00010D0B2F1804F0DD00F4B9A420AD00F4B4F
:1028F0009A4207D00E4B9A4204D0AA4202D00D4B06
:102900009A4204D189682CF0800319439160002118
:1029100080F83D4080F83C100846F0BD0220F0BD34
:102920000000014000040140000400400008004095
:10293000000C00400018004010B5040003D094F8CB
:102940003D0010B107E0012010BD002084F83C00DC
:10295000204600F023F8022084F83D002068211D65
:1029600001F062F8012084F8480084F83E0084F801
:102970003F0084F8400084F8410084F8420084F865
:10298000430084F8440084F8450084F8460084F845
:10299000470084F83D00002010BD000008B5006825
:1029A000154988420FD11548016841F001010160C5
:1029B00000680022114600F0010000901920FEF787
:1029C000A9FC192012E0B0F1804F13D10B48083850
:1029D000016841F00101016000680022114600F029
:1029E000010000901C20FEF795FC1C20BDE808406B
:1029F000FEF782BC08BD000000000140F044025810
:102A000090F83D10012901D001207047154A02219C
:102A100080F83D100168CB6843F00103CB6000688B
:102A2000904211D0B0F1804F0ED00F4988420BD0A8
:102A30000E49884208D00E49884205D00D49884287
:102A400002D00D49884207D181680C4A11400629FD
:102A500006D0B1F5803F03D0016841F0010101606B
:102A600000207047000001400004004000080040C2
:102A7000000C004000040140001800400700010065
:102A8000016841F21113CA6822F00102CA600168AC
:102A90000A6A1A4207D10A6A9B101A4203D10A68CD
:102AA00022F001020A60012180F83D1000207047E9
:102AB00070B5044690F83C00012814D0394B01252C
:102AC00084F83C50022084F83D0022689068184049
:102AD00020F47F4090600868702828D010DC10F047
:102AE0000F0F03D04BE04FF0020070BD4FEA2012F1
:102AF000072A44D2DFE802F05151515149323A00DD
:102B0000B0F1101F49D009DCB0F5805F37D0B0F5C7
:102B1000005F17D0B0F5801F31D13EE0A0F58011E5
:102B200020393AD0102938D0202928D135E04A68F8
:102B30002068D1E9021300F0D9FF2068816841F0D4
:102B4000770109E04A682068D1E9021300F0CEFF5E
:102B50002068816841F48041816010E0CA6849685A
:102B6000206800F0D7FF2068502106E0CA68496855
:102B7000206800F0E0FF2068602100F0C1FF002025
:102B800084F83D5084F83C0070BDCA6849682068EC
:102B900000F0C0FF20684021EFE7226801461046A0
:102BA000EBE7000088FFCEFF704770B50446006871
:102BB00000250169C943890715D4C168C94389073C
:102BC00011D4EA1E02610121217720688069800703
:102BD000204602D0FFF7E8FF04E000F0A7F8204607
:102BE00000F0A5F8257720680169C943490717D483
:102BF000C168C943490713D402216FF0040202617E
:102C000021772068806910F4407F204602D0FFF7CA
:102C1000CBFF04E000F08AF8204600F088F8257722
:102C200020680169C943090716D4C168C943090767
:102C300012D404216FF00802026121772068C06974
:102C40008007204602D0FFF7AFFF04E000F06EF8E7
:102C5000204600F06CF8257720680169C943C90651
:102C600017D4C168C943C90613D408216FF01002F4
:102C7000026121772068C06910F4407F204602D0AD
:102C8000FFF792FF04E000F051F8204600F04FF803
:102C9000257720680169C943C90708D1C168C943BC
:102CA000C90704D1891E0161204600F041F820685F
:102CB0000169C943090609D4C168C943090605D495
:102CC0006FF0800101612046FFF7E8FD206801698F
:102CD000C943C90509D4C168C943090605D46FF4BD
:102CE000807101612046FFF7D8FD20680169C94362
:102CF000490609D4C168C943490605D46FF04001AB
:102D00000161204600F062F820680169C943890624
:102D10000BD4C168C943890607D46FF02001016153
:102D20002046BDE87040FFF7BABD70BD70477047E0
:102D300070B52DED068B194988422CD1FDF728FE80
:102D4000174C184D2268511C962925F81200216055
:102D500021D11248FFF794FE9FED138B9FED149B3A
:102D60009FED15AB002020600146B0EE4A0B35F810
:102D7000110001EE100A12A0B8EE411B21EE081B53
:102D800011EE090B53EC102B01F060FC2068401C85
:102D900020609628E8D3BDEC068B70BD904E0024D1
:102DA00000000024240000247B14AE47E17A344064
:102DB000000000000000F03E7B14AE47E17A2440A2
:102DC000256409252E32660A00000000704730B5E0
:102DD00090F88010012918D0012280F88020242149
:102DE000C0F884100022202450F8641B0B680D6882
:102DF00023F0005325F001050D60026050F8641CBB
:102E00000B6004620277104630BD022030BD70476F
:102E1000704770B5044690F8800001281DD001224B
:102E200084F880202420C4F88400206805680268A3
:102E300022F0010202602068826822F060620A4388
:102E40008260204600F08AFE226820210020156062
:102E5000C4F8841084F8800070BD022070BD70B585
:102E6000044690F8800001281DD0012284F88020BB
:102E70002420C4F8840020680568026822F001025A
:102E800002602068826822F060420A438260204625
:102E900000F064FE2268202100201560C4F8841030
:102EA00084F8800070BD022070BD70477047704785
:102EB0002DE9F04103680446002540F60F06D86965
:102EC00019689A68304209D186067DD501F020063E
:102ED00002F080573E4377D0216F39E1AF4EB04FBB
:102EE00016400F4037436FD0C70709D0CF0507D52D
:102EF00001271F62D4F88C3043F00103C4F88C30F2
:102F000083070AD5D30708D0276802233B62D4F889
:102F10008C3043F00403C4F88C3043070AD5D30740
:102F200008D0276804233B62D4F88C3043F00203B6
:102F3000C4F88C3003070CD501F02003334308D0CC
:102F4000266808233362D4F88C3043F00803C4F8B1
:102F50008C3003050BD54B0109D526684FF400636F
:102F60003362D4F88C3043F02003C4F88C30D4F8AA
:102F70008C30002B34D0800609D501F0200002F0FF
:102F80008051084303D0216F09B12046884721684A
:102F9000D4F88C008968490602D410F0280F21D09B
:102FA000204600F09BFE20688168490615D581689F
:102FB00021F040018160E06F78B17A490165E06FEE
:102FC000FDF7B0FE002800E012E009D0E06F016DCF
:102FD00000E02046BDE8F04108472046FFF767FFC4
:102FE000BDE8F0812046FFF762FFC4F88C50F7E798
:102FF000E76E2026012F71D1C7066FD5CF066DD59C
:103000001020186222689068400669D5E16F664B0F
:103010000868984234D0644B1833984230D0624BE1
:10302000303398422CD0604B4833984228D05E4BC6
:103030006033984224D05C4B7833984220D05A4B6E
:10304000903398421CD0584BA833984218D0574B15
:10305000984215D0554B1833984211D0534B30330A
:1030600098420DD0514B4833984209D04F4B6033B2
:10307000984205D04D4B7833984201D04B4B90335A
:1030800040680004000CABD0B4F85C308342A7D990
:10309000A4F85E00C869B0F5807F18D0106820F4ED
:1030A000807010602068816821F0010181602068D3
:1030B000816821F040018160C4F88860E56620687D
:1030C000016821F010010160E06FFDF779FCB4F8B0
:1030D0005C00B4F85E10401A81B220E023E0FFE704
:1030E000B4F85C00B4F85E10B4F85E30401A81B2F7
:1030F000002BC8D00029C6D010682D4B20F490704A
:1031000010602068826802EA03028260C4F8886066
:10311000E56625672068026822F0100202602046FA
:10312000FFF775FE5CE7C70209D5570207D54FF4D4
:10313000801018622046BDE8F041FFF7B7BE0706D1
:103140000AD501F0800702F40002174304D0616F32
:1031500000297FF43EAF43E742060CD54A060AD564
:103160001968204621F040011960C4F88460656741
:1031700000F026F934E7020206D54A0004D52046BD
:10318000BDE8F041FFF791BEC001CBD50029C9DAF7
:103190002046BDE8F041FFF73BBE000001000010F3
:1031A00020010004C93C0008100002401004024045
:1031B000FEFFFFEF10B5040003D0D4F8840010B177
:1031C00007E0012010BD002084F88000204600F0B8
:1031D00027F82420C4F884002068016821F0010148
:1031E0000160204600F05EFF0128EBD0A06A10B11C
:1031F000204600F0D5FC2068416821F490414160F0
:103200002068816821F02A0181602068016841F00E
:10321000010101602046BDE8104000F025BD00001E
:1032200010B5B6B0044614212FA8FDF7ACF8BC21A8
:103230006846FDF7A8F81C492068884231D100246F
:103240001E94012000906846FEF716FA08B1FDF7BB
:103250009DFB1648016841F010010160006800F014
:103260001000349011481038016841F001010160EC
:1032700000682FAB022100F0010034904FF4C060D1
:10328000072283E813000A482FA9CDE93242FDF74F
:103290009DFE002225201146FEF73CF82520FEF772
:1032A0002BF836B010BD000000100140F044025869
:1032B0000000025870B4D0F88830202B1BD1B9B16F
:1032C000B2B190F88030012B15D0036801260B4D68
:1032D000002480F88060C466AB4206D05C6824029B
:1032E00003D51C6844F080641C6070BC01F0B0B869
:1032F000012070BC70470220FBE70000000C005862
:1033000070472DE9F8430446D0F884001F4616465E
:103310000D46202852D1DDB1D6B194F880000128A5
:103320004CD0012084F8800021224FF00008C4F81E
:103330008C80C4F884201834FDF774FF814654F85B
:10334000100CA687E687183CB0F5805F03D004E038
:103350000120BDE8F883206920B12E46002584F8BD
:10336000808010E00026FAE78021204601F0DCF89A
:10337000B8B9C6B116F8010B21688862B4F85600D6
:10338000401EA4F85600B4F856004B464FF0000219
:1033900000970028E8D14FF04001204601F0C4F822
:1033A00038B10320D5E735F8020B2168C0F30800D7
:1033B000E3E72020C4F884000020CAE70220C8E721
:1033C0007047FEE7FDF7B4BA2DE9F04387B014214A
:1033D0006846FCF7D8FF3A48016841F08001016077
:1033E000016801F080010591016841F0040101606C
:1033F000016801F004010591016841F001010160DB
:10340000016801F001010591016841F002010160CC
:10341000016801F002010591016841F010010160AD
:1034200000680022274E042100F01000059030466D
:10343000FDF7ECFE244F002220213846FDF7E6FE82
:10344000DFF88880002223214046FDF7DFFEDFF809
:103450008090002280214846FDF7D8FE002469466E
:10346000012504200090CDE9015430460394FDF776
:10347000ADFD20200090CDE9015469463846039403
:10348000FDF7A4FD40206946CDE9000438460294CA
:10349000FDF79CFD23200090CDE90154694640468C
:1034A0000394FDF793FD80200090CDE90154694617
:1034B00048460394FDF78AFD07B0BDE8F08300009D
:1034C000E044025800080258000002580004025864
:1034D0000010025830B587B019480024174945F646
:1034E000BF5242F20F73009480250194029403941A
:1034F00004940594069480E81600C0E90334C0E9FA
:103500000545FFF719FA08B1FDF740FA4FF480506E
:1035100000900B486946FFF7CBFA08B1FDF736FA81
:10352000074804A9049405940694FFF7B9F9002804
:1035300001D0FDF72BFA07B030BD000000000140BC
:10354000444E002430B587B016480024EF22009482
:103550004FF0804101940923029480250394049440
:103560000594069480E816008561C0E90334FFF7EE
:10357000E3F908B1FDF70AFA4FF4805000900948CA
:103580006946FFF795FA08B1FDF700FA054804A966
:1035900004940694FFF784F9002801D0FDF7F6F9AA
:1035A00007B030BD904E002470B51C4C00251C485F
:1035B0004FF4E1310C2284E82300E5602046C4E9A1
:1035C0000452A561E56125626562A562FFF7F2FD1F
:1035D00008B1FDF7DBF911480021FFF740FC08B105
:1035E000FDF7D4F90D480021FFF713FC08B1FDF7F2
:1035F000CDF90A48FFF7EBFB08B1FDF7C7F9094819
:1036000009490160858041F288328818FFF752FE2F
:103610002068016841F01001016070BD64620024FF
:103620000010014004000024DC4E0024FEE7FEE709
:10363000704700002DE9F047454D044689464FF09C
:10364000000A2868C04380070AD0414E283E3068EF
:1036500020F080603060FDF7E5FD0746B04608E0E9
:103660000120BDE8F08700BFFDF7DCFDC01B02288C
:1036700067D8D8F800000001F6D4206829684FF414
:10368000FE0721F47C313E0241EA00302860207AB6
:10369000A389B4F804C040022D4D2D495B1E227C45
:1036A000ACF1010C1035091DA0F5007080B2521E5E
:1036B000CCF3080C07EA034340EA0C00184306EA7F
:1036C0000262104328600868626920F0C00010435D
:1036D00008600A68A06922F0200202430A60281DDF
:1036E0000A6822F010020A6002684FF6F873E46973
:1036F0009A4342EAC40202600868B9F1000F40F040
:1037000010020A6011D00868B9F1010F11D040F41D
:1037100000100860D8F80000444640F08060C8F807
:103720000000FDF77FFD05460DE0086840F400202D
:10373000EFE740F48010ECE7FDF774FD401B022832
:1037400001D903208DE720680001F5D5504688E7B0
:10375000284402582DE9F047454D044689464FF06C
:10376000000A2868C04380070AD0414E283E3068CE
:1037700020F080503060FDF755FD0746B04608E068
:103780000120BDE8F08700BFFDF74CFDC01B0228FB
:1037900067D8D8F800008000F6D4208829684FF454
:1037A000FE0721F07C713E0241EA00502860207A39
:1037B000A389B4F804C040022D4D2D495B1E227C24
:1037C000ACF1010C1835091DA0F5007080B2521E35
:1037D000CCF3080C07EA034340EA0C00184306EA5E
:1037E0000262104328600868626920F44060104358
:1037F00008600A68A06922F4007202430A60281D6A
:103800000A6822F480720A6002684FF6F873E4696D
:103810009A4342EAC40202600868B9F1000F40F41A
:1038200080720A6011D00868B9F1010F11D040F020
:1038300080700860D8F80000444640F08050C8F816
:103840000000FDF7EFFC05460DE0086840F480003D
:10385000EFE740F40000ECE7FDF7E4FC401B022832
:1038600001D903208DE720688000F5D5504688E710
:1038700028440258704701460120FDF771B8FDF752
:103880006FB8FDF7D5BC000070B59CB04C21684600
:10389000FCF779FD202113A8FCF775FD0220FDF748
:1038A0006BFD204800242049026842F44042026037
:1038B00002680A6842F001020A60096801F0010129
:1038C0001B9101688904FCD5022009900121C203E3
:1038D00008257823CDE900120AAA0C2682E80B00FD
:1038E000CDE90D05CDE910640F9068461294FEF7FE
:1038F0003DFD08B172B6FEE740201A903F2103015A
:10390000CDE916500322CDE9180313AB13A883E8C1
:1039100016000421FEF71AFB002801D072B6FEE75C
:103920001CB070BD184802582C0400582E48F0B541
:103930002E4A016841F470010160106800F00F0028
:10394000072804D2106820F00F00C01D106028491D
:103950000020274C10340B68264D43F001030B6008
:1039600020600B682B400B60136803F00F03072BDC
:1039700004D9136823F00F03DB1D13601C4C1E4A8F
:1039800018341E4B261D371D2060194C1C4D283441
:103990003060261D3860371D23603B1D35601C1DBF
:1039A0003A60251D2E1D1860331D2260286032608C
:1039B00018600A680E4B134C22F4802260330A60B0
:1039C000186020686FF30F00B0F1005F03D20E495A
:1039D0000120C1F8080143F2D2000C49024B4A030E
:1039E000803B08601A60F0BD88ED00E000200052C6
:1039F000004402587FEDF6EA800201010002020253
:103A00000000FF010010005C0080005100400052E7
:103A10000148FFF7CAB80000444E00240148FFF7F0
:103A2000C4B80000904E00242DE9F047274B4FF01A
:103A3000804A274D02689842264E274F274C09D0CE
:103A4000504507D0A84205D0B04203D0B84201D0BB
:103A5000A04205D1D1F804C022F070024CEA020263
:103A6000DFF87CC0DFF87C809842DFF87C900FD0D4
:103A700050450DD0A8420BD0B04209D0B84207D073
:103A8000A04205D0604503D0404501D0484503D150
:103A9000CD6822F440722A434D6922F080022A4305
:103AA000026098428A68C2620A68826207D0A042B5
:103AB00005D0604503D0404501D0484501D1096992
:103AC000016301214161BDE8F08700000000014071
:103AD0000004004000080040000C004000040140C9
:103AE00000400140004401400048014042EA0322F6
:103AF00083680A4323F47F410A43826070470000D1
:103B0000034B82681A400A4342F007018160704704
:103B10008FFFCFFF10B5036A046A23F00A0324F075
:103B20000104046284690B4324F0F00141EA0211AC
:103B30008161036210BD10B5036A23F010030362B4
:103B40008369046A23F4704324F0A00443EA023238
:103B5000826144EA0111016210BD000030B5416E7E
:103B6000B9B101680D4B03F108048A688968C2F392
:103B70004262490F5D5C615C2D01B5FBF1F1A0F87B
:103B80006A10995CA25C0901B1FBF2F1A0F868101F
:103B900030BD0121A0F86A10F8E70000C850000805
:103BA00090F82810C90706D00168C36A4A6822F451
:103BB00000321A434A6090F82810890706D5016838
:103BC000036B4A6822F480321A434A6090F8281046
:103BD000490706D50168436B4A6822F480221A43DC
:103BE0004A6090F82810090706D50168836B4A6877
:103BF00022F400421A434A6090F82810C90606D5FC
:103C00000168C36B8A6822F480521A438A6090F874
:103C10002810890606D50168036C8A6822F40052D0
:103C20001A438A6090F82810490611D50168436C40
:103C30004A6822F480121A434A60416CB1F5801F31
:103C400006D10168836C4A6822F4C0021A434A60B4
:103C500090F82810090606D50168C26C486820F45F
:103C60000020104348607047F8B500260446C0F8AD
:103C70008C60FDF7D7FA054620686FF07E47006834
:103C8000000708D500222B464FF40011204600976C
:103C900000F04AFC60B92068006840070AD500229D
:103CA0002B464FF480012046009700F03DFC08B100
:103CB0000320F8BD2020C4F88400C4F88800E6661C
:103CC000002084F88060F8BD10B5806B0021A0F85A
:103CD0005E10A0F85610FFF7EAF810BD01680C4B13
:103CE0000A6822F490720A6001688A681A408A6041
:103CF000C16E012904D101680A6822F010020A602D
:103D000000212022C0F88820C166016770470000AA
:103D1000FEFFFFEF70B50446D0F888002228B4F803
:103D20006010206804D0816941F00801816170BD94
:103D3000406AA26D08401080A06D801CA065B4F898
:103D40005E00401EA4F85E00B4F85E000028EED1CC
:103D5000206800252021026822F490720260206809
:103D6000826822F001028260C4F888102567E06E44
:103D7000012804D02046FFF7C3FAE56670BD20682D
:103D8000016821F010010160B4F85C102046FFF7D3
:103D90003EF8F2E72DE9F04704460068C569D0F81F
:103DA00000A0D0F80880D4F88810B4F86060222908
:103DB00005D0816941F008018161BDE8F087B4F860
:103DC00068704FF0000961E02068A16D406A3040E2
:103DD0000880A06D801CA065B4F85E00401EA4F8A9
:103DE0005E002068C569690730D0E9070AD05FEA3C
:103DF000CA5107D501210162D4F88C0040F00100BE
:103E0000C4F88C00A8070BD55FEAC87008D02168F9
:103E100002200862D4F88C0040F00400C4F88C0042
:103E200068070BD55FEAC87008D0216804200862D3
:103E3000D4F88C0040F00200C4F88C00D4F88C0058
:103E400020B12046FFF733F8C4F88C90B4F85E0038
:103E5000E0B9206820231F4AD0F800C02CF4807CF1
:103E6000C0F800C02068D0F808C00CEA020CC0F806
:103E700008C0C4F88830C4F87090E06E01281DD0E6
:103E80002046FFF73DFA00BFC4F86C900FB1A806BA
:103E90009AD4B4F85E0000288FD0B4F8681081423C
:103EA0008BD92068816821F0805181600A482067A1
:103EB0002068016841F0200101607EE72068016808
:103EC00021F010010160B4F85C102046FEF79FFF5E
:103ED000DAE70000FEFFFFEF153D000870B504466D
:103EE000D0F888002228B4F86010206804D08169D6
:103EF00041F00801816170BD406AA26D08401070F8
:103F0000A06D401CA065B4F85E00401EA4F85E00E1
:103F1000B4F85E000028EED1206800252021026858
:103F200022F4907202602068826822F001028260AE
:103F3000C4F888102567E06E012804D02046FFF7FA
:103F4000DFF9E56670BD2068016821F010010160AD
:103F5000B4F85C102046FEF75AFFF2E72DE9F0476F
:103F600004460068C569D0F800A0D0F80880D4F8ED
:103F70008810B4F86060222905D0816941F00801F9
:103F80008161BDE8F087B4F868704FF0000961E026
:103F90002068A16D406A30400870A06D401CA0658B
:103FA000B4F85E00401EA4F85E002068C569690789
:103FB00030D0E9070AD05FEACA5107D50121016272
:103FC000D4F88C0040F00100C4F88C00A8070BD591
:103FD0005FEAC87008D0216802200862D4F88C001B
:103FE00040F00400C4F88C0068070BD55FEAC87085
:103FF00008D0216804200862D4F88C0040F0020048
:10400000C4F88C00D4F88C0020B12046FEF74FFF96
:10401000C4F88C90B4F85E00E0B9206820231F4AF1
:10402000D0F800C02CF4807CC0F800C02068D0F824
:1040300008C00CEA020CC0F808C0C4F88830C4F804
:104040007090E06E01281DD02046FFF759F900BF9F
:10405000C4F86C900FB1A8069AD4B4F85E0000289A
:104060008FD0B4F8681081428BD92068816821F024
:10407000805181600A4820672068016841F0200172
:1040800001607EE72068016821F010010160B4F84A
:104090005C102046FEF7BBFEDAE70000FEFFFFEFF4
:1040A000DD3E00082DE9F04304468068D84E87B015
:1040B000D84B2168D4E90427D4F81CC010430A68FF
:1040C000002547EA0C073843324002430A60206863
:1040D000E268416821F44051114341602268A169BE
:1040E0009A4201D0206A01439668DFF82CC3CB4F77
:1040F000CB4806EA0C060E4396602168666ACA6AD7
:1041000022F00F023243CA622268BA420ED100681E
:1041100000F03800182873D047DCB8B3082879D0ED
:1041200010286FD178E028287ED17BE0BD498A42F3
:1041300009D1006800F00700062875D2DFE800F01A
:10414000546A6C6E7072B8498A4209D1006800F0F6
:104150000700062868D2DFE800F0475D5F6163650D
:10416000B2498A4209D1006800F0070006285BD2F4
:10417000DFE800F03A5052545658AD498A420BD10C
:10418000006800F0070006284ED200E010E0DFE8EB
:1041900000F02B4143454749A6498A420AD10068AD
:1041A00000F03800182839D0B7DD2028BBD13CE01A
:1041B00001203AE0A0498A4209D1006800F00700D6
:1041C000062831D2DFE800F01026282A2C2E9B4941
:1041D0008A420BD1006800F00700062824D2DFE8ED
:1041E00000F003191B1D1F2100201EE09A421BD165
:1041F0008B48001D006800F00700062814D202E07A
:104200000CE007E010E0DFE800F0030507090B0D04
:1042100002200AE0042008E0082006E0102004E064
:10422000202002E0402000E080208549DFF8148251
:104230009A42854A4FF400434FEA21174FF0000697
:104240004DD110281AD006DC022809D004280BD042
:1042500008287CD10DE020283DD0402877D13CE0D3
:10426000FDF7B4F8014610E06846FDF7C1F8019982
:104270000BE003A8FDF75EF9049906E010688006DC
:1042800004D51068C0F3C100C140B9B3606A676863
:1042900038F8102007EB4703B1FBF2F0834256D801
:1042A000B0EB073F53D8002308461946FCF712F835
:1042B00002467808130E120243EA012110183A460A
:1042C00071410023FCF706F8604AA0F54071914265
:1042D0003DD821684CE03946D8E71946D6E7D4F8EE
:1042E0001CC04FF6EF799C4552D108281AD006DC45
:1042F00060B101280DD0042829D10EE039E0102842
:1043000015D0202840D040287CD13FE0FDF76EFF3B
:1043100001E0FDF77DFF014610E06846FDF768F813
:1043200001990BE003A8FDF705F9049906E0106870
:10433000800604D51068C0F3C100C140C9B1636AEA
:10434000606838F81330B1FBF3F1490000E059E040
:1043500001EB5001B1FBF0F080B2A0F11001494532
:1043600050D84FF6F0732168C0F342021840104352
:10437000C8600120A4F86A00A4F8680028462667EF
:10438000666707B0BDE8F0833946D8E71946D6E737
:10439000082819D005DC58B101280CD0042831D1E7
:1043A0000DE0102815D020282ED040282AD12DE04D
:1043B000FDF71CFF01E0FDF72BFF014610E068460A
:1043C000FDF716F801990BE003A8FDF7B3F804997F
:1043D00006E01068800605D51068C0F3C100C14032
:1043E0000029C6D0636A606838F81330B1FBF3F176
:1043F00001EB5001B1FBF0F080B2A0F11001494592
:104400007FF667AF0125B4E73946EBE71946E9E7E0
:10441000F369FFCF000C0058FFF4FF1100100140BA
:10442000544402580044004000480040004C004002
:10443000005000400014014000780040007C004023
:104440000090D003B050000800440258FFFC0F0059
:1044500070B58468002381654FF48056A0F85C2015
:10446000B442A0F85E204FF0FF01036704D1046955
:10447000DCB940F2FF1118E04FF07F059CB1B4F1B8
:10448000805F15D0A0F860302221C0F88C30C0F8D1
:10449000881001688C6844F001048C60416EB1F1B1
:1044A000005F0CD025E0046934B9A0F86010EBE798
:1044B000016909B13F21F8E7A0F86050E4E7B0F8DE
:1044C0006810914215D88168B14201D1016971B17A
:1044D0001149016780F8803001680A6842F48072EF
:1044E0000A600068816841F0805181600FE00B49EB
:1044F000EFE78168B14201D1016951B10849016713
:1045000080F880300068016841F4907101600020FB
:1045100070BD0449F3E700005D3F0008953D0008C9
:10452000DD3E0008153D00082DE9F0479A46174684
:104530000E460446089D4FF000094FF0200839E070
:10454000681C37D0FCF76EFEA0EB0A00A84222D808
:104550000DB32068016849072CD5C069C043000528
:1045600028D423684FF40061196221680B6823F492
:10457000D0730B6021688B6823F001038B60C4F853
:104580008480C4F88880C4F88C8000BF032084F83D
:104590008090BDE8F08721680B6823F4D0730B602E
:1045A00021688B6823F001038B60C4F88480C4F811
:1045B0008880EBE72068C06936EA000004D000205C
:1045C000B842BDD00020E4E70120F9E70A4810B561
:1045D000FEF76EFC08480949006888420AD1C169A3
:1045E000C943C90606D410210162BDE81040024843
:1045F00000F006B810BD0000646200240010014005
:104600002DE9F0410E4E0446B0F8580041F28837CB
:104610003568401BB080A565A4F85E70394609482E
:10462000FBF7B1FE0020B0803A4629462046FEF74F
:1046300041FE2068016841F010010160BDE8F08191
:1046400004000024DC4E0024FEE700000FB4054BFC
:1046500010B503A9044A029800F0EAF810BC5DF80E
:1046600014FB0000394F000820000024090700282F
:104670004FEA116104DB00F1E02080F8001470477C
:1046800000F00F0000F1E02080F8141D704702E0F8
:1046900008C8121F08C1002AFAD1704770470020CD
:1046A00001E001C1121F002AFBD170472DE9FF5F15
:1046B00082B00021DDE90430020DDDF840B0034393
:1046C00018D044F61050A2F2FF324243151411984C
:1046D00001281FD0A5EB0B00401C5FEA000A4FF039
:1046E00000064E4FDFF83891B046504615D5CAF156
:1046F000000413E0119801244AA3012801D16FEAB4
:104700000B010298119AC0E90031C0E9024206B0DB
:10471000BDE8F09FCBF10000DFE704460021404AEE
:10472000491842EB0450CDE9001012E0E00707D031
:1047300032463B4640464946FBF7FDFE80468946E9
:1047400032463B4610461946FBF7F5FE06460F4635
:104750006410002CEAD1DDE90401DDE90023BAF19F
:10476000000F06DAFBF7E7FE42464B46FBF7E3FE97
:1047700005E0FBF752FF42464B46FBF74EFF04466F
:104780000E460022284BFBF7CFFF03D84FF0FF3037
:10479000014607E00022254B20463146FBF724FE68
:1047A000FBF7AAFF102409E0002C0ADB0A220023F1
:1047B000FBF790FD039B30321A55641E50EA01024C
:1047C000F2D1641C039AC4F111031444119A012A12
:1047D00003D0012208430DD10AE0084304D0002091
:1047E0004FF0110B119072E7A3EB0B056D1E0DE05E
:1047F0005B4504DD4FF0000205F1010504E003DA3A
:104800004FF00002A5F10105002AECD002981199A1
:10481000C0E90231C0E9004579E70000000014401A
:104820000000F03F300000000000F0430000E03FD7
:104830002DE9FF4F95B09A46884606460025EEE1E1
:10484000252877D100242746F94A0121039400E066
:10485000044316F8013F203B01FA03F01042F7D160
:1048600030782A2811D06FF02F033078A0F1300271
:10487000092A16D8039A44F0020402EB820203EBE1
:1048800042021044761C0390EFE758F8042B039281
:10489000002A03DA504244F40054039044F0020426
:1048A000761C30782E2816D116F8010F44F0040437
:1048B0002A280DD06FF02F023078A0F13003092B99
:1048C00009D807EB870302EB4303C718761CF3E70D
:1048D00058F8047B761C30786C280FD006DC4C2806
:1048E00017D068280DD06A2814D104E0742810D09D
:1048F0007A280FD10DE044F400140AE044F4801447
:1049000001E044F440147278824202D104F580142C
:10491000761C761C307866280BD013DC582877D0AC
:1049200009DC002875D04528F6D04628F4D0472861
:104930001AD193E118E0632835D0642879D065282E
:1049400012D18BE1702873D008DC6728F1D0692878
:104950006FD06E280DD06F2806D1ACE073282CD014
:10496000752874D0782853D05246179990476D1CFB
:1049700054E1C4F30250022809D003280DD0D8F81E
:10498000001004280DD00D6008F1040846E1D8F8A5
:104990000010EA17C1E90052F6E7D8F800100D80C0
:1049A000F2E70D70F0E718F8041B8DF800100020F6
:1049B0008DF80100EB46012003E058F804BB4FF0EE
:1049C000FF3061074FF0000102D40DE009F1010151
:1049D0008946B9420FDA8145F8DB1BF80910002936
:1049E000F4D108E009F1010189468142FADB1BF8A4
:1049F00009100029F6D103985346A0EB0907214678
:104A00003846179A00F080FA284400EB090507E0C1
:104A100044E008E10DE01BF8010B5246179990475E
:104A2000B9F10109F7D2534621463846179AF2E008
:104A300039E00A21C4F302524FF0000B0091022A20
:104A400006D058F8040BC117032A09D00AE023E066
:104A500008F1070020F00702F2E80201904605E0A5
:104A600000B2C117042A01D140B2C117002906DAE9
:104A70000A460021404261EB02012D2202E022059C
:104A800004D52B228DF80420012203E0E20701D097
:104A90002022F7E7914657E00A2100E010214FF06D
:104AA000000B00910BE010214FF0000B44F00404C8
:104AB0000827009103E008204FF0000B0090C4F39A
:104AC0000252022A05D058F8040B0021032A08D00C
:104AD00008E008F1070020F00702F2E80201904622
:104AE00003E080B2042A00D1C0B24FF000092207CF
:104AF0002AD53278702A07D0DDF800C08CF0100C6F
:104B00005CEA0B0C05D00EE040228DF80420012257
:104B100008E050EA010306D030238DF804308DF808
:104B2000052002229146009B83F0080353EA0B0301
:104B30000AD150EA010201D1620705D530228DF871
:104B400004204FF001097F1E3278582A04D039A280
:104B50000C920CAA02920BE03BA2F9E75B46009A8A
:104B6000FBF7B8FB0C9B9B5C029A521E02921370DF
:104B700050EA0102F2D1029804A9081A00F1200BB0
:104B8000600702D524F4803400E001275F4502DD90
:104B9000A7EB0B0000E0002000EB0B010090039856
:104BA0004944401A0390E00306D453462146179A1D
:104BB000039800F0A9F90544002706E001A8524631
:104BC000C05D179990476D1C7F1C4F45F6DBE003D5
:104BD0000CD553462146179A039800F095F90544E1
:104BE00004E030205246179990476D1C0099481EEA
:104BF00000900029F5DC08E00298029952460078FE
:104C0000491C0291179990476D1CBBF10001ABF153
:104C1000010BF1DC5BE100F065F90544761C3078AE
:104C200000287FF40DAE19B02846BDE8F08F0000D3
:104C30000928010030313233343536373839616272
:104C40006364656600000000303132333435363736
:104C5000383941424344454600000000600700D413
:104C6000062708F1070020F00700F0E8022380463D
:104C700003F0004C5FEA0C0001D097A009E020058A
:104C800001D596A005E0E00701D095A001E0AFF2C4
:104C90004C001390307823F0004365280CD006DCDC
:104CA000452809D046281DD047287FD13BE06628FB
:104CB00018D067287AD136E00021112F01DB1120AE
:104CC00000E0781CCDE9000104A90CA8FFF7EEFC78
:104CD000DDE90D010C9A4FF0000B07F1010910926C
:104CE00000914EE04FF000400097CDE9011004A97B
:104CF0000CA8FFF7DBFCDDE90D020C9B0F994FF0D0
:104D0000000B91461093009211B9791C00EB010938
:104D1000B7EB090003D4C0F1FF3B07F10109A9EB90
:104D20000700019042E0012F00DA01270021112F36
:104D300001DD112000E03846CDE9000104A90CA8EE
:104D4000FFF7B4FCDDE90D010C9A00914FF0000B68
:104D5000B946109221070FD4009A4A4503DA9146CA
:104D600001E0A9F10109B9F1010F05DD109AA9F1DE
:104D70000101515C3029F4D0B84202DA10F1040F7D
:104D800003DA0121CDE9011010E0002803DC83449F
:104D9000A9EB000102E0411C494500DD8946A0EB7A
:104DA0000B00401C01904FF000400290200705D4FA
:104DB0000198484502DB4FF0FF30019000208DF84C
:104DC0004B0002980DF14B07B0F1004F25D00220A7
:104DD0000C902B200D90029800280CDA4042029093
:104DE0002D200D9007E00A210298FBF7D7FA303109
:104DF000029007F8011D0C99481E0C900029F2DC66
:104E000002980028EFD1791E0D980870307800F0D4
:104E1000200040F0450007F8020D11A8C01BC01D7E
:104E200002901398007800B1012000EB090101986D
:104E300001EBE071029801440398401A401E039070
:104E4000E00306D453462146179A039800F05CF815
:104E500005441398007818B15246179990476D1C75
:104E6000E00323D553462146179A039800F04CF8E7
:104E700005441BE0BBF1000F07DB0098584504DD3B
:104E80001098179910F80B0001E01799302052463E
:104E9000904701980BF1010B401E05F101050190AF
:104EA00004D12E205246179990476D1CB9F100018C
:104EB000A9F10109DEDC05E017F8010B524617994C
:104EC00090476D1C0299481E02900029F4DC53465D
:104ED0002146179A03989EE62D0000002B00000043
:104EE000200000002DE9F041044600251E4617462B
:104EF000880404D405E039462020B0476D1C641EA8
:104F0000F9D52846BDE8F0812DE9F0410446002599
:104F10001E469046C80301D5302700E020278804AC
:104F200004D505E041463846B0476D1C641EF9D5EE
:104F30002846BDE8F081000013B5044801224FF671
:104F4000FF736946FEF7DDF900981CBD646200241A
:104F50004A490A680020920311D4BFF34F8FBFF370
:104F60006F8F474A1060BFF34F8FBFF36F8F0A6890
:104F700042F400320A60BFF34F8FBFF36F8F0A68AD
:104F8000D20322D43D4A70321060BFF34F8F101FFE
:104F900043F6FF7400683A4D1035C0F34E32C0F34B
:104FA000C90304EA4216184646EA80772F60401E7D
:104FB000FAD2521EF5D2BFF34F8F086840F480300A
:104FC0000860BFF34F8FBFF36F8FFCF739F9FEF71F
:104FD0005BFCFEF7F9F9FEF7E7FAFEF77BFAFEF75E
:104FE000B1FAFF20FBF740FC00210520FEF747FC4B
:104FF00000210620FEF743FC00210720FEF73FFCBE
:1050000000210820FEF73BFC00210920FEF737FCB9
:1050100000210A20FEF733FC00210B20FEF72FFCB5
:1050200000210C20FEF72BFC4FF44040FEF7CAF99C
:10503000FBF7AEFC00EE100A9FED133B9FED142B27
:10504000B8EE400B9FED141B0E4920EE030B0880B9
:1050500013A010EE021B53EC112BFFF7F7FA1248C6
:10506000FDF7CEFC114C4FF4FA7504212046FCF7F5
:10507000C5F82846FBF798FFF7E7000014ED00E0BD
:1050800050EF00E0240000247B14AE47E17A344066
:10509000000000000000F03E7B14AE47E17A24409F
:1050A000252E32660A000000904E002400080258A7
:1050B000010002000400060008000A000C001000B5
:1050C00020004000800000010101010307010000F1
:1050D00008040204080101010000000001020304A9
:1050E0000102030406070809085100080000002413
:1050F000240000008E4600082C51000824000024E3
:10510000D46600009E460008000000000000000079
:10511000000000000100000010000000000000007E
:0C5120000090D0030090D00300000000BD
:040000050800029954
:00000001FF
