:020000040800F2
:1000000060060024AD020008AB5A0008BF3C00089F
:10001000A75A0008090A0008856D000800000000C2
:10002000000000000000000000000000EB5E00087F
:100030000D0A000800000000AD5A0008ED5E00083F
:10004000C7020008C7020008C7020008C70200086C
:10005000C7020008C7020008C7020008C70200085C
:10006000C7020008C7020008C7020008C70200084C
:10007000C7020008C7020008C7020008C70200083C
:10008000C7020008C7020008C7020008C70200082C
:10009000C7020008C7020008C7020008C70200081C
:1000A000C7020008C7020008C7020008C70200080C
:1000B000C7020008C7020008C7020008C7020008FC
:1000C000C7020008C7020008C7020008C7020008EC
:1000D000C7020008356D0008C7020008C702000803
:1000E000C7020008C702000800000000C70200089D
:1000F000C7020008C7020008C7020008C7020008BC
:10010000C7020008C7020008C7020008C7020008AB
:10011000C7020008C7020008C7020008C70200089B
:10012000C7020008C7020008C7020008C70200088B
:10013000C7020008C7020008C7020008C70200087B
:1001400000000000000000000000000000000000AF
:10015000C7020008C7020008C7020008C70200085B
:10016000C7020008C7020008C7020008C70200084B
:10017000C7020008C7020008C7020008C70200083B
:10018000C7020008C7020008C7020008C70200082B
:10019000C7020008C7020008C7020008C70200081B
:1001A000C7020008C7020008C7020008C70200080B
:1001B000C7020008C7020008C7020008C7020008FB
:1001C000C7020008C7020008C7020008C7020008EB
:1001D000C7020008C7020008C7020008C7020008DB
:1001E000C7020008C7020008C7020008C7020008CB
:1001F000C7020008C7020008C7020008C7020008BB
:10020000C7020008C7020008C7020008C7020008AA
:10021000C7020008C7020008C7020008C70200089A
:10022000C7020008C7020008C7020008000000005B
:10023000C7020008C702000800000000C70200084B
:10024000C7020008C7020008C7020008C70200086A
:10025000C7020008C7020008C7020008C70200085A
:10026000C7020008C7020008C7020008C70200084A
:10027000C7020008C7020008C7020008000000000B
:10028000C702000800000000C702000800000000CC
:1002900000000000C7020008DFF80CD000F048FAA8
:1002A0000048004761770008600600240648804740
:1002B00006480047FEE7FEE7FEE7FEE7FEE7FEE74B
:1002C000FEE7FEE7FEE7FEE7CD5F000899020008C3
:1002D0002DE9F05F0546002092469B46884606467B
:1002E000814640241BE0284641464746224600F00E
:1002F00057F853465A46C01A914110D31146184632
:10030000224600F03EF82D1A67EB01084F462246C0
:100310000120002100F035F817EB00094E41201EA6
:10032000A4F10104DFDC484631462A464346BDE8D5
:10033000F09FD2B201E000F8012B491EFBD27047BA
:100340000022F6E710B513460A4604461946FFF7A1
:10035000F0FF204610BD30B50B460146002020229C
:10036000012409E021FA02F59D4205D303FA02F5C2
:10037000491B04FA02F52844151EA2F10102F1DC22
:1003800030BD202A04DB203A00FA02F10020704739
:100390009140C2F1200320FA03F3194390407047C3
:1003A000202A04DB203A21FA02F00021704721FACA
:1003B00002F3D040C2F12002914008431946704731
:1003C0002DE9FE4F804681EA0300C00F0C460090E5
:1003D00021F0004123F00045B8EB0200A94105D20D
:1003E0004046214690461C460B46024623F00040FC
:1003F000104347D0270DC7F30A00C3F30A510290F8
:10040000401A019040286BDAC3F3130040F4801BBC
:100410000098924620B10023D2EB030A63EB0B0B4A
:1004200001985946C0F140025046FFF7AAFF064620
:100430000D4650465946019A00F08CF910EB080021
:100440006141002487EA115284EAE7731A4340D0DD
:10045000009A62B3019A012A4FEA075215DC001B89
:1004600061EB02014FF0004202EA0752CDE900427F
:10047000001C41F5801132462B4600F08CF903B088
:10048000BDE8F08F40462146F9E7001B61EB020111
:10049000001C41F5801300185B412018A2F50017DD
:1004A00047EB030140EAD570B6196D4111E06D08C4
:1004B0004FEA360645EAC0754FEA0752001B61EB6A
:1004C0000201001C41F5801149084FEA3000001973
:1004D000514132462B4603B0BDE8F04F00F04CB915
:1004E0000098012240000023D0EB020263EBE0738E
:1004F000009821464FEAE074B8EB000061EB04017C
:10050000E9E783F000435BE781F0004158E72DE91C
:10051000FE4F81EA030404F0004421F000410094FE
:100520004FF0000B23F0004350EA01045ED052EA82
:1005300003045BD0C3F30A54C1F30A552C44A4F25C
:10054000F3340194A0FB0254C1F3130141F4801170
:10055000C3F3130343F4801301FB024400FB034E77
:10056000840A970A44EA815447EA8357A4FB076840
:1005700002958D0A05FB07854FEA932C04FB0C546A
:100580002705029D4FEA065847EA1637B5EB0805DE
:100590006EEB070C870E920E47EA811742EA831230
:1005A000A7FB0201B6EB0B0164EB00042B0D43EA41
:1005B0000C335E1844EB1C50DA465146E7FB02014F
:1005C000C5F313044FEA0B3343EA14534FEA0432E2
:1005D000019C43EA0603A4F10C040294009CCDE9BB
:1005E00000B400F0D8F803B0BDE8F08F0020014659
:1005F000F9E72DE9F04D81EA030404F0004B21F006
:10060000004514464FF0000A23F0004150EA05026D
:1006100020D054EA01021DD0C5F30A570246C5F3A3
:100620001303C1F31300C1F30A5640F4801543F4D9
:100630008013A7EB0608101BD64608F2FD3873EBB3
:10064000050002D308F1010801E092185B41B8F1FE
:10065000000F03DA00200146BDE8F08D00204FF4C2
:100660008011064684460EE0171B73EB050705D381
:10067000121B63EB050306434CEA010C49084FEAE1
:10068000300092185B4150EA0107EDD152EA0300B5
:1006900012D082EA040083EA0501084305D0101B4A
:1006A000AB4106D20122002306E000224FF00043B6
:1006B00002E06FF0010253101AEB06004CEB0851F8
:1006C00010EB0A0041EB0B01BDE8F04D00F054B80F
:1006D000C1F30A52C1F3130140F2FF3341F4801118
:1006E0009A4202DA00200146704740F233439A42B0
:1006F000A2F2334202DC5242FFF752BEFFF741BE84
:1007000030B5041E71F1000404DB4FF00044404298
:1007100064EB0101141E73F1000405DB1C464FF06D
:100720000043524263EB0403994208BF904230BD3C
:10073000064C074D06E0E06840F0010394E807002E
:1007400098471034AC42F6D3FFF7AAFD50C2000818
:1007500070C20008202A06DBCB17203A41FA02F0CB
:1007600043EAE07306E041FA02F3D040C2F120020E
:10077000914008431946704710B5141E73F10004E8
:1007800008DA401C41F1000192185B411A4301D183
:1007900020F0010010BD2DE9F04D92469B4611B1AD
:1007A000B1FA81F202E0B0FA80F220329046FFF70F
:1007B000E8FD04460F4640EA0A0041EA0B015346B1
:1007C0005A46084313D0114653EA010019D0C8F124
:1007D00040025046FFF7E4FD05460E465046594696
:1007E0004246FFF7CEFD084305D0012004E0204635
:1007F0003946BDE8F08D0020054346EAE0762C43FB
:1008000037430A986305E40AA0EB08000022FD0ABA
:1008100044EA47540A3002D500200146E9E70105C1
:1008200010196941DDE9084500196941BDE8F04D3D
:10083000A2E7000010B500F07FF905F069FA002288
:100840004FF48071224800F067FB022006F056FF4B
:10085000012211021E4800F05FFB00224FF40071DC
:100860001B4800F059FB4FF4054000F033F802201C
:1008700006F044FF0121052000F04EF8012106207A
:1008800000F04AF80121072000F046F80121082075
:1008900000F042F80121092000F03EF801210A2071
:1008A00000F03AF801210B2000F036F801210C206D
:1008B00000F032F80021022000F02EF8FF21012084
:1008C00000F02AF84FF4204000F004F810BD0000BA
:1008D0000004025838B504460020009020128DF81C
:1008E0000000E0B28DF8010000224FF4805108486A
:1008F00000F012FB4FF6FF7302226946054802F032
:100900008BFB01221103024800F006FB38BD0000FA
:1009100000040258D801002438B505460C460020D2
:100920000090012000EB4500C0B28DF800008DF86A
:10093000014000224FF48051074800F0EDFA4FF6D5
:10094000FF7302226946054802F066FB012211038B
:10095000014800F0E1FA38BD00040258D801002433
:1009600010B586B0044600BF6CB900BF23480068CC
:1009700040F01000214908600846006800F01000AF
:10098000009000BF1FE0012C0DD100BF1B48006884
:1009900040F01000194908600846006800F0100097
:1009A000009000BF0FE0022C0DD100BF134800687B
:1009B00040F01000114908600846006800F010007F
:1009C000009000BF00BF00BF0D4830F81400019038
:1009D000012002900390032004900A4951F824005A
:1009E00001A900F073F9064A32F81410054A52F8CA
:1009F0002400012200F090FA06B010BDE044025835
:100A0000A87A00080800002400BFFEE77047000035
:100A100070B504461D460023B5F5804F13D154F838
:100A200022300C480340D1E9000640EA06108E68E7
:100A300040EA06208E8940EA06408E69304303432F
:100A400044F8223003E06FF0704044F822000020A8
:100A500070BD00000000F0CF10B50246002308680A
:100A600052F820301B480340D1E901042043CC68F0
:100A700020430C6920434C6920438C692043CC6996
:100A800020430C6A20434C6A20438C6A2043CC6A82
:100A900020430C6B20438C6B20434C6B204303435F
:100AA0008868082801D143F04003086842F82030E4
:100AB000086BB0F5801F05D1086818B110680C6B81
:100AC00020431060086818B110684C6B2043106018
:100AD000002010BD8004C0FF30B50346144600223C
:100AE000601C53F8202002F04042D1E9000540EAA2
:100AF00005108D6840EA05208D8940EA0545088A81
:100B0000401E45EA0055087D801E45EA00608D695B
:100B100028430243601C43F82020186800F480102A
:100B200038B1586820F47002088A401E42EA005228
:100B30005A60002030BD000000B587B000BF0D48EE
:100B4000006840F002000B4908600846006800F0A9
:100B50000200019000BF00BF4FF4985002900220A5
:100B6000059001200390049002A9034800F0AEF81C
:100B700007B000BDE044025800040258FEB5054627
:100B80000E460020019000241DE000224FF4805109
:100B90000E4800F0C1F94FF6FF70042302AA01A924
:100BA00000900B4802F093FB01221103074800F06C
:100BB000B3F99DF80B009DF80A1040EA012026F8D1
:100BC0001400601CC4B2AC42DFDBFEBD000402585E
:100BD000D801002410B504460CB9012010BD94F8CA
:100BE0003500022803D0802060650120F6E73449F3
:100BF0002068884205D333492068884201D8012003
:100C000000E00020C0B1042084F835002C492068A1
:100C100088420AD32B492068884206D82068006899
:100C200020F001002168086048E02068006820F09A
:100C300001002168086041E02068006820F00E0093
:100C4000216808601E49206888420AD31D4920682F
:100C5000884206D82068006820F0010021680860FA
:100C600005E02068006820F0010021680860206E1F
:100C7000006820F48070216E086094F85C100120F8
:100C8000884011490860D4E919104860E06E40B10D
:100C9000E06E006820F48070E16E0860D4E91C10FA
:100CA000486000BF002084F8340000BF012084F8B1
:100CB0003500206D10B12046216D884700208DE75A
:100CC00010000240B804024004540258F8B502462D
:100CD0000B460021002600240020824D00BFFCE0CE
:100CE000012707FA01F61F6807EA0604B4427CD11F
:100CF0005F68022F02D05F68122F1AD14FEAD10C21
:100D000002F1200757F82C004F074FEAD76C0F2746
:100D100007FA0CF7B8434FEA417C4FEADC6C1F69D5
:100D200007FA0CF738434FEAD10C02F1200747F8D5
:100D30002C0010684FEA410C032707FA0CF7B84360
:100D40001F7907F003074FEA410C07FA0CF7384305
:100D500010605F68012F08D05F68022F05D05F68C0
:100D6000112F02D05F68122F17D190684FEA410C03
:100D7000032707FA0CF7B8434FEA410CDF6807FA7C
:100D80000CF738439060506801278F40B8431F79B3
:100D9000C7F300178F4038435060D0684FEA410CCA
:100DA000032707FA0CF7B8434FEA410C9F6807FA8C
:100DB0000CF73843D0605F6807F08057B7F1805F69
:100DC00095D100BF484F3F6847F00207DFF818C1D0
:100DD000CCF8007067463F6807F00207009700BF35
:100DE00000BF424F4FEA910C00E075E057F82C002D
:100DF0008F074FEA177C0F2707FA0CF7B8433C4FD1
:100E0000BA4201D100272DE03A4FBA4201D1012761
:100E100028E0394FBA4201D1022723E0374FBA42C6
:100E200001D103271EE0364FBA4201D1042719E051
:100E3000344FBA4201D1052714E0334FBA4201D1F1
:100E400006270FE0314FBA4201D107270AE0304FA1
:100E5000BA4201D1082705E02E4FBA4201D1092735
:100E600000E00A274FEA817C4FEA1C7C07FA0CF766
:100E700038431E4F4FEA910C47F82C002868A043D6
:100E80005F6807F48037B7F5803F00D120432860C2
:100E90006868A0435F6807F40037B7F5003F00D1EA
:100EA000204368604FF0B0473868A0435F6807F49C
:100EB0008017B7F5801F00D120434FF0B04738604E
:100EC0007868A0435F6807F40017B7F5001F00D1EA
:100ED00020434FF0B0477860491C1029FFF400AF61
:100EE000F8BD000080000058F4440258080400587F
:100EF000000002580004025800080258000C025872
:100F0000001002580014025800180258001C025821
:100F100000200258002402580AB1018300E04183F6
:100F20007047000001480068704700002800002456
:100F3000034800680349097808440149086070477C
:100F4000280000243000002410B5032000F0E2F84F
:100F50000F2000F007F808B1012010BD00F08CF858
:100F60000020FAE770B504460E4800784FF47A7115
:100F7000B1FBF0F00C490968B1FBF0F5284602F02E
:100F800051FC08B1012070BD102C07D2002221466F
:100F9000501E00F082F80548046001E00120F2E7ED
:100FA0000020F0E730000024000000242C00002482
:100FB0004178154A11600178F9B1121D416811603C
:100FC000017B0907C27A41EA0261827A41EAC241A1
:100FD000427B41EA8241827B41EA4241C27B41EA53
:100FE0000241427A41EA0221027A41EA4201027850
:100FF0001143054A0832116005E00021024A121D22
:101000001160121D1160704798ED00E000BF00BF35
:1010100000BFBFF35F8F00BF00BF00BF054800687F
:1010200020F48030034908600020024970310860D4
:101030007047000024ED00E040F001010D4A11600E
:101040000C497039096841F480310A4A703A1160DC
:1010500000BF00BF00BFBFF34F8F00BF00BF00BF86
:1010600000BF00BF00BFBFF36F8F00BF00BF00BF56
:101070007047000094ED00E07047014608460028E4
:1010800009DB00F01F0301229A4043099B0003F192
:10109000E023C3F8002100BF70472DE9F05F8046D0
:1010A0000D46164605F094FE074639462A46334655
:1010B00001F00700C0F1070ABAF1040F02D94FF09E
:1010C000040A01E0C0F1070AD14600F1040ABAF1AE
:1010D000070F02D24FF0000A01E0A0F1030AD44644
:1010E0004FF0010A0AFA09FAAAF1010A0AEA020A09
:1010F0000AFA0CFA4FF0010B0BFA0CFBABF1010BE7
:101100000BEA030B4AEA0B042146404605F068FE51
:10111000BDE8F09F00BF00F00702064B19684FF6CC
:10112000FF031940044B0B4343EA0221014B1960B2
:1011300000BF70470CED00E00000FA0510B501F0AB
:1011400067F90949096801F470614FF4807292FAF5
:10115000A2F2B2FA82F2D140044A515CC84004497A
:1011600008600846006810BD18440258687A0008F4
:101170000000002410B501F003F90749096801F0E7
:101180007001102292FAA2F2B2FA82F2D140034A1E
:10119000515CC84010BD000020440258687A000825
:1011A00070B5014600220120002300249FED811A22
:1011B000B0EE410A9FED7F1AF0EE410A7E4D2D6898
:1011C00005F003027C4D2D68C5F305307A4D2D1DC9
:1011D0002D6805F01003784D14352D68C5F3CC0546
:1011E00015FB03F501EE105AB8EE411AB0EE410AB4
:1011F00022B1012A4DD0022A7DD169E06E4D283DF1
:101200002D68C5F340152DB36B4D283D2D68C5F3F2
:10121000C1066A4D25FA06F4B4FBF0F501EE105A4A
:10122000F8EE411A9FED661A80EE012A624D1035E4
:101230002D68C5F3080501EE105AB8EE411A32EEDA
:10124000011AB7EE002A31EE021A21EE811AF0EEF1
:10125000410A1DE0594DB5FBF0F501EE105AF8EECC
:10126000411A9FED571A80EE012A534D10352D6813
:10127000C5F3080501EE105AB8EE411A32EE011A14
:10128000B7EE002A31EE021A21EE811AF0EE410A81
:101290005EE04C4DB5FBF0F501EE105AB8EE412A78
:1012A0009FED471AC0EE011A434D10352D68C5F366
:1012B000080501EE105AB8EE411A31EE811AF7EE28
:1012C000001A31EE211A22EE011AF0EE410A3FE037
:1012D0003D4DB5FBF0F501EE105AF8EE411A9FEDC9
:1012E000381A80EE012A344D10352D68C5F30805F3
:1012F00001EE105A00E00CE0B8EE411A32EE011A8D
:10130000B7EE002A31EE021A21EE811AF0EE410A00
:101310001EE02C4DB5FBF0F501EE105AB8EE412A57
:101320009FED271AC0EE011A234D10352D68C5F325
:10133000080501EE105AB8EE411A31EE811AF7EEA7
:10134000001A31EE211A22EE011AF0EE410A00BF16
:1013500000BF194D10352D68C5F346256D1C01EEF3
:10136000105AB8EE411AC0EE811ABCEEE11A81EDB6
:10137000001A114D10352D68C5F306456D1C01EEA0
:10138000105AB8EE411AC0EE811ABCEEE11A81ED96
:10139000011A094D10352D68C5F306656D1C01EE67
:1013A000105AB8EE411AC0EE811ABCEEE11A81ED76
:1013B000021A70BD00000000284402580090D003BB
:1013C0000000004600093D0040787D0170B50146EF
:1013D00000220120002300249FED811AB0EE410A73
:1013E0009FED7F1AF0EE410A7E4D2D6805F0030255
:1013F0007C4D2D68C5F305507A4D2D1D2D6805F4E3
:101400008073784D1C352D68C5F3CC0515FB03F5AD
:1014100001EE105AB8EE411AB0EE410A22B1012A8B
:101420004DD0022A7DD169E06E4D283D2D68C5F36F
:1014300040152DB36B4D283D2D68C5F3C1066A4D8F
:1014400025FA06F4B4FBF0F501EE105AF8EE411A55
:101450009FED661A80EE012A624D18352D68C5F39E
:10146000080501EE105AB8EE411A32EE011AB7EE35
:10147000002A31EE021A21EE811AF0EE410A1DE037
:10148000594DB5FBF0F501EE105AF8EE411A9FEDFB
:10149000571A80EE012A534D18352D68C5F30805FB
:1014A00001EE105AB8EE411A32EE011AB7EE002AD8
:1014B00031EE021A21EE811AF0EE410A5EE04C4D47
:1014C000B5FBF0F501EE105AB8EE412A9FED471A30
:1014D000C0EE011A434D18352D68C5F3080501EE1D
:1014E000105AB8EE411A31EE811AF7EE001A31EEB9
:1014F000211A22EE011AF0EE410A3FE03D4DB5FB04
:10150000F0F501EE105AF8EE411A9FED381A80EE10
:10151000012A344D18352D68C5F3080501EE105A1F
:1015200000E00CE0B8EE411A32EE011AB7EE002AE4
:1015300031EE021A21EE811AF0EE410A1EE02C4D26
:10154000B5FBF0F501EE105AB8EE412A9FED271ACF
:10155000C0EE011A234D18352D68C5F3080501EEBC
:10156000105AB8EE411A31EE811AF7EE001A31EE38
:10157000211A22EE011AF0EE410A00BF00BF194DF8
:1015800018352D68C5F346256D1C01EE105AB8EECE
:10159000411AC0EE811ABCEEE11A81ED001A114D1C
:1015A00018352D68C5F306456D1C01EE105AB8EECE
:1015B000411AC0EE811ABCEEE11A81ED011A094D03
:1015C00018352D68C5F306656D1C01EE105AB8EE8E
:1015D000411AC0EE811ABCEEE11A81ED021A70BD0B
:1015E00000000000284402580090D003000000468C
:1015F00000093D0040787D012DE9F04104460025B9
:101600000026206800F00060B0F1006F30D1606EFD
:1016100048B1B0F5801F0DD0B0F5001F10D0B0F567
:10162000401F15D113E0F948006840F40030F74935
:1016300008600FE00221201D04F03AFA054609E097
:10164000022104F1240004F0CBFA054602E001E097
:10165000012500BF00BF55B9EC482430006820F4D4
:101660004010616E0843E9492431086000E02E43D0
:10167000208800F48070B0F5807F2DD1606D052842
:101680001AD2DFE800F0030A10171800DF480068DC
:1016900040F40030DD49086010E00021201D04F016
:1016A00007FA05460AE0002104F1240004F098FA44
:1016B000054603E002E001E0012500BF00BF55B987
:1016C000D2482430006820F00700616D0843CF49FC
:1016D0002431086000E02E43208800F40070B0F54B
:1016E000007F33D1A06D802817D003DC40B14028A3
:1016F0001CD10CE0C02817D0B0F5807F16D114E0C3
:10170000C248006840F40030C049086010E0002181
:10171000201D04F0CDF905460AE0002104F1240063
:1017200004F05EFA054603E002E001E0012500BF97
:1017300000BF55B9B5482430006820F4E070A16DB1
:101740000843B2492431086000E02E43208800F4A9
:101750008060B0F5806F38D1D4F8A400B0F5800F68
:1017600019D004DC50B1B0F5001F1DD10DE0B0F56B
:10177000C00F17D0B0F5000F16D114E0A3480068D1
:1017800040F40030A149086010E00021201D04F061
:101790008FF905460AE0002104F1240004F020FA44
:1017A000054603E002E001E0012500BF00BF5DB98E
:1017B00096482C30006820F46000D4F8A410084348
:1017C00092492C31086000E02E43208800F400602C
:1017D000B0F5006F38D1D4F8A800B0F1007F19D06F
:1017E00004DC50B1B0F1807F1DD10DE0B0F1407F3D
:1017F00017D0B0F1806F16D114E08448006840F42F
:1018000000308249086010E00021201D04F050F9EA
:1018100005460AE0002104F1240004F0E1F9054640
:1018200003E002E001E0012500BF00BF5DB9774899
:101830002C30006820F0E060D4F8A8100843734909
:101840002C31086000E02E43206800F00070B0F1F9
:10185000007F27D1A06CA0B1102804D0202809D087
:1018600030280FD10CE06948006840F40030674927
:10187000086009E00221201D04F01AF9054603E082
:1018800002E001E0012500BF00BF55B95F482030EC
:10189000006820F03000A16C08435C4920310860EA
:1018A00000E02E43208800F48050B0F5805F36D1F0
:1018B000E06DB0F5005F19D004DC50B1B0F5805F89
:1018C0001DD10DE0B0F5405F17D0B0F5804F16D1B7
:1018D00014E04E48006840F400304C49086010E0C5
:1018E0000021201D04F0E4F805460AE0002104F17F
:1018F000240004F075F9054603E002E001E001254B
:1019000000BF00BF55B941482430006820F4E040D2
:10191000E16D08433D492431086000E02E432088F2
:1019200000F40050B0F5005F34D1206EB0F5403FB8
:101930001DD007DC68B1B0F5803F0BD0B0F5003F9B
:1019400018D10DE0B0F5802F12D0B0F5A02F11D135
:101950000FE011E00121201D04F0AAF805460BE07C
:10196000012104F1240004F03BF9054604E003E002
:1019700002E001E0012500BF00BF55B92348243033
:10198000006820F4E020216E0843204924310860DB
:1019900000E02E43208800F48040B0F5804F38D11D
:1019A000D4F8AC00B0F1405F1DD007DC68B1B0F1F5
:1019B000805F0BD0B0F1005F18D10DE0B0F1804F27
:1019C00012D0B0F1A04F11D10FE011E00121201D84
:1019D00004F06EF805460BE0012104F1240004F048
:1019E000FFF8054604E003E002E001E0012500BF46
:1019F00000BF6DB905482C30006820F0E040D4F8F5
:101A0000AC10084301492C31086002E02C44025814
:101A10002E43208800F40040B0F5004F26D1E06E40
:101A200098B1B0F1805F03D0B0F1005F0ED106E055
:101A3000FA48006840F40030F849086008E00121E5
:101A4000201D04F035F8054602E001E0012500BF45
:101A500000BF55B9F1482430006820F04050E16ED5
:101A60000843EE492431086000E02E43206800F06E
:101A70008070B0F1807F27D1606CA0B1012804D0C4
:101A8000022809D003280FD10CE0E448006840F494
:101A90000030E249086009E00221201D04F008F846
:101AA000054603E002E001E0012500BF00BF55B993
:101AB000DA482030006820F00300616C0843D74901
:101AC0002031086000E02E43206800F48000B0F56B
:101AD000800F7DD1D248006840F48070D049086002
:101AE000FFF720FA074606E0FFF71CFAC01B642840
:101AF00001D9032505E0CA48006800F48070002879
:101B0000F2D000BF8DBBC5484430006800F440707F
:101B1000B4F8B01001F44071884214D0BF4844308A
:101B2000006820F44078BD484430006840F48030BC
:101B3000BA49443108600846006820F480300860E3
:101B40000846C0F80080D4F8B000B0F5807F15D109
:101B5000FFF7E8F9074609E0FFF7E4F9C01B41F297
:101B60008831884202D9032507E038E0AB48443089
:101B70000068C0F340000028EED000BF4DBB00BF9E
:101B8000B4F8B00000F44070B0F5407F0ED1A34827
:101B90001C38006820F47C51A24AD4F8B0001040F0
:101BA00041EA10109D491C39086007E09B481C3829
:101BB000006820F47C5099491C39086097484430EB
:101BC0000068B4F8B010C1F30B010843934901E079
:101BD00006E002E04431086002E02E4300E02E43BC
:101BE000207800F0010068B3A06F182819D005DC38
:101BF00048B1082808D0102816D10BE0202811D0B1
:101C0000282811D10FE011E00121201D03F050FF21
:101C100005460BE0012104F1240003F0E1FF054635
:101C200004E003E002E001E0012500BF00BF55B978
:101C30007A482830006820F03800A16F08437749BF
:101C40002831086000E02E43207800F002000228CE
:101C500028D1606F062815D2DFE800F003040A11CE
:101C6000121311E00121201D03F022FF05460BE0B5
:101C7000012104F1240003F0B3FF054604E003E072
:101C800002E001E0012500BF00BF55B963482830DC
:101C9000006820F00700616F084360492831086040
:101CA00000E02E43207800F0040004282AD1D4F864
:101CB0009000062815D2DFE800F003040A11121381
:101CC00011E00121201D03F0F3FE05460BE0012188
:101CD00004F1240003F084FF054604E003E002E081
:101CE00001E0012500BF00BF5DB94C482C30006801
:101CF00020F00700D4F89010084348492C310860C0
:101D000000E02E43207800F02000202836D1D4F8BF
:101D10008C00B0F1405F1DD007DC68B1B0F1805F8E
:101D20000BD0B0F1005F18D10DE0B0F1804F12D0B0
:101D3000B0F1A04F11D10FE011E00021201D03F000
:101D4000B7FE05460BE0022104F1240003F048FF32
:101D5000054604E003E002E001E0012500BF00BF0A
:101D60005DB92E482830006820F0E040D4F88C108F
:101D700008432A492831086000E02E43207800F00B
:101D80004000402836D1D4F89800B0F5406F1DD0FF
:101D900007DC68B1B0F5806F0BD0B0F5006F18D1DB
:101DA0000DE0B0F5805F12D0B0F5A05F11D10FE06B
:101DB00011E00021201D03F07BFE05460BE002210F
:101DC00004F1240003F00CFF054604E003E002E008
:101DD00001E0012500BF00BF5DB910482C3000684C
:101DE00020F4E050D4F8981008430C492C310860D6
:101DF00000E02E43207800F0800080283BD1D4F80A
:101E00009C00B0F5C04F24D00EDCA0B1B0F5005F4F
:101E100012D0B0F5804F1FD114E000002C440258BE
:101E200000480258FFFCFF0FB0F5004F12D0B0F58C
:101E3000204F11D10FE011E00021201D03F038FEEA
:101E400005460BE0022104F1240003F0C9FE05461B
:101E500004E003E002E001E0012500BF00BF4DB94E
:101E6000B248006820F46040D4F89C100843AF49A1
:101E7000086000E02E43207800F00800082816D102
:101E8000D4F88000B0F5805F06D1022104F124006F
:101E900003F0A6FE06430AE0A448001F006820F4F1
:101EA0004050D4F880100843A049091F08602078EA
:101EB00000F01000102814D1D4F89400B0F5807F01
:101EC00006D1022104F1240003F08AFE064308E053
:101ED0009648006820F44070D4F894100843934961
:101EE0000860206800F40020B0F5002F26D1D4F857
:101EF000A00030B1B0F5803F09D0B0F5003F0ED161
:101F00000CE00021201D03F0D3FD054609E002216D
:101F100004F1240003F064FE054602E001E001251F
:101F200000BF00BF4DB98148006820F44030D4F8AC
:101F3000A01008437D49086000E02E43206800F4AB
:101F40008020B0F5802F2DD1D4F88400B0F5801F0B
:101F500006D0B0F5001F0CD0B0F5401F11D10FE036
:101F600072482C38006840F4003070492C39086001
:101F700009E0012104F1240003F032FE054602E0ED
:101F800001E0012500BF00BF5DB96848001F00687F
:101F900020F44010D4F8841008436449091F0860F5
:101FA00000E02E43206800F48030B0F5803F24D15B
:101FB000E06C18B1B0F5803F0FD108E05B482C38D9
:101FC000006840F4003059492C39086007E00221CC
:101FD000201D03F06DFD054601E0012500BF00BF97
:101FE00055B952480C38006820F48030E16C084341
:101FF0004E490C39086000E02E43206800F0005084
:10200000B0F1005F05D1022104F1240003F0E8FDE6
:102010000643206800F40030B0F5003F27D1E06FA0
:10202000A0B1B0F5807F06D0B0F5007F0CD0B0F540
:10203000407F0CD109E03D482C38006840F4003066
:102040003A492C39086004E003E002E001E0012590
:1020500000BF00BF55B93548001F006820F440702C
:10206000E16F08433149091F086000E02E432068F2
:1020700000F48010B0F5801F09D12C4808380068A2
:1020800020F00040216F0843284908390860206883
:1020900000F08050B0F1805F0AD1244848380068D1
:1020A00020F48040D4F8B41008432049483908602F
:1020B000206800F40010B0F5001F09D11B48083853
:1020C000006820F08070A16E084318490839086044
:1020D000206800F08040B0F1804F11D100BF13485C
:1020E0004838006820F40040104948390860084624
:1020F0000068D4F8B81008430C494839086000BF9C
:10210000206800F00040B0F1004F09D107480C38BA
:10211000006820F04050216D084304490C390860E4
:1021200016B90020BDE8F0810120FBE758440258B1
:1021300070B504460D4600268D48006800F0070083
:10214000A8420ED28A48006820F007002843884938
:1021500008600846006800F00700A84201D001208E
:1021600070BD207800F00200022807D18148006885
:1021700020F00F00E16808437E490860207800F0F5
:102180000100002851D07B48006820F47060A168ED
:102190000843784908606068022807D175481838F4
:1021A0000068C0F34040F8B90120D9E7606803280F
:1021B00007D1704818380068C0F34060A0B901200A
:1021C000CEE76068012807D16A4818380068C0F374
:1021D000002048B90120C3E7664818380068C0F3FA
:1021E000800008B90120BBE762480838006820F089
:1021F0000700616808435F4908390860FEF792FEEE
:1022000006466068022811D108E0FEF78BFE801BAD
:1022100041F28831884201D90320A1E755480838A6
:10222000006800F038001028EFD13AE06068032819
:1022300011D108E0FEF776FE801B41F2883188421A
:1022400001D903208CE74B480838006800F03800BB
:102250001828EFD125E06068012811D108E0FEF7C9
:1022600061FE801B41F28831884201D9032077E763
:1022700040480838006800F038000828EFD110E026
:1022800008E0FEF74FFE801B41F28831884201D9F9
:10229000032065E737480838006800F03800002858
:1022A000EFD13348006800F00700A8420ED930484B
:1022B000006820F0070028432D49086008460068A0
:1022C00000F00700A84201D0012049E7207800F083
:1022D0000400042807D12748006820F07000216915
:1022E000084324490860207800F00800082809D134
:1022F0002048001D006820F07000616908431D49F6
:10230000091D0860207800F01000102809D1194834
:10231000001D006820F4E060A16908431549091D0B
:102320000860207800F02000202809D111480830EA
:10233000006820F07000E16908430E490831086028
:1023400000F066F80B49096801F470614FF480727F
:1023500092FAA2F2B2FA82F2D140074A515CC84026
:10236000064908600F20FEF7FDFD0020F8E600009A
:102370000020005218440258687A00080000002427
:1023800010B5FEF7DBFE0949096801F00F010122D3
:1023900092FAA2F2B2FA82F2D140054A515CC840E8
:1023A000044908600846006810BD0000184402583F
:1023B000687A00080400002410B5FFF7E1FF074920
:1023C000096801F07001102292FAA2F2B2FA82F2C8
:1023D000D140034A515CC84010BD00001C44025863
:1023E000687A000810B5FFF7CBFF0749096801F4C8
:1023F000E0614FF4807292FAA2F2B2FA82F2D14016
:10240000024A515CC84010BD1C440258687A00085A
:1024100070B5012500EE905A00220121002300240E
:10242000DFED861AB0EE610ADFED841AB0EE611AB4
:102430000020834D2D6805F0380535B1082D15D0E5
:10244000102D15D0182D7CD114E07D4D103D2D6838
:10245000C5F3401545B17A4D103D2D68C5F3C10651
:10246000784D25FA06F000E07648E5E07648E3E0AE
:102470007648E1E0724D18352D6805F00302704D85
:1024800018352D68C5F305116D4D1C352D6805F007
:1024900001036B4D24352D68C5F3CC0515FB03F501
:1024A00001EE905AF8EE611AB0EE610A22B1012AEB
:1024B0004FD0022A7DD16BE0614D103D2D68C5F3F0
:1024C00040152DB35E4D103D2D68C5F3C1065D4D21
:1024D00025FA06F4B4FBF1F501EE905AB8EE612A44
:1024E000DFED5B1AC0EE212A554D20352D68C5F36E
:1024F000080501EE905AF8EE611A72EEA11AF7EE95
:10250000002A71EEA21A62EE211AB0EE611A1FE0E3
:102510004C4DB5FBF1F501EE905AB8EE612ADFEDB6
:102520004C1AC0EE212A464D20352D68C5F308050A
:1025300001EE905AF8EE611A72EEA11AF7EE002A37
:1025400000E077E071EEA21A62EE211AB0EE611A95
:102550005EE03D4DB5FBF1F501EE905AB8EE612A13
:10256000DFED3B1AC0EE212A354D20352D68C5F32D
:10257000080501EE905AF8EE611A72EEA11AF7EE14
:10258000002A71EEA21A62EE211AB0EE611A3FE043
:102590002E4DB5FBF1F501EE905AB8EE612ADFED54
:1025A0002C1AC0EE212A264D20352D68C5F30805CA
:1025B00000E00EE001EE905AF8EE611A72EEA11AF8
:1025C000F7EE002A71EEA21A62EE211AB0EE611A3D
:1025D0001EE01D4DB5FBF1F501EE905AF8EE612AB3
:1025E000DFED1B1A80EE212A154D20352D68C5F32D
:1025F000080501EE905AF8EE611A72EE211AB7EE54
:10260000002A71EE821A62EEA11AB0EE611A00BFC2
:1026100000BF0B4D20352D68C5F346256D1C00EE1F
:10262000905AF8EE601A81EE212AFCEEC21A11EEE1
:10263000900A01E0044800BF00BF70BD0000000028
:10264000104402580090D00300093D0040787D01FD
:102650000000004670B504460025207800F0010017
:10266000002872D0F948006800F0380010280CD01B
:10267000F648006800F03800182812D1F3481830E6
:10268000006800F0030002280BD1F0481038006801
:10269000C0F3404000286DD0606800286AD1012056
:1026A00070BD00BF6068B0F5803F08D1E7481038C2
:1026B000006840F48030E549103908602EE0606819
:1026C00068B9E2481038006820F48030DF491039DA
:1026D00008600846006820F4802008601EE06068FA
:1026E000B0F5A02F0DD1D9481038006840F48020F3
:1026F000D649103908600846006840F48030086008
:102700000CE0D2481038006820F48030CF491039EE
:1027100008600846006820F48020086000BF6068F8
:10272000A0B1FEF7FFFB054608E0FEF7FBFB401BF0
:1027300041F28831884201D90320B1E7C3481038FB
:102740000068C0F340400028EFD013E0FEF7EAFB3A
:10275000054608E0FEF7E6FB401B41F2883188425F
:1027600001D903209CE7B94810380068C0F3404005
:102770000028EFD1207800F00200022847D1B348AA
:10278000006800F0380058B1B048006800F0380028
:1027900018283ED1AD481830006800F00300B8BBDF
:1027A000AA4810380068C0F3800018B1E06808B982
:1027B000012075E7A5481038006820F01900E1688D
:1027C0000843A24910390860FEF7ACFB054606E055
:1027D000FEF7A8FB401B022801D9032060E79B48B5
:1027E00010380068C0F380000028F1D097480C38FA
:1027F000006820F47C304FF47C3292FAA2F2B2FAF4
:1028000082F221699140084390490C3908604AE0FE
:10281000FFE7E06868B38D481038006820F01900C1
:10282000E1680843894910390860FEF77BFB0546DB
:1028300006E0FEF777FB401B022801D903202FE7B3
:10284000824810380068C0F380000028F1D07F482B
:102850000C38006820F47C304FF47C3292FAA2F2FB
:10286000B2FA82F221699140084378490C39086034
:1028700019E076481038006820F0010073491039DB
:102880000860FEF74FFB054606E0FEF74BFB401BDA
:10289000022801D9032003E76C4810380068C0F310
:1028A00080000028F1D1207800F01000102877D1A6
:1028B0006648006800F0380008280CD063480068BB
:1028C00000F03800182823D160481830006800F064
:1028D000030001281CD15D4810380068C0F30020B7
:1028E00020B1E069802801D00120D9E657480C3892
:1028F000006820F0F8404FF0F84292FAA2F2B2FAE3
:1029000082F2216A9140084350490C39086047E03F
:10291000E06958B34D481038006840F080004B49DA
:1029200010390860FEF7FEFA054606E0FEF7FAFAEF
:10293000401B022801D90320B2E644481038006841
:10294000C0F300200028F1D040480C38006820F087
:10295000F8404FF0F84292FAA2F2B2FA82F2216AFB
:102960009140084339490C39086019E0374810385C
:10297000006820F08000354910390860FEF7D2FA6F
:10298000054606E0FEF7CEFA401B022801D90320D7
:1029900086E62E4810380068C0F300200028F1D1E8
:1029A000207800F00800082836D16069D0B12748A7
:1029B0006430006840F00100244964310860FEF78B
:1029C000B1FA054606E0FEF7ADFA401B022801D930
:1029D000032065E61D4864300068C0F3400000280D
:1029E000F1D019E019486430006820F0010017495F
:1029F00064310860FEF796FA054606E0FEF792FAA3
:102A0000401B022801D903204AE6104864300068C0
:102A1000C0F340000028F1D1207800F020002028E9
:102A200034D1A069D8B109481038006840F480500A
:102A3000064910390860FEF775FA054608E0FEF70A
:102A400071FA401B022803D9032029E610440258DA
:102A5000AF480068C0F340300028F0D016E0AC4822
:102A6000006820F48050AA490860FEF75BFA05462A
:102A700006E0FEF757FA401B022801D903200FE6B3
:102A8000A3480068C0F340300028F2D1207800F05D
:102A9000040004287DD19F48006840F480709D495F
:102AA0000860FEF73FFA054606E0FEF73BFA401BDA
:102AB000642801D90320F3E59648006800F480708B
:102AC0000028F2D000BFA068012808D190487030DB
:102AD000006840F001008E49703108602DE0A06868
:102AE00068B98B487030006820F001008849703167
:102AF00008600846006820F0040008601DE0A06837
:102B000005280DD182487030006840F004008049EB
:102B1000703108600846006840F0010008600CE071
:102B20007B487030006820F00100794970310860FE
:102B30000846006820F00400086000BFA068A0B14B
:102B4000FEF7F0F9054608E0FEF7ECF9401B41F20C
:102B50008831884201D90320A2E56D4870300068B1
:102B6000C0F340000028EFD013E0FEF7DBF9054684
:102B700008E0FEF7D7F9401B41F28831884201D9BD
:102B800003208DE5624870300068C0F340000028E3
:102B9000EFD1606A00287CD05D481030006800F0FA
:102BA0003800182876D0606A022874D15848006826
:102BB00020F0807056490860FEF7B4F9054606E03B
:102BC000FEF7B0F9401B022801D9032068E5504800
:102BD0000068C0F340600028F2D100BFD4E90A10B9
:102BE00041EA00104A492831096840F2F332914322
:102BF0000843474928310860208E401EC0F3080072
:102C0000616B491E4FF47E4202EA41210843218F45
:102C1000491ED20102EA014108433C21095D491ED7
:102C2000120202EA0161084339493031086000BFED
:102C3000081D00684FF6F87188434FF6F87292FA53
:102C4000A2F2B2FA82F2A16C9140084330493431C9
:102C500008602F482C30006820F00C00216C0843DD
:102C60002B492C3108600846006820F00200616C96
:102C7000084327492C3108600846006840F480303A
:102C800008600846006840F40030086008460068A4
:102C900002E03BE038E01FE040F480200860084696
:102CA000006840F0010008601948006840F080703A
:102CB00017490860FEF736F9054606E0FEF732F9D7
:102CC000401B022801D90320EAE411480068C0F340
:102CD00040600028F2D019E00D48006820F08070B4
:102CE0000B490860FEF71EF9054606E0FEF71AF9E3
:102CF000401B022801D90320D2E405480068C0F334
:102D000040600028F2D101E00120C9E40020C7E4BE
:102D1000004402580048025870B5044600250026B9
:102D20000CB9012070BD606A00B900BFA06AB0F59F
:102D3000800F00D100BF8E49206888420CD08D4999
:102D40002068884208D08C492068884204D0E06816
:102D50000F2801D90120E5E7204603F099F806463F
:102D600083492068884209D082492068884205D07A
:102D700081492068884201D0082E0DD87C492068FE
:102D8000884207D07B492068884203D07A4920686E
:102D9000884203D1102E01D90120C3E7A06AB0F503
:102DA000800F1DD17249206888420DD0714920687A
:102DB000884209D070492068884205D0206BB0F560
:102DC000702F01D90120ADE7206B10B9A08905044F
:102DD00000E0256BE068B0EB154F01D90120A1E7B9
:102DE00094F8810028B9002084F88000204600F083
:102DF000C5F8022084F881002068006820F00100F6
:102E000021680860A069B0F1806F0BD16068B0F5EF
:102E1000800F07D1A06B28B92068006840F480506B
:102E200021680860A16AE06908432843E16B084310
:102E3000E168084321688860616A606B0843A16BA0
:102E40000843A16908432169084361690843216A6D
:102E5000084361680843E16C0843A1680843A16C1A
:102E60000843A16D08432168C860A06AB0F5800FCF
:102E70004DD1206C012806D12068006840F4004044
:102E80002168086005E02068006820F4004021689F
:102E90000860606C012806D12068006840F480401A
:102EA0002168086005E02068006820F480402168FF
:102EB00008602F49206888420AD02E49206888423D
:102EC00006D02D492068884202D0B5F5702F0ED06B
:102ED00027492068884207D026492068884203D0C5
:102EE00025492068884209D1B5F5F81F06D1206828
:102EF000006840F400502168086005E02068006820
:102F000020F40050216808602168E06A0864606865
:102F100088B9A06A38B92068806820F4C05040F4AD
:102F20000060216888602068806820F4C06040F4F8
:102F30008060216888602068006D20F001002168B1
:102F40000865606800F48000B0F5800F07D1206844
:102F5000C06820F00040616D08432168C86000200F
:102F6000C4F88400012084F881000020DAE6000023
:102F70000030014000380040003C004010B5B6B0C1
:102F80000446142131A8FDF7DBF9BC2102A8FDF7A6
:102F9000D7F91E492068884235D18014029000205C
:102FA000199002A8FEF728FB08B100BFFEE700BF9A
:102FB0001748006840F480401549086008460068DA
:102FC00000F48040019000BF00BF00BF10480838E7
:102FD000006840F002000E490839086008460068A1
:102FE00000F00200019000BF00BF4FF4604031903C
:102FF000022032900020339034900520359031A982
:103000000448FDF763FE36B010BD000000380040F4
:10301000E8440258000402582DE9F8430446884663
:1030200016461D460027B94600BF94F880000128C7
:1030300002D10220BDE8F883012084F8800000BF9F
:10304000FDF770FF074694F88100012808D04FF083
:10305000020900BF002084F8800000BF4846E9E76D
:10306000B8F1000F00D046B94FF0010900BF0020B1
:1030700084F8800000BF4846DCE703205C3484F815
:1030800025000020A062C4F80080A680E680A06031
:10309000A081E081A06160615C3CA068B0F5C02FB8
:1030A00005D12068006840F400602168086020684D
:1030B00040686FF30F003043216848602068006863
:1030C00040F00100216808606068B0F5800F05D10C
:1030D0002068006840F4007021680860E0680F28EC
:1030E00032D92CE02068406900F0020002280CD19F
:1030F000E06D006821680862E06D001DE065B4F8CD
:103100006200401EA4F8620019E035B1681CB0B13D
:10311000FDF708FFC01BA84211D3204602F03AFE7B
:1031200000BF002084F8800000BFD4F8840040F481
:103130008070C4F88400012084F881007AE7B4F834
:1031400062000028CED1A2E0E068072845D93FE020
:103150002068406900F0020002281FD1B4F8620024
:1031600001280ED9E06B60B1E06D0068216808624B
:10317000E06D001DE065B4F86200801EA4F86200F6
:1031800026E0E06D008821680884E06D801CE06521
:10319000B4F86200401EA4F8620019E035B1681C62
:1031A000B0B1FDF7BFFEC01BA84211D3204602F00C
:1031B000F1FD00BF002084F8800000BFD4F8840037
:1031C00040F48070C4F88400012084F8810031E765
:1031D000B4F862000028BBD159E054E0206840698F
:1031E00000F00200022834D1B4F8620003280FD99D
:1031F000E06B40280CD9E06D006821680862E06D42
:10320000001DE065B4F86200001FA4F862003AE017
:10321000B4F8620001280ED9E06B60B1E06D00885F
:1032200021680884E06D801CE065B4F86200801EAF
:10323000A4F8620027E0E06D0078216881F82000A2
:10324000E06D401CE065B4F86200401EA4F8620026
:1032500019E035B1681CB0B1FDF764FEC01BA8428F
:1032600011D3204602F096FD00BF002084F88000B4
:1032700000BFD4F8840040F48070C4F884000120BA
:1032800084F88100D6E6B4F862000028A6D13B4657
:10329000002208212046009502F007FE28B1D4F84C
:1032A000840040F02000C4F88400204602F072FD43
:1032B00000BF002084F8800000BF012084F8810056
:1032C000D4F8840008B10120B4E60020B2E62DE96C
:1032D000F84F0446884691461D460A9E0027BA4686
:1032E00000BF94F88000012802D10220BDE8F88FC9
:1032F000012084F8800000BFFDF714FE074694F813
:103300008100012812D06068B0F5800F05D1A06857
:1033100018B994F88100042808D04FF0020A00BFC1
:10332000002084F8800000BF5046DFE7B8F1000FAE
:1033300003D0B9F1000F00D045B94FF0010A00BF2A
:10334000002084F8800000BF5046CFE794F8810049
:10335000042802D0052084F881000020C4F88400ED
:10336000C4F86490A4F86A50A4F86850C4F85C806B
:10337000A4F86250A4F86050206760672068406835
:103380006FF30F002843216848602068006840F010
:103390000100216808606068B0F5800F05D12068E1
:1033A000006840F4007021680860E0680F284CD97C
:1033B00042E0B4F8620088B12068406900F0020081
:1033C00002280BD1E06D006821680862E06D001DE5
:1033D000E065B4F86200401EA4F86200B4F86A0028
:1033E00088B12068406948F20801084058B1206857
:1033F000006B616E0860606E001D6066B4F86A0064
:10340000401EA4F86A00701CB0B1FDF78BFDC01B14
:10341000B04211D3204602F0BDFC00BF002084F86A
:10342000800000BFD4F8840040F48070C4F88400A9
:10343000012084F8810059E7B4F862000028B8D16F
:10344000B4F86A000028B4D10FE1E068072871D908
:1034500066E0B4F8620020B32068406900F0020022
:1034600002281ED1B4F8620001280ED9E06B60B1C9
:10347000E06D006821680862E06D001DE065B4F849
:103480006200801EA4F862000BE0E06D00882168F5
:103490000884E06D801CE065B4F86200401EA4F86A
:1034A0006200B4F86A0010B32068406900F460401C
:1034B000E8B12068406900F4004060B12068006B0A
:1034C000616E0860606E001D6066B4F86A00801E60
:1034D000A4F86A000BE02068008E616E0880606EC0
:1034E000801C6066B4F86A00401EA4F86A00701C74
:1034F000B0B1FDF717FDC01BB04211D3204602F05A
:1035000049FC00BF002084F8800000BFD4F884008C
:1035100040F48070C4F88400012084F88100E5E65E
:10352000B4F86200002894D1B4F86A00002890D161
:103530009BE0FFE790E0B4F8620058B32068406970
:1035400000F00200022833D1B4F8620003280FD93A
:10355000E06B40280CD9E06D006821680862E06DDE
:10356000001DE065B4F86200001FA4F862001FE0CF
:10357000B4F8620001280ED9E06B60B1E06D0088FC
:1035800021680884E06D801CE065B4F86200801E4C
:10359000A4F862000CE0E06D0078216881F820005A
:1035A000E06D401CE065B4F86200401EA4F86200C3
:1035B000B4F86A0048B32068406900F4604020B362
:1035C0002068406900F4004060B12068006B616EC3
:1035D0000860606E001D6066B4F86A00001FA4F801
:1035E0006A0020E02068406900F4C040B0F5005F48
:1035F0000CD92068008E616E0880606E801C606649
:10360000B4F86A00801EA4F86A000CE0206890F804
:103610003000616E0870606E401C6066B4F86A002D
:10362000401EA4F86A00701CB0B1FDF77BFCC01B03
:10363000B04211D3204602F0ADFB00BF002084F859
:10364000800000BFD4F8840040F48070C4F8840087
:10365000012084F8810049E6B4F8620000287FF474
:103660006AAFB4F86A000028F9D13B46002208216D
:103670002046009602F019FC28B1D4F8840040F0EE
:103680002000C4F88400204602F084FB00BF002024
:1036900084F8800000BF012084F88100D4F8840001
:1036A00008B1012022E6002020E6000070B50446A3
:1036B0000E4615460CB9012070BD94F8450028B996
:1036C000002084F84400204600F024F804F10801AA
:1036D0002068FDF7C1F93146A2682068FDF7FCF9C2
:1036E0002946E36AD4E90102FDF792F9A16820684E
:1036F00050F8210040F00100A268216841F8220042
:103700000348006840F00040014908600020D3E70A
:103710000040005210B586B0044600BF344800682F
:1037200040F48050324908600846006800F4805038
:10373000009000BF00BF00BF2D480C30006840F073
:1037400008002B490C3108600846006800F00800AA
:10375000009000BF00BF00BF0846006840F01000A6
:1037600008600846006800F01000009000BF00BF2D
:1037700000BF1F48006840F480501D49086008469B
:10378000006800F48050009000BF00BF4FF400506C
:10379000019001200290002003900320049001A9D1
:1037A0001448FDF793FA4FF48050019001200290E5
:1037B000002003900320049001A90E48FDF786FA2B
:1037C0004CF6B37001900220029001200390032078
:1037D00004900C20059001A90648FDF777FA4FF6F2
:1037E0008070019001A90448FDF770FA06B010BD81
:1037F000D4440258000C025800100258042808D182
:103800004FF0E021096941F004014FF0E02211611D
:1038100007E04FF0E021096921F004014FF0E022B8
:103820001161704770B504462546681EB0F1807F6F
:1038300001D301200FE0681E4FF0E02148610F2105
:103840004FF0FF3003F0CCFA00204FF0E021886108
:1038500007200861002070BD7047704701460022B4
:10386000002391F8792091F87A3042EA03007047FA
:103870002DE9F04104462068C56920680768206882
:10388000866805F00F08B8F1000F0DD105F0200093
:1038900050B107F0200010B906F0805020B120464A
:1038A00002F0B9FCBDE8F081B8F1000F72D05D48BC
:1038B000304018B907F4907000287AD005F0010064
:1038C00048B107F4807030B1012021680862E06FD0
:1038D00040F00100E06705F0020048B106F0010089
:1038E00030B1022021680862E06F40F00400E06718
:1038F00005F0040048B106F0010030B10420216851
:103900000862E06F40F00200E06705F0080078B15F
:1039100007F0200028B906F0805010B906F0010029
:1039200030B1082021680862E06F40F00800E067CD
:10393000E06F70B305F0200040B107F0200010B92F
:1039400006F0805010B1204602F065FCE06F00F0F8
:10395000080020B92068806800F0400018B32046B5
:1039600002F039FC2068806800F04000B8B120689F
:10397000806820F0400021688860606F58B12A4854
:10398000616F0865606FFDF725F910B1606F016D1B
:1039900088470DE00DE02046FFF75FFF08E0204676
:1039A000FFF75BFF04E02046FFF757FF0020E067CA
:1039B00078E705F4801078B106F4800060B14FF428
:1039C000801021680862202084F8790084F87A0049
:1039D0002046FFF741FF65E705F0800048B107F09A
:1039E000800010B906F4000018B1204603F02AF94F
:1039F00058E705F0400030B107F0400018B120460C
:103A000002F0F9FB4EE705F4000040B107F08040FA
:103A100028B12068006820F080402168086000BF5D
:103A200040E7000001000010BF61000810B5044627
:103A30000CB9012010BDA06900B100E000BF94F8EE
:103A4000790028B9002084F87800204600F02AF890
:103A5000242084F879002068006820F001002168A3
:103A60000860204602F01CFC012800D1E2E7606BF0
:103A700010B1204602F0F4FA2068406820F490402B
:103A8000216848602068806820F02A0021688860EA
:103A90002068006840F0010021680860204602F0BC
:103AA00054FBC7E710B586B0044627492068884212
:103AB00048D100BF2548006840F001002349086054
:103AC0000846006800F00100009000BF00BF00BF82
:103AD0000846006840F0010008600846006800F0F1
:103AE0000100009000BF00BF00BF18481030006800
:103AF00040F010001549103108600846006800F0D9
:103B00001000009000BF00BF4FF400700190022031
:103B1000029001200390022004900720059001A943
:103B20000B48FDF7D3F84FF48060019001A90848D5
:103B3000FDF7CCF82520FDF7A0FA03221146252039
:103B4000FDF7ABFA06B010BD00100140E04402588A
:103B50000000025810B5034693F87A00202867D178
:103B600001B10AB9012010BD00BF93F87800012807
:103B700001D10220F7E7012083F8780000BF5966E1
:103B8000A3F86820A3F86A2000BF9868B0F5805FAA
:103B90000AD1186920B940F2FF10A3F86C001CE0AC
:103BA000FF20A3F86C0018E0986848B9186918B9A4
:103BB000FF20A3F86C0010E07F20A3F86C000CE05D
:103BC0009868B0F1805F08D1186918B97F20A3F810
:103BD0006C0002E03F20A3F86C0000BF0020D86713
:103BE000222083F87A0000BF002083F8780000BF0D
:103BF0001868806840F001001C68A06018680068C0
:103C000000F0005060B11868006840F480701C68D3
:103C100020601868806840F080501C68A06005E053
:103C20001868006840F490701C68206000209AE7D3
:103C3000022098E71D4A0168914236D11C49098843
:103C400001F4004189BB1A49098801F4804171B12E
:103C5000184909780A2903D00021154A118024E067
:103C60001349098841F40041114A11801DE01149AE
:103C700009780D2906D10E49098841F480410C4A82
:103C8000118012E00B490978094A1288C2F30D022B
:103C9000094B995406490988491C054A1180114667
:103CA0000988C72901DD00211180704700100140FB
:103CB000200000242200002490000024704700BF50
:103CC000FEE7000018B504460448009443880288C3
:103CD0000021084600F07CF918BD00008000002497
:103CE0008B490872032842D1898848F25252914286
:103CF0000ED14FF4A071864A1180F02151802C2101
:103D000051812A2191812B21D1816021D180FDE037
:103D10007F49898845F2084291420FD14FF4A07142
:103D20007B4A1180F02151802221518120219181F3
:103D30002121D18141F20801D180E7E074498988CD
:103D400045F210529142E2D14FF44871704A11800D
:103D50004FF4F07151804FF4305151814FF428519C
:103D600091814FF42C51D181A021D180CEE0042843
:103D700043D16749898848F2525291420ED14FF49B
:103D8000A071634A1180F02151802C2151812A2198
:103D900091812B21D181A021D180B7E05C49898814
:103DA00045F2084291420FD14FF4A071584A118058
:103DB000F021518022215181202191812121D18125
:103DC00041F23801D180A1E05149898845F2105271
:103DD00091429CD14FF448714D4A11804FF4F071DB
:103DE00051804FF4305151814FF4285191814FF45B
:103DF0002C51D1816021D18088E0012843D14449F0
:103E0000898848F2525291420ED1F021404A1180E5
:103E10004FF4A07151802C2151812A2191812B21B5
:103E2000D181C021D18071E03949898845F20842A9
:103E300091420FD1F021364A11804FF4A071518088
:103E400022215181202191812121D1814FF4815161
:103E5000D1805BE02E49898845F21052914255D1BC
:103E60004FF4F0712A4A11804FF4487151804FF499
:103E7000305151814FF4285191814FF42C51D1810F
:103E8000C021D18042E02249898848F252529142B1
:103E90000ED1F0211E4A11804FF4A07151802C21C7
:103EA00051812A2191812B21D1810021D1802DE0C6
:103EB0001749898845F2084291420FD1F021144AEE
:103EC00011804FF4A07151802221518120219181D4
:103ED0002121D18141F21001D18017E00C4989885C
:103EE00045F21052914211D14FF4F071084A1180FD
:103EF0004FF4487151804FF4305151814FF42851A3
:103F000091814FF42C51D1810021D1807047000064
:103F10008000002470B504460D4616462A48808865
:103F200048F25251884214D12749888901F046FD50
:103F3000201201F037FDE0B201F034FD2249C889BA
:103F400001F03CFD281201F02DFDE8B201F02AFD40
:103F500032E01D48808845F20841884206D101239D
:103F60001A462946204601F01BFB25E016488088AA
:103F700045F2105188421FD11349888901F01EFD76
:103F8000201201F00FFD10498989491C88B201F007
:103F900015FDE0B201F006FD0B49C88901F00EFDE8
:103FA000281201F0FFFC0849C989491C88B201F0B8
:103FB00005FDE8B201F0F6FC03484089034908809A
:103FC000891C0E8070BD000080000024FEFF01608F
:103FD0002DE9F84F04460D4616461F46DDF8289099
:103FE0000020009083462348808845F2084188429B
:103FF0001ED1781B83B2301B82B22946204601F0C5
:10400000CFFA01F0EDFC00BF05E01FFA89F001F0E6
:10401000E1FC0BF1010B781B311B48435845F4D8E8
:104020001448438802880021084601F0B9FA1EE0CE
:10403000301B401C80B20090A84616E04146204646
:1040400001F056FA01F0CCFC4FF0000A06E00A49F4
:10405000A1F800900AF101001FFA80FA0098824549
:10406000F5DB08F101001FFA80F8B845E6DDBDE890
:10407000F88F0000800000240000026000B58FB0BF
:10408000FD48FE490860FE48486000208860002125
:10409000FA48C16001611021416100218161C16163
:1040A00001624FF480514162002181624FF48041EE
:1040B000C1620021016341634FF4801181631020CC
:1040C0000890012009904D200A9000200E900520B4
:1040D000019001200290052003900020079001AA82
:1040E00008A9E648FFF7E2FA0A2003F0FBFA0022EB
:1040F0004FF40061E348FCF70FFF0A2003F0F2FAE7
:1041000001221103DF48FCF707FF0A2003F0EAFA57
:10411000042001F0E1F901F0D5F9DB49888001F0D4
:10412000D1F9D9498880084680884FF6FF7101EAA5
:104130000020D549888001F0C5F9D3498988084312
:10414000D14988800846808848F25251884248D038
:10415000002001F0C1F9CC4988800846808845F2EA
:10416000084188423DD04FF4704001F027FC5520B3
:1041700001F018FC4FF2010001F020FCAA2001F030
:1041800011FC4FF2020001F019FC522001F00AFC70
:104190004FF2030001F012FC082001F003FC4FF283
:1041A000040001F00BFC012001F0FCFB4FF4454042
:1041B00001F092F901F086F9B349888008468088B9
:1041C0004FF6FF7101EA0020AF4988804CF20150A0
:1041D00001F082F901F076F9AB4989880843AA49D0
:1041E0008880A948808848F2525188427ED11120A7
:1041F00001F0E4FB782003F075FA362001F0DEFBD5
:10420000002001F0CFFB3A2001F0D8FB052001F09F
:10421000C9FBB22001F0D2FB0C2001F0C3FB0C2043
:1042200001F0C0FB002001F0BDFB332001F0BAFB20
:10423000332001F0B7FBB72001F0C0FB352001F0BF
:10424000B1FBBB2001F0BAFB282001F0ABFBC02082
:1042500001F0B4FB2C2001F0A5FBC22001F0AEFB65
:10426000012001F09FFBC32001F0A8FB0B2001F00F
:1042700099FBC42001F0A2FB202001F093FBC62093
:1042800001F09CFB0F2001F08DFBD02001F096FB8C
:10429000A42001F087FBA12001F084FBE02001F0C5
:1042A0008DFBD02001F07EFB012001F07BFB08207C
:1042B00001F078FB0F2001F075FB112001F072FB7B
:1042C0002A2001F06FFB362001F06CFB552001F035
:1042D00069FB442001F066FB3A2001F063FB0B20F0
:1042E00001F060FB062001F05DFB00E04BE01120D7
:1042F00001F058FB202001F055FBE12001F05EFBAE
:10430000D02001F04FFB022001F04CFB072001F010
:1043100049FB0A2001F046FB0B2001F043FB18206B
:1043200001F040FB342001F03DFB432001F03AFB5B
:104330004A2001F037FB2B2001F034FB1B2001F059
:1043400031FB1C2001F02EFB222001F02BFB1F2053
:1043500001F028FB292001F031FB2C2001F02EFB7D
:104360000320FFF7BDFC362001F028FB4649C88832
:1043700001F018FB4448438802880021084601F0F8
:104380000FF901F082B84048808845F20841884220
:104390007CD14FF48071012001F02CFB4FF4E061DF
:1043A000022001F027FB41F23001032001F022FB43
:1043B0000021042001F01EFB40F20221082001F040
:1043C00019FB0021092001F015FB00210A2001F052
:1043D00011FB00210C2001F00DFB00210D2001F04C
:1043E00009FB00210F2001F005FB0021102001F046
:1043F00001FB0021112001F0FDFA0021122001F043
:10440000F9FA0021132001F0F5FAC82003F06AF947
:104410000721112001F0EEFA322003F063F941F296
:10442000B021102001F0E6FA322003F05BF940F2EF
:10443000BD11122001F0DEFA322003F053F94FF4DF
:10444000A051132001F0D6FA0E21292001F0D2FA52
:10445000322003F047F90021202001F0CBFA40F28E
:104460003F11212001F0C6FA40F60D31302001F055
:10447000C1FA41F623110AE0004000523400002442
:1044800004410052000C025880000024ACE03120AE
:1044900001F0B0FA41F62641322001F0ABFA42F2C7
:1044A0001C61332001F0A6FA42F21941342001F0D8
:1044B000A1FA40F60B51352001F09CFA41F20601B9
:1044C000362001F097FA4FF4C261372001F092FADA
:1044D00040F20671382001F08DFA4FF44171392015
:1044E00001F088FA40F605613A2001F083FA40F6BF
:1044F00001613B2001F07EFA4FF487713C2001F00E
:1045000079FA40F20E513D2001F074FA40F2034175
:104510003E2001F06FFA40F207613F2001F06AFA95
:104520000021502001F066FAEF21512001F062FADB
:104530000021522001F05EFA40F23F11532001F0B9
:1045400059FA4FF42741602001F054FA012161200B
:1045500001F050FA00216A2001F04CFA002180207D
:1045600001F048FA0021812001F044FA0021822064
:1045700001F040FA0021832001F03CFA0021842060
:1045800001F038FA0021852001F034FA1021902042
:1045900001F030FA0021922001F02CFA032193203F
:1045A00001F028FA4FF48871952001F023FA0021D8
:1045B000972001F01FFA0021982001F01BFA032038
:1045C000FFF78EFBFE48C188032001F013FA4FF479
:1045D0008971072001F00EFAF9484388028800210A
:1045E000084600F0DDFFCCE6F548808845F2105122
:1045F0008842F8D1322003F075F855214FF470400D
:1046000001F0F8F9AA214FF2010001F0F3F952216B
:104610004FF2020001F0EEF908214FF2030001F021
:10462000E9F901214FF2040001F0E4F986214BF68B
:10463000014001F0DFF96A214BF6024001F0DAF99E
:1046400086214BF6015001F0D5F96A214BF6025054
:1046500001F0D0F967214BF6016001F0CBF90021A0
:104660004FF4514001F0C6F95D214DF2011001F007
:10467000C1F900214DF2021001F0BCF96B214DF29D
:10468000031001F0B7F900214DF2041001F0B2F966
:1046900084214DF2051001F0ADF900214DF2061014
:1046A00001F0A8F99C214DF2071001F0A3F90021B7
:1046B0004DF2081001F09EF9B1214DF2091001F000
:1046C00099F900214DF20A1001F094F9D9214DF227
:1046D0000B1001F08FF900214DF20C1001F08AF956
:1046E000FD214DF20D1001F085F901214DF20E1062
:1046F00001F080F938214DF20F1001F07BF9012112
:104700004DF2101001F076F968214DF2111001F010
:1047100071F901214DF2121001F06CF9B9214DF23D
:10472000131001F067F901214DF2141001F062F944
:10473000FB214DF2151001F05DF902214DF216102A
:1047400001F058F963214DF2171001F053F90221DD
:104750004DF2181001F04EF9B9214DF2191001F087
:1047600049F902214DF21A1001F044F9BB214DF232
:104770001B1001F03FF903214DF21C1001F03AF932
:1047800003214DF21D1001F035F903214DF21E10E9
:1047900001F030F946214DF21F1001F02BF90321F1
:1047A0004DF2201001F026F969214DF2211001F09F
:1047B00021F903214DF2221001F01CF98F214DF255
:1047C000231001F017F903214DF2241001F012F922
:1047D000A4214DF2251001F00DF903214DF2261010
:1047E00001F008F9B9214DF2271001F003F9032176
:1047F0004DF2281001F0FEF8C7214DF2291001F00A
:10480000F9F803214DF22A1001F0F4F8C9214DF214
:104810002B1001F0EFF803214DF22C1001F0EAF813
:10482000CB214DF22D1001F0E5F803214DF22E10B1
:1048300001F0E0F8CB214DF22F1001F0DBF803215D
:104840004DF2301001F0D6F8CB214DF2311001F0CD
:10485000D1F803214DF2321001F0CCF8CC214DF209
:10486000331001F0C7F800214FF4524001F0C2F8B4
:104870005D214DF2012001F0BDF800214DF2022032
:1048800001F0B8F86B214DF2032001F0B3F80021DC
:104890004DF2042001F0AEF884214DF2052001F024
:1048A000A9F800214DF2062001F0A4F89C214DF258
:1048B000072001F09FF800214DF2082001F09AF83E
:1048C000B1214DF2092001F095F800214DF20A20A6
:1048D00001F090F8D9214DF20B2001F08BF8002166
:1048E0004DF20C2001F086F8FD214DF20D2001F073
:1048F00081F801214DF20E2001F07CF838214DF2B3
:104900000F2001F077F801214DF2102001F072F82C
:1049100068214DF2112001F06DF801214DF21220B5
:1049200001F068F8B9214DF2132001F063F801217C
:104930004DF2142001F05EF8FB214DF2152001F03C
:1049400059F802214DF2162001F054F863214DF27E
:10495000172001F04FF802214DF2182001F04AF81B
:10496000B9214DF2192001F045F802214DF21A202B
:1049700001F040F8BB214DF21B2001F03BF8032170
:104980004DF21C2001F036F803214DF21D2001F0FC
:1049900031F803214DF21E2001F02CF846214DF292
:1049A0001F2001F027F803214DF2202001F022F80A
:1049B00069214DF2212001F01DF8032102E00000E1
:1049C000800000244DF2222001F014F88F214DF2D6
:1049D000232001F00FF803214DF2242001F00AF802
:1049E000A4214DF2252001F005F803214DF22620E7
:1049F00001F000F8B9214DF2272000F0FBFF032160
:104A00004DF2282000F0F6FFC7214DF2292000F0DA
:104A1000F1FF03214DF22A2000F0ECFFC9214DF2F5
:104A20002B2000F0E7FF03214DF22C2000F0E2FFE5
:104A3000CB214DF22D2000F0DDFF03214DF22E2081
:104A400000F0D8FFCB214DF22F2000F0D3FF03213F
:104A50004DF2302000F0CEFFCB214DF2312000F09E
:104A6000C9FF03214DF2322000F0C4FFCC214DF2EA
:104A7000332000F0BFFF00214FF4534000F0BAFF95
:104A80005D214DF2013000F0B5FF00214DF2023002
:104A900000F0B0FF6B214DF2033000F0ABFF0021BE
:104AA0004DF2043000F0A6FF84214DF2053000F0F5
:104AB000A1FF00214DF2063000F09CFF9C214DF239
:104AC000073000F097FF00214DF2083000F092FF10
:104AD000B1214DF2093000F08DFF00214DF20A3076
:104AE00000F088FFD9214DF20B3000F083FF002148
:104AF0004DF20C3000F07EFFFD214DF20D3000F044
:104B000079FF01214DF20E3000F074FF38214DF293
:104B10000F3000F06FFF01214DF2103000F06AFFFE
:104B200068214DF2113000F065FF01214DF2123085
:104B300000F060FFB9214DF2133000F05BFF01215E
:104B40004DF2143000F056FFFB214DF2153000F00D
:104B500051FF02214DF2163000F04CFF63214DF25F
:104B6000173000F047FF02214DF2183000F042FFED
:104B7000B9214DF2193000F03DFF02214DF21A30FB
:104B800000F038FFBB214DF21B3000F033FF032152
:104B90004DF21C3000F02EFF03214DF21D3000F0CD
:104BA00029FF03214DF21E3000F024FF46214DF273
:104BB0001F3000F01FFF03214DF2203000F01AFFDC
:104BC00069214DF2213000F015FF03214DF2223012
:104BD00000F010FF8F214DF2233000F00BFF032176
:104BE0004DF2243000F006FFA4214DF2253000F0F4
:104BF00001FF03214DF2263000F0FCFEB9214DF2F9
:104C0000273000F0F7FE03214DF2283000F0F2FECD
:104C1000C7214DF2293000F0EDFE03214DF22A307C
:104C200000F0E8FEC9214DF22B3000F0E3FE032135
:104C30004DF22C3000F0DEFECB214DF22D3000F095
:104C4000D9FE03214DF22E3000F0D4FECB214DF2DF
:104C50002F3000F0CFFE03214DF2303000F0CAFEBD
:104C6000CB214DF2313000F0C5FE03214DF2323040
:104C700000F0C0FECC214DF2333000F0BBFE00212D
:104C80004FF4544000F0B6FE5D214DF2014000F0BB
:104C9000B1FE00214DF2024000F0ACFE6B214DF25E
:104CA000034000F0A7FE00214DF2044000F0A2FEF8
:104CB00084214DF2054000F09DFE00214DF206409A
:104CC00000F098FE9C214DF2074000F093FE002179
:104CD0004DF2084000F08EFEB1214DF2094000F087
:104CE00089FE00214DF20A4000F084FED9214DF2E8
:104CF0000B4000F07FFE00214DF20C4000F07AFEE8
:104D0000FD214DF20D4000F075FE01214DF20E40E7
:104D100000F070FE38214DF20F4000F06BFE0121D3
:104D20004DF2104000F066FE68214DF2114000F097
:104D300061FE01214DF2124000F05CFEB9214DF2FE
:104D4000134000F057FE01214DF2144000F052FED6
:104D5000FB214DF2154000F04DFE02214DF21640B0
:104D600000F048FE63214DF2174000F043FE02219F
:104D70004DF2184000F03EFEB9214DF2194000F00E
:104D800039FE02214DF21A4000F034FEBB214DF2F3
:104D90001B4000F02FFE03214DF21C4000F02AFEC4
:104DA00003214DF21D4000F025FE03214DF21E406F
:104DB00000F020FE46214DF21F4000F01BFE0321B3
:104DC0004DF2204000F016FE69214DF2214000F026
:104DD00011FE03214DF2224000F00CFE8F214DF216
:104DE000234000F007FE03214DF2244000F002FEB4
:104DF000A4214DF2254000F0FDFD03214DF2264097
:104E000000F0F8FDB9214DF2274000F0F3FD032139
:104E10004DF2284000F0EEFDC7214DF2294000F090
:104E2000E9FD03214DF22A4000F0E4FDC9214DF2D5
:104E30002B4000F0DFFD03214DF22C4000F0DAFDA5
:104E4000CB214DF22D4000F0D5FD03214DF22E4037
:104E500000F0D0FDCB214DF22F4000F0CBFD03211F
:104E60004DF2304000F0C6FDCB214DF2314000F054
:104E7000C1FD03214DF2324000F0BCFDCC214DF2CA
:104E8000334000F0B7FD00214FF4554000F0B2FD73
:104E90005D214DF2015000F0ADFD00214DF20250B8
:104EA00000F0A8FD6B214DF2035000F0A3FD00219E
:104EB0004DF2045000F09EFD84214DF2055000F0AB
:104EC00099FD00214DF2065000F094FD9C214DF219
:104ED000075000F08FFD00214DF2085000F08AFDD0
:104EE000B1214DF2095000F085FD00214DF20A502C
:104EF00000F080FDD9214DF20B5000F07BFD002128
:104F00004DF20C5000F076FDFD214DF20D5000F0F9
:104F100071FD01214DF20E5000F06CFD38214DF273
:104F20000F5000F067FD01214DF2105000F062FDBE
:104F300068214DF2115000F05DFD01214DF212503B
:104F400000F058FDB9214DF2135000F053FD01213E
:104F50004DF2145000F04EFDFB214DF2155000F0C3
:104F600049FD02214DF2165000F044FD63214DF23F
:104F7000175000F03FFD02214DF2185000F03AFDAD
:104F8000B9214DF2195000F035FD02214DF21A50B1
:104F900000F030FDBB214DF21B5000F02BFD032132
:104FA0004DF21C5000F026FD03214DF21D5000F083
:104FB00021FD03214DF21E5000F01CFD46214DF253
:104FC0001F5000F017FD03214DF2205000F012FD9C
:104FD00069214DF2215000F00DFD03214DF22250C8
:104FE00000F008FD8F214DF2235000F003FD032156
:104FF0004DF2245000F0FEFCA4214DF2255000F0AB
:10500000F9FC03214DF2265000F0F4FCB9214DF2D9
:10501000275000F0EFFC03214DF2285000F0EAFC8D
:10502000C7214DF2295000F0E5FC03214DF22A5032
:1050300000F0E0FCC9214DF22B5000F0DBFC032115
:105040004DF22C5000F0D6FCCB214DF22D5000F04B
:10505000D1FC03214DF22E5000F0CCFCCB214DF2BF
:105060002F5000F0C7FC03214DF2305000F0C2FC7D
:10507000CB214DF2315000F0BDFC03214DF23250F6
:1050800000F0B8FCCC214DF2335000F0B3FC00210D
:105090004FF4564000F0AEFC5D214DF2016000F08F
:1050A000A9FC00214DF2026000F0A4FC6B214DF23E
:1050B000036000F09FFC00214DF2046000F09AFCB8
:1050C00084214DF2056000F095FC00214DF2066050
:1050D00000F090FC9C214DF2076000F08BFC002159
:1050E0004DF2086000F086FCB1214DF2096000F03D
:1050F00081FC00214DF20A6000F07CFCD9214DF2C8
:105100000B6000F077FC00214DF20C6000F072FCA7
:10511000FD214DF20D6000F06DFC01214DF20E609D
:1051200000F068FC38214DF20F6000F063FC0121B3
:105130004DF2106000F05EFC68214DF2116000F04D
:1051400059FC01214DF2126000F054FCB9214DF2DE
:10515000136000F04FFC01214DF2146000F04AFC96
:10516000FB214DF2156000F045FC02214DF2166066
:1051700000F040FC63214DF2176000F03BFC02217F
:105180004DF2186000F036FCB9214DF2196000F0C4
:1051900031FC02214DF21A6000F02CFCBB214DF2D3
:1051A0001B6000F027FC03214DF21C6000F022FC84
:1051B00003214DF21D6000F01DFC03214DF21E6025
:1051C00000F018FC46214DF21F6000F013FC032193
:1051D0004DF2206000F00EFC69214DF2216000F0DC
:1051E00009FC03214DF2226000F004FC8F214DF2F6
:1051F000236000F0FFFB03214DF2246000F0FAFB76
:10520000A4214DF2256000F0F5FB03214DF226604C
:1052100000F0F0FBB9214DF2276000F0EBFB032119
:105220004DF2286000F0E6FBC7214DF2296000F046
:10523000E1FB03214DF22A6000F0DCFBC9214DF2B5
:105240002B6000F0D7FB03214DF22C6000F0D2FB65
:10525000CB214DF22D6000F0CDFB03214DF22E60ED
:1052600000F0C8FBCB214DF22F6000F0C3FB0321FF
:105270004DF2306000F0BEFBCB214DF2316000F00A
:10528000B9FB03214DF2326000F0B4FBCC214DF2AA
:10529000336000F0AFFB24214FF43A4000F0AAFB4A
:1052A00024214BF6012000F0A5FB24214BF602201F
:1052B00000F0A0FB24214FF4394000F09BFB242197
:1052C0004BF6011000F096FB24214BF6021000F083
:1052D00091FB55214FF4704000F08CFBAA214FF256
:1052E000010000F087FB52214FF2020000F082FB28
:1052F00008214FF2030000F07DFB00214FF2040073
:1053000000F078FBCC214FF4314000F073FB052115
:105310004FF43C4000F06EFB05214BF6014000F0DD
:1053200069FB05214BF6024000F064FB01214FF4BC
:10533000384000F05FFB03214BF6010000F05AFB00
:1053400003214BF6020000F055FB03214BF603004E
:1053500000F050FB07214BF6025000F04BFB3121CF
:105360004BF6035000F046FB07214BF6026000F0BD
:1053700041FB31214BF6036000F03CFB07214BF66B
:10538000027000F037FB31214BF6037000F032FB66
:10539000AA214FF47F4000F02DFB55214FF60170FC
:1053A00000F028FB25214FF6027000F023FB0121BD
:1053B0004FF6037000F01EFB11214FF2043000F095
:1053C00019FB10214FF2063000F014FB00214FF2C0
:1053D000083000F00FFB00214FF4545000F00AFB9E
:1053E00055214FF4685000F005FB00214FF4285080
:1053F00000F000FB002142F6012000F0FBFA012141
:1054000042F6022000F0F6FADF2142F6032000F017
:10541000F1FA00214FF42C5000F0ECFA002142F692
:10542000013000F0E7FA032142F6023000F0E2FA20
:105430001F2142F6033000F0DDFA4FF4885000F0EF
:10544000BDFA0A2002F04EF94FF4245000F0B6FAEB
:10545000052002F047F955214FF4685000F0CAFAD0
:1054600060214FF4585000F0C5FA0320FEF738FCD5
:105470001248C1884FF4585000F0BCFA0F484388D6
:1054800002880021084600F08BF80C48808845F21D
:105490001051884205D1012251030948FBF73CFD18
:1054A00005E000224FF400510548FBF735FD4FF6AB
:1054B000FF70FEF707FC0FB000BD00008000002465
:1054C000000C025808B5034800880090BDF80000A1
:1054D00008BD00000000026010B50446204600F040
:1054E0006DFA052002F00AF9FFF7ECFF10BD00008D
:1054F00030B504460D462948808848F2525188420A
:1055000014D12649888900F059FA201200F04AFA8D
:10551000E0B200F047FA2149C88900F04FFA28129A
:1055200000F040FAE8B200F03DFA36E01B4880880F
:1055300045F2084188420AD118498889214600F07D
:1055400059FA1649C889294600F054FA25E013484B
:10555000808845F2105188421FD11049888900F097
:105560002DFA201200F01EFA0C498989491C88B2D4
:1055700000F024FAE0B200F015FA0849C88900F0FA
:105580001DFA281200F00EFA0449C989491C88B294
:1055900000F014FAE8B200F005FA30BD80000024F3
:1055A0002DE9FC4F04460D46904699460026B2462A
:1055B0000027B3460020019000908A48808848F276
:1055C0005251884232D1264604EB0800401E1FFA91
:1055D00080FA2F4605EB0900401E1FFA80FB01965A
:1055E00000978049888900F0E9F9301200F0DAF973
:1055F000F0B200F0D7F94FEA2A2000F0D3F90AF010
:10560000FF0000F0CFF97749C88900F0D7F93812C8
:1056100000F0C8F9F8B200F0C5F94FEA2B2000F00D
:10562000C1F90BF0FF0000F0BDF9D5E06D488088AE
:1056300045F20841884273D16A48007A03281CD198
:1056400068484088401BA0EB090086B26548408846
:10565000401B401E1FFA80FA62480088001BA0EB26
:10566000080087B25F480088001B401E1FFA80FBBD
:10567000CDF804A0CDF800B040E05A48007A0428E4
:105680000ED12E4605EB0900401E1FFA80FA274670
:1056900004EB0800401E1FFA80FB019600972DE0E6
:1056A0005048007A012814D14E480088001BA0EB16
:1056B000080086B24B480088001B401E1FFA80FA83
:1056C0002F4605EB09001FFA80FBCDF804A00097D8
:1056D00014E0264604EB0800401E1FFA80FA4148F9
:1056E0004088401BA0EB090087B23E484088401B21
:1056F000401E1FFA80FB0196CDF800B031465020C5
:1057000000F078F95146512000F074F939465220E2
:1057100000F070F95946532000F06CF95CE0FFE7A7
:105720003048808845F21051884255D1264604EB16
:105730000800401E1FFA80FA2F4605EB0900401EA4
:105740001FFA80FB019600972649888900F036F9F8
:10575000301200F027F923498989491C88B200F0EA
:105760002DF9F0B200F01EF91E498989891C88B212
:1057700000F024F94FEA2A2000F014F91949898928
:10578000C91C88B200F01AF90AF0FF0000F00AF90B
:105790001449C88900F012F9381200F003F91149D0
:1057A000C989491C88B200F009F9F8B200F0FAF88A
:1057B0000C49C989891C88B200F000F94FEA2B20F6
:1057C00000F0F0F80749C989C91C88B200F0F6F862
:1057D0000BF0FF0000F0E6F8DDE90010FFF788FEAF
:1057E000BDE8FC8F800000242DE9F84F80460F466D
:1057F00016461C46BB462046E31704EB5373DB10EA
:1058000021464FEAE47C04EB5C7C4FEAEC0CA4EB11
:10581000CC0CBCF1000F02D04FF0010C01E04FF0B6
:10582000000C6344224604EBD27C4FEA6C0C03FB71
:105830000CF3DBB20093A6F12000C6B200255EE0B7
:105840000C2C07D106EB46002F4901EB800010F825
:1058500005901BE0102C05D12C4800EB061010F829
:10586000059013E0182C07D106EBC600284901EB80
:10587000800010F8059009E0202C05D1254800EBA8
:10588000C61010F8059001E0BDE8F88F4FF0000A4F
:105890002FE009F0800030B11F48394602684046C9
:1058A000FEF738FB07E00A9828B91C483946026819
:1058B0004046FEF72FFB4FEA49604FEA1069781C1B
:1058C00087B217484088B84200DCDDE7A7EB0B0041
:1058D000A0420AD15F4608F101001FFA80F8104883
:1058E0000088404500DCCFE706E00AF1010000F047
:1058F000FF0ABAF1080FCCDB00BF681CC5B20098E4
:1059000085429DDB00BFBFE7DE7A0008527F0008BA
:10591000428500089E920008180000241C00002404
:10592000800000242DE9F84705460E46904699462A
:10593000DDE9094705F0FF0A08EB05001FFA80F8CA
:1059400009EB06001FFA80F921E0454502DB5546C8
:10595000301986B24E4500DB1FE004EBD47105EB35
:1059600061010F4A1288914202DD0025301986B28A
:10597000002000903A78234631462846FFF734FF4E
:10598000204604EBD07105EB61018DB27F1C3878A5
:105990007E2802DC38782028D7DA00BFBDE8F887F7
:1059A0008000002401B5BDF800000090BDF80000A3
:1059B0000149088008BD00000000026001B5BDF883
:1059C00000000090BDF800000149088008BD0000FB
:1059D000FEFF01600149088070470000000002607E
:1059E0000248408902490880704700008000002476
:1059F000FEFF0160024A1080921C11807047000077
:105A0000FEFF016010B50020FAF7AAFF0120FAF7A7
:105A1000A7FF0220FAF7A4FF10BD1FB50120002246
:105A20000092CDE9012003231222510603900020A9
:105A300000F00CF8012000210091019103231922AC
:105A4000CDE90210590700F001F81FBD2DE9FF5FF5
:105A500004460D4616461F46DDE910ABDDE90E890A
:105A6000FBF7D4FA01208DF80000E0B28DF80100B8
:105A70000195F0B28DF8080000208DF809008DF82E
:105A80000A008DF80B708DF80C808DF80D908DF854
:105A90000EA08DF80FB06846FBF78AFA0420FBF7DA
:105AA000CBFABDE8FF9F00BFFEE7704770470000DC
:105AB0002DE9F04104460E4600274848006800F0F2
:105AC0000300032802D10120BDE8F08143482838B3
:105AD000006820F08060414928390860FBF722FA0D
