:020000040800F2
:10000000D809002071020008037900085F3A00084F
:10001000FF78000889170008098300080000000025
:10002000000000000000000000000000057C000847
:100030008D170008000000003D790008077C0008CB
:100040008B0200088B0200088B0200088B0200085C
:100050008B0200088B0200088B0200088B0200084C
:100060008B0200088B0200088B0200088B0200083C
:100070008B0200088B0200088B0200088B0200082C
:100080008B0200088B0200088B0200088B0200081C
:100090008B0200088B0200088B0200088B0200080C
:1000A0008B0200088B0200088B0200088B020008FC
:1000B0008B0200088B0200088B0200088B020008EC
:1000C0008B0200088B0200088B0200088B020008DC
:1000D0008B020008B98200088B0200088B0200081E
:1000E0008B0200088B0200088B0200088B020008BC
:1000F0008B0200088B0200088B0200088B020008AC
:100100008B0200088B0200088B0200088B0200089B
:100110008B0200088B0200082D7D00088B0200086E
:100120008B0200088B0200088B0200088B0200087B
:100130008B0200088B0200088B0200088B0200086B
:100140008B0200088B0200088B0200088B0200085B
:100150008B0200088B0200088B0200088B0200084B
:100160008B0200088B0200088B0200088B0200083B
:100170008B0200088B0200088B02000800000000C0
:100180008B0200088B0200088B0200088B0200081B
:100190008B0200088B0200088B0200088B0200080B
:1001A0008B0200088B0200088B02000800F002F8A6
:1001B00000F04FF80AA090E8000C82448344AAF1B2
:1001C0000107DA4501D100F044F8AFF2090EBAE8B0
:1001D0000F0013F0010F18BFFB1A43F0010318477B
:1001E00044D8000064D80000103A24BF78C878C111
:1001F000FAD8520724BF30C830C144BF04680C602D
:10020000704700000023002400250026103A28BF74
:1002100078C1FBD8520728BF30C148BF0B60704778
:10022000662908F0EA87782900F0B480732900F085
:100230006E84002070471FB508F0DAFF00F07EFCE6
:1002400004000020002108F0C1FBE0601FBD10B5D4
:1002500010BD00F077FD1146FFF7EDFF08F09EF8A6
:1002600000F095FD03B4FFF7F2FF03BC08F06DF852
:100270000948804709480047FEE7FEE7FEE7FEE73A
:10028000FEE7FEE7FEE7FEE7FEE7FEE70448054976
:10029000054A064B70470000C97C0008AD01000804
:1002A000D8030020D8090020D8050020D805002058
:1002B000704700000FB4044910B503AA029800F07B
:1002C0002BFC10BC5DF814FB340000200FB41CB5EF
:1002D000074B06AA7B4469460090059800F0EDFBA9
:1002E0000020694600F0FCFB1CBC5DF814FB00001C
:1002F0000908000070B5044685690068C10601D58B
:10030000302600E02026C00707D070BDD4E90121C7
:1003100030469047206A401C20626D1EF6D570BDA5
:1003200070B5044685690078C00707D170BDD4E96F
:10033000012120209047206A401C20626D1EF6D5C6
:1003400070BD70B50C460546012A05D02878800698
:1003500000D5EA69002302E0012305E05B1C93421B
:1003600002D2E05C0028F9D1A869E618C01AA86199
:10037000286A184428622846FFF7BCFF04E0D5E944
:10038000012114F8010B9047B442F8D32846FFF737
:10039000C7FF70BD70B504460D4621461068AFF327
:1003A00000802188090502D50F4A7A4402E00E4AEE
:1003B0007A440E32002104F1240305E000F00F0618
:1003C0000009965D5E54491C0028F7D1207800236F
:1003D000000704D5702D02D009B102231132204646
:1003E000BDE8704000F0FCB8A6D500002DE9F05F34
:1003F000894604464FF0000ADFF874B1FB44C0F8A8
:1004000020A02046E1688847002874D0252806D01F
:10041000D4E901219047206A401C2062F1E70026C0
:100420005F462046E16888472028054607DB312DD6
:1004300005D2781910F8200C08B10643F1E7B0078F
:1004400001D526F00406C4F81CA00027C4F818A0A3
:100450002A2D09D0284607F071FF38B304EB87082E
:10046000303DC8F8185019E059F8041B204604EB39
:1004700087029161E1688847012F054618D1E0693C
:10048000002820DA26F020061DE0D8F8180000EB3E
:10049000800005EB40003038C8F818002046E168BD
:1004A0008847054607F04AFF0028EED1012F0AD001
:1004B0002E2D08D12046E16888477F1C0546022F73
:1004C00046F02006C4DBA069002803DA404246F06B
:1004D0000106A061F00701D026F010066C2D0BD0AC
:1004E000682D09D04C2D39D06A2D35D0742D35D0DA
:1004F0007A2D33D016E038E0E1682F462046884751
:10050000B842054609D16C2F26D04FF48060E168CF
:10051000064320468847054604E06C2F1AD04FF466
:10052000807006430DB3A5F14100192802D820358B
:1005300046F400664A462946204626604E46FFF7A6
:100540006FFE80B101280BD0F61D26F0070000F1E8
:10055000080956E74020E4E78020D8E70020D6E7E6
:1005600006F104094DE7284652E7206ABDE8F09FEE
:100570007CD5000010B5203AC0F00B80B1E81850CF
:10058000203AA0E81850B1E81850A0E81850BFF47D
:10059000F5AF5FEA027C24BFB1E81850A0E818501C
:1005A00044BF18C918C0BDE810405FEA827C24BF70
:1005B00051F8043B40F8043B08BF7047D20728BFFE
:1005C00031F8023B48BF11F8012B28BF20F8023B4D
:1005D00048BF00F8012B704770477047704770475D
:1005E0002DE9F0470D4699469246044600F124084D
:1005F0000168880604D5E06921F01001216000E05F
:100600000120A84201DD471B00E00027A1697A19FB
:1006100002EB0900081AA0612078C00602D4204627
:10062000FFF768FE002608E0D4E901211AF8060069
:100630009047206A401C761C20624E45F4DB2078EF
:10064000C0060AD52046FFF755FE06E0D4E9012191
:1006500030209047206A401C2062381EA7F1010715
:10066000F4DC07E0D4E9012118F805009047206A7E
:10067000401C2062281EA5F10105F3DC2046FFF78F
:100680004FFE2078000602D50220BDE8F087012049
:10069000FBE770472DE9FF4F0C461E464FF0FF3732
:1006A0008BB0D2E90001DDF860800A908A46C1F380
:1006B0000A5505B93D46002108464FF00000BAF141
:1006C000000F00F4400005DA00EB80004FF4400119
:1006D00001EA50004FEA9059B9F1010F00DDB94627
:1006E0000A9850EA4A000ED044F61050A5F2FF35A1
:1006F00045432F14B8F1000F1ED07542291E1EDD90
:10070000C9F100021CE0B8F1010F4FF0000001D068
:10071000302103E0F24305E02154401CB042FBDBF2
:1007200030460022002121540B99C1F80880C1E90C
:1007300000200FB0BDE8F08FBD1B6D1CDEE74A4600
:1007400000DA694206A800F083FA06AB93E80700D6
:1007500003AB83E8070050460A9900F061FB8DE87F
:100760000700A0F500501F3800900398002D0ADD07
:1007700042F21F014A460844002303A90390684639
:1007800000F0CAFD09E0A0F500504A461F380023DA
:1007900003A90390684600F0D4FD8DE8070000042B
:1007A000000C03D04FF0FF30410800E01046B8F1D4
:1007B000000F03D00022009215461EE0751E05D4DE
:1007C00000F0C0F9303262556D1EF9D5B3460122F2
:1007D000084302D000227F1C04E02078302801D199
:1007E00000227F1E002A099784D01DE0112D07DA10
:1007F00000F0A8F9303262556D1C50EA0102F5D1C3
:10080000084302D00098C8B10EE00021681E05E040
:10081000235C625C63542254401E491C8142F7DB16
:10082000AB46A81B401E0990002004F80B000B9853
:10083000099AC0F80880C0E9002B7AE711264FF02A
:10084000000857E72DE9F04F88460446D21D22F0F4
:10085000070191B0D1E90001CDE90A0107F056FD89
:1008600002460B98C00F01D02D2007E020688107B9
:1008700001D52B2002E0202101EAC000032A0990C3
:1008800001D0072A05DB03464146204600F0A0F9C7
:100890000BE12078800601D5E06900E00620B8F180
:1008A000650F814606D0B8F1660F18D0B8F1670F12
:1008B00070D131E00020B9F1110F009001DB11235C
:1008C00001E009F101030AAA01A90CA8FFF7E2FE61
:1008D000DDE90C70002609F10105834647E001209F
:1008E0004B4600904FF000470AAA01A90CA8FFF759
:1008F000D1FEDDE90DB00C995D46002610B909F175
:1009000001000D18B9EB050003D4C0F1FF3609F161
:100910000105A5EB09002BE0B9F1010F01DA4FF059
:1009200001090020B9F1110F0090484601DD1123A3
:1009300000E003460AAA01A90CA8FFF7ABFEDDE917
:100940000C704D4600268346207800070AD4AB453C
:1009500000DA5D4601A8012D04DD411911F8011CE2
:10096000302907D04F4502DA17F1040F04DA0120CD
:1009700082460FE06D1EEEE7002F02DCED1B3E44C9
:1009800003E0781CA84200DD7D1CB81B00F1010AC1
:100990004FF000472078000703D4AA4501DB4FF051
:1009A000FF3A0021B7F1004F0DF143088DF84310D5
:1009B00024D002202B23002F01DA7F422D230A218D
:1009C000021EA0F1010000DC5FB197FBF1FC97FB78
:1009D000F1F201FB1C7C17460CF1300C08F801CD3C
:1009E000EEE7A8F1010003702188090501D5452132
:1009F00000E06521A0F1010800F8011C09980FA989
:100A0000A1EB0807FF1D00B10120411901EBEA70BD
:100A1000A1693844081A401EA0612078C00602D49B
:100A20002046FFF767FC099828B1D4E901219047D7
:100A3000206A401C20622078C00622D52046FFF79D
:100A400059FC1EE0002E04DBB34502DD01A8805DE9
:100A500000E03020D4E901219047206A401C206248
:100A6000761CAAF101005FEA000A0AD100F066F8DC
:100A7000C0680168405CD4E901219047206A401CAD
:100A80002062281EA5F10105DCDC07E0D4E9012184
:100A900018F8010B9047206A401C2062381EA7F10D
:100AA0000107F3DC2046FFF73BFC032011B041E6D1
:100AB00001694A1C02610878704700B58FB0CDE922
:100AC00001310021059105497944CDE90310114612
:100AD0006846FFF78BFC0FB000BD0000E5FFFFFF8D
:100AE0000A6802F8010B0A60704710B5436913B138
:100AF000AFF3008001E0FFF724FC012010BD127865
:100B000000F124010A7000224A700122EDE7116809
:100B10004FF0FF32E9E70000074B70B50D467B440C
:100B2000FFF7CBFF0446284600F004F910B14FF060
:100B3000FF3070BD204670BD5F78000000487047F0
:100B40009403002030B5B0F10A024FEA900E71F123
:100B500000034EEA817EB0EB0E0061EB91014FEA9B
:100B6000101E4EEA017E10EB0E0041EB11114FEA10
:100B7000102E4EEA016E10EB0E0041EB11214FEAF0
:100B8000104E4EEA014E10EB0E0041EB11414018A1
:100B900041F100014FEAD00040EA41704FEAD10133
:100BA00010EB80054FEA810444EA907444EB0104A1
:100BB0006D1944EB0404521BA3414FF0000348BFDE
:100BC0000A3200D530BD401C41F1000130BD0000AB
:100BD0002DE9F0411F46044603260168072A01F467
:100BE000006004DB08B116A505E016A503E008B116
:100BF00015A500E015A521F010002060A069C01E19
:100C0000A0610FB1401EA0612046FFF773FB4FB1FA
:100C1000D4E9012138469047206A401C2062C01C5C
:100C2000206206E0206AFAE7D4E9012115F8010BF9
:100C30009047761EF8D22046FFF772FBBDE8F081A0
:100C40004E414E006E616E00494E4600696E660070
:100C50002DE9F047814616468AB0354878440DC8DC
:100C60008DE80D0032487844801C03AC0DC884E840
:100C70000D0041F69B300844372190FBF1F290FBC8
:100C8000F1F5A5F1800501FB12041B3C02D564427D
:100C9000012000E00020DFF898A080460027FA44F9
:100CA000AAF1BE0A0EE0E0070AD03246684607EB1A
:100CB000470101230AEB810100F043FB8DE80700A7
:100CC00064107F1C002CEED1194F7F44AE3F19E019
:100CD000E80715D007EB04100DF1180A90E80E0094
:100CE0008AE80E00C068F04201D198190890324697
:100CF000012306A903A800F024FB03AB83E8070047
:100D00006D10641C002DE3D14FF00103324669469B
:100D1000B8F1000F03A802D000F0FEFA01E000F0E5
:100D200010FBC9E90001C9F808200AB0BDE8F08746
:100D3000ACCD0000007B00F0800070470048704799
:100D4000740300207546FFF7F9FFAE4605006946BB
:100D5000534620F00700854618B020B5FFF796FAF5
:100D6000BDE820404FF000064FF000074FF00008AC
:100D70004FF0000B21F00701AC46ACE8C009ACE82D
:100D8000C009ACE8C009ACE8C0098D46704710B591
:100D90000446AFF300802046BDE81040FFF762BA7A
:100DA0004FF0013C50F8042B51F8043B9A4221D1FA
:100DB000A2EB0C03934313EACC1317D150F8042B86
:100DC00051F8043B9A4215D1A2EB0C03934313EA6A
:100DD000CC130BD150F8042B51F8043B9A4209D1A3
:100DE000A2EB0C03934313EACC13DBD04FF00000CB
:100DF000704700BFD01A01BAB1FA81F101F01801B1
:100E000022FA01F0CB40C1F12001DBB2C0B2C01A1E
:100E10002CFA01F3D11A914311EAC311E6D17047BC
:100E20005FEA400C08BF91F0000F4FEA8C234FEAB5
:100E3000C12243EA51514FEA1C5018BF00F5F0405F
:100E40004FEA300018BF41F000415FEA6C5C00F0EF
:100E50002980BCF1FF3F08BF40F080407047130C71
:100E600006BF12044FF0100C4FF0000C130E04BF1D
:100E700012020CF1080C130F04BF12010CF1040C48
:100E8000930F04BF92000CF1020CD30F04BF520069
:100E90000CF1010C11464FF00002A0F11F00A0EB75
:100EA0000C00704711F0004F08BF704731F000414F
:100EB0003FF4D5AF0B0C06BF09044FF0100C4FF0F8
:100EC000000C0B0E04BF09020CF1080C0B0F04BF41
:100ED00009010CF1040C8B0F04BF89000CF1020C0A
:100EE000CB0F04BF49000CF1010CCCF12003A0EBA7
:100EF0000C0022FA03F302FA0CF241EA030100F1BA
:100F00000100704720F07F4C80EA030023F07F4708
:100F1000ACEB070303F57C5300F0004003F1FF0343
:100F20002DE980494FEA154B09B44FEA144325EAED
:100F30000B4E24EA03480FF2042606EB1327490858
:100F40003E785FEA320203FB0667C7F5000707FB3E
:100F500006F64FEA54374FEAD64606F1020607FB7B
:100F6000066CCCF1005C4FEA1C472CEA074C07FBEF
:100F700006F40CFB06F504EB15464FEA961634BF53
:100F800000204FF000404FEAD13706FB07FC4FEA44
:100F90001C4C0CFB0BF7D21B03FB0CF761EB07019E
:100FA0000CFB0EF7B0EB074072EB17420CFB08F797
:100FB00034BFA2EB0742B2EB074261EB17414FEAA5
:100FC0000C444FEA910706FB07FC4FEA1C4C0CFB54
:100FD0000BF7B0EBC74072EB573203FB0CF734BF93
:100FE000A2EBC742B2EBC74261EB57310CFB0EF7E5
:100FF000B0EBC70072EB57720CFB08F734BFA2EBE3
:10100000C702B2EBC70261EB5771039F4FEA8161E0
:1010100041EA921104EBCC044FEAD1374FEA8262E5
:1010200006FB07FC42EA90124FEA80604FEA1C4C34
:101030000CFB0BF7D21B03FB0CF761EB07010CFB5E
:101040000EF7B0EB074072EB17420CFB08F734BF0A
:10105000A2EB0742B2EB074261EB17414FEA8C5516
:101060004FEA910704EB9C2406FB07FC4FEA1C4C5B
:101070000CFB0BF7B0EBC74072EB573203FB0CF7DE
:1010800034BFA2EBC742B2EBC74261EB57310CFB56
:101090000EF7B0EBC70072EB57720CFB08F734BFCA
:1010A000A2EBC702B2EBC70261EB577115EB4C25FF
:1010B0004FEA816141EA92114FEA82624FEAD137E9
:1010C00042EA901206FB07FC44F100044FEA8060FC
:1010D0004FEA1C4C0CFB0BF7D21B03FB0CF761EB2C
:1010E00007010CFB0EF7B0EB074072EB17420CFB4D
:1010F00008F734BFA2EB0742B2EB074261EB17419E
:1011000015EB1C154FEA813141EA92414FEA8232D8
:1011100042EA90424FEA80304FEA0C7644F10004F4
:1011200048EA03434EEA0B484FF0000EB2EB080CBE
:1011300071EB030724BF624639464EEB0E0E4FF0AB
:10114000000B0018524149414BEB0B0BB2EB080C62
:1011500071EB03077BF1000B24BF624639464EEB6F
:101160000E0E4FF0000B0018524149414BEB0B0B98
:10117000B2EB080C71EB03077BF1000B24BF624656
:1011800039464EEB0E0E51EA020718BF46F0010633
:1011900016EB0E7655F1000254F1000103D5BDE8BF
:1011A0008901BDE80088BDE88901BDE80048B6199D
:1011B000524141EB0101A3F10103704780807F7E22
:1011C0007D7C7B7A797877767675747372717170BD
:1011D0006F6E6E6D6C6C6B6A6A696868676666656F
:1011E0006464636362616160605F5F5E5E5D5D5CFD
:1011F0005C5B5B5A5A59595858575756565555556E
:101200005454535352525251515050504F4F4F4ECD
:101210004E4D4D4D4C4C4C4B4B4B4A4A4A4949491B
:10122000484848474747474646464545454444445D
:10123000444343434342424242414141002B9C4686
:1012400030D477002BD01CB54FEA370703B44FF0EA
:1012500010004FF01001BAF1000F06D0BCF1000FE2
:10126000DCBF40F0080040F008014FF000000FBC68
:10127000BDE810400BF1010BBBF1010F08BF5FEAA5
:10128000170722BF12F1010211F101014FF00041D5
:1012900043F1000300F0004043EA00007047F9D337
:1012A0005708D0E746EA064613F1400F4FEA1646C4
:1012B0001FDD13F1200FDFBF16430A460021203344
:1012C0005B42BED0C3F1200746EA064602FA07F7A2
:1012D0004FEA164646EA0706C3F1200722FA03F250
:1012E00001FA07F721FA03F14FF0000342EA07027F
:1012F000A7E746EA020646EA06464FEA164646EAE7
:101300000106BCBF46EA0646360C4FF000034FF01C
:1013100000024FF0000194E72DE9804C9A46934675
:1013200070B491E8380007C831EA400C48BF34EA8D
:10133000430C03D5FFF7E6FDFFF780FFF0BCBDE8E7
:10134000008C2DE9804C9A46934670B491E83800A1
:1013500007C810F0804F08BF13F0804F03D100F092
:1013600005F8FFF76BFFF0BCBDE8008C20F07F476D
:1013700080EA030023F07F4C07EB0C03A3F57C53BA
:1013800000F00040A3F1FE0392F0000F00F0B380E4
:1013900095F0000F00F077802DE901494FEA1140E8
:1013A0004FEA144621EA004800FB06FC24EA0647FF
:1013B00008FB06F607FB08F800FB07F718EB0648E2
:1013C0004CEB164C4FEA124B18EB07484FEA154608
:1013D0004CEB174022EA0B4E0BFB06FC25EA0647B6
:1013E0000EFB06F607FB0EFE0BFB07F71EEB064E89
:1013F0004CEB164C4FF000061EEB074E4CEB174B18
:1014000018EB0B0840F1000018EB0E0B58EB00082E
:1014100040F100008F1A4FF000013CBFC943661B2A
:1014200014BFB5EB040C00213CBFC943F61B4FEAC7
:1014300017444EEA8E0E27EA04454FEA1C4704FB88
:1014400007622CEA074C05FB07F70CFB05F604FBCB
:101450000CFC16EB074642EB174216EB0C4642EB30
:101460001C421BEB060658EB0202414146EA9E066F
:1014700001D5BDE80189B619524141EB0101A3F143
:101480000103BDE801894FEA14454FEA114724EAF8
:10149000054621EA074C05FB07F406FB07F70CFBA2
:1014A00006F105FB0CFC11EB074144EB17444FEA36
:1014B000124711EB0C4144EB1C4422EA074C05FB9C
:1014C00007F206FB07F70CFB06F605FB0CFC16EB18
:1014D000074642EB174216EB0C4642EB1C456A18D6
:1014E00054F1000148BF7047B619524141EB010168
:1014F000A3F10103704795F0000F37D04FEA114276
:101500004FEA144721EA024624EA074C02FB07F19E
:1015100006FB07F70CFB06F402FB0CFC14EB07447C
:1015200041EB17414FEA154714EB0C4441EB1C41CA
:1015300025EA074C02FB07F506FB07F70CFB06F64E
:1015400002FB0CFC16EB074645EB174516EB0C4669
:1015500045EB1C42121951F1000148BF7047B61902
:10156000524141EB0101A3F1010370474FEA1445D9
:101570004FEA114724EA054621EA074C05FB07F12B
:1015800006FB07F70CFB06F24FF0000605FB0CFC10
:1015900012EB074241EB174112EB0C4251EB1C419D
:1015A00048BF7047921841EB0101A3F10103704756
:1015B00010B500F031FA06F043FA0022102122485B
:1015C00000F0AAFB022006F0CEFE012210211E48E8
:1015D00000F0A2FB002220211B4800F09DFB4FF4ED
:1015E000054000F033F8022006F0BDFE0121052081
:1015F00000F04CF80121062000F048F801210720F6
:1016000000F044F80121082000F040F801210920F1
:1016100000F03CF801210A2000F038F801210B20ED
:1016200000F034F801210C2000F030F800210220F5
:1016300000F02CF8FF21012000F028F84FF4404082
:1016400000F004F810BD00000008024038B5044660
:101650000020009020128DF80000E0B28DF801000B
:1016600000221021074800F057FB4FF6FF730222BB
:101670006946054801F0FAFC01221021014800F0FA
:101680004BFB38BD00000240E002002038B50546A3
:101690000C4600200090012000EB4500C0B28DF800
:1016A00000008DF8014000221021084800F034FBB2
:1016B0004FF6FF7302226946054801F0D7FC01226C
:1016C0001021024800F028FB38BD00000000024055
:1016D000E002002010B586B0044600BF7CB900BF10
:1016E000002000902548006840F00200234908606F
:1016F0000846006800F00200009000BF23E0012CC3
:101700000FD100BF002000901C48006840F020006E
:101710001A4908600846006800F02000009000BFE9
:1017200011E0022C0FD100BF002000901348006888
:1017300040F48070114908600846006800F4807029
:10174000009000BF00BF00BF0D4830F814000190AA
:10175000012002900390032004900A4951F82400CC
:1017600001A900F0C3F9064A32F81410054A52F8EC
:101770002400012200F0D0FA06B010BD303802403B
:10178000FE9100081400002000BFFEE77047000033
:1017900070B504461D460023B5F5804F13D154F8AB
:1017A00022300C480340D1E9000640EA06108E685A
:1017B00040EA06208E8940EA06408E6930430343A2
:1017C00044F8223003E06FF0704044F8220000201B
:1017D00070BD00000000F0CF10B50246002308687D
:1017E00052F8203018480340D1E901042043CC6866
:1017F00020430C6920434C6920438C692043CC6909
:1018000020430C6A20434C6A20438C6A2043CC6AF4
:101810002043CC6B20430C6B20434C6B2043034391
:101820008868082801D143F04003086842F8203056
:10183000486BB0F5801F05D1086818B110684C6B73
:1018400020431060002010BD8000E0FF30B503464B
:1018500014460022601C53F8202002F04042D1E9D7
:10186000000540EA05108D6840EA05208D8940EAB0
:101870000545088A401E45EA0055087D801E45EA58
:1018800000608D6928430243601C43F820201868DB
:1018900000F4801038B1586820F47002088A401EA5
:1018A00042EA00525A60002030BD30B502460023A3
:1018B00000240868012816D013686FF30E03D1E9DD
:1018C00001052843CD6828430D6928434D69284305
:1018D0008D692843CD6928430D6A28434D6A284302
:1018E0000343136019E013686FF30E03D1E9070592
:1018F00028434D6A2843034354686FF30E04D1E92B
:1019000001052843CD6828430D6928434D692843C4
:101910008D692843044313605460002030BD0246A3
:10192000506940EA4100506100207047F8B5064612
:101930000C461546002000900027D4E9000108431A
:10194000A168491E40EA4110E16840EA4120009048
:101950000098306100F0E6F9074609E0681C38B1EC
:1019600025B100F0DFF9C01BA84201D90320F8BD62
:10197000B06900F020000028F0D100BFF7E770B593
:101980000346154600220024012D1FD09A6802F05C
:1019900070420868401E4E68761E40EA0616886847
:1019A000401E46EA0026C868401E46EA0036088AFD
:1019B000401E46EA0046888A401E46EA0056087ED7
:1019C000401E46EA006002439A6022E0DA6802F0B4
:1019D00070420868401E4E68761E40EA0616886807
:1019E000401E46EA0026088A401E46EA0046087E57
:1019F000401E46EA006002439C6804F07044C868D8
:101A0000401E0603888A401E46EA00500443DA60FE
:101A10009C60002070BD000000B587B000BF0020B2
:101A200001901A48006840F0010018490860084613
:101A3000006800F00100019000BF00BF00BF00205F
:101A400001900846006840F00400086008460068FD
:101A500000F00400019000BF00BF1020029002209F
:101A6000059001200390049002A9094800F03EF877
:101A7000302002900220059001200390049002A9DA
:101A8000044800F033F807B000BD000030380240D1
:101A900000000240000802403EB505460C4600200A
:101AA00001902846FFF7D2FD00BF00BF00221021A1
:101AB0000C4800F031F94FF6FF70042302AA01A987
:101AC0000090094801F080FB01221021054800F038
:101AD00023F99DF80B009DF80A1040EA01202080B0
:101AE0003EBD000000000240E0020020F8B50246C2
:101AF0000B460025002400200021E6E0012606FA1E
:101B000001F51E6806EA0504AC4273D15E68022E38
:101B100002D05E68122E13D1CF0802F1200656F8CB
:101B200027004E07F70E0F26BE40B0434F07FF0EAB
:101B30001E69BE403043CF0802F1200646F8270058
:101B400010684F000326BE40B0431E7906F003061E
:101B50004F00BE40304310605E68012E08D05E68C2
:101B6000022E05D05E68112E02D05E68122E13D1AF
:101B700090684F000326BE40B0434F00DE68BE4071
:101B800030439060506801268E40B0431E79C6F302
:101B900000168E4030435060D0684F000326BE4090
:101BA000B0434F009E68BE403043D0605E6806F090
:101BB0008056B6F1805FA8D100BF00260096454E42
:101BC000366846F48046434F3E603E46366806F42B
:101BD0008046009600BF00BF3F4E8F0856F8270092
:101BE0008E07370F0F26BE40B0433C4EB24202D1A3
:101BF00000262EE068E03A4EB24201D1012628E0EC
:101C0000384EB24201D1022623E0374EB24201D112
:101C100003261EE0354EB24201D1042619E0344EAF
:101C2000B24201D1052614E0324EB24201D106265D
:101C30000FE0314EB24201D107260AE02F4EB242E8
:101C400001D1082605E02E4EB24201D1092600E05E
:101C50000A268F073F0FBE4030431F4E8F0846F8BD
:101C60002700284E3068A0435E6806F48036B6F53B
:101C7000803F00D12043234E3060361D3068A043A2
:101C80005E6806F40036B6F5003F00D120431D4ED5
:101C9000361D3060361D3068A0435E6806F480163D
:101CA000B6F5801F00D12043164E08363060361D31
:101CB0003068A0435E6806F40016B6F5001F00D138
:101CC0002043104E0C363060491C1029FFF416AF2B
:101CD000F8BD0000443802400838014000000240CE
:101CE0000004024000080240000C024000100240C4
:101CF0000014024000180240001C02400020024074
:101D000000240240003C0140024613690B400BB125
:101D1000012000E0002070470AB1816101E00B045E
:101D20008361704701480068704700003800002058
:101D300002480068401C01490860704738000020D4
:101D400010B50D48006840F400700B490860084663
:101D5000006840F4806008600846006840F48070C5
:101D60000860032000F098FA0F2000F007F800F058
:101D700047FA002010BD0000003C0240F0B587B0DB
:101D800005460026002700222946362000F046FAA4
:101D9000362000F036FA00BF002000901948006895
:101DA00040F01000174908600846006800F0100075
:101DB000009000BF00BF01A902A800F059FD059ED8
:101DC0001EB900F093FD044602E000F08FFD4400D0
:101DD0000D48B4FBF0F0471E0C480D49086040F276
:101DE000E7310B48C160476000210161816001F06B
:101DF0007FFB20B9064801F096FB07B0F0BD01203B
:101E0000FBE700004038024040420F000010004055
:101E10003803002070B504460E46154600BF94F8FE
:101E2000A000012801D1022070BD012084F8A0008B
:101E300000BF022084F8A10005EB850101EBC5027B
:101E400004F1380101EB820034223146FEF792FBA7
:101E50002A463146204604F025FA012021684862CE
:101E600084F8A10000BF002084F8A00000BF00BFDC
:101E7000DAE7000070B50446002500260CB9012001
:101E800070BD94F8A10028B9002084F8A000204675
:101E900000F084F8022084F8A1002068806920F016
:101EA000704021688861D4E901010843E168084372
:101EB000216908432168896908432168886120688D
:101EC00080683549084021688860A08A0504206838
:101ED0008068A16929430843216888602068C06838
:101EE0002D4908402168C860A08B05042068C0689F
:101EF000216A294308432168C8602068006926498F
:101F0000084021680861A08C050420680069A16A66
:101F10002943084321680861206840691E49084038
:101F200021684861A08D050420684069216B294320
:101F300008432168486194F83500050294F836009A
:101F400006042068C06A00F07F402168C86246EA43
:101F5000050094F8341008432168C96A08432168D1
:101F6000C8622068406B40F0040021684863206824
:101F7000406B40F00200216848632068806940F0AF
:101F80000100216888610020C4F8A400012084F8C1
:101F9000A100002074E7000000F800F010B586B042
:101FA000044600BF002000905748006840F0806061
:101FB000554908600846006800F08060009000BF46
:101FC00000BF00BF002000904F481438006840F464
:101FD00000004D49143908600846006800F400000C
:101FE000009000BF00BF00BF0020009008460068BE
:101FF00040F0020008600846006800F0020000900F
:1020000000BF00BF00BF002000900846006840F0FD
:10201000040008600846006800F00400009000BF5B
:1020200000BF00BF002000900846006840F020007C
:1020300008600846006800F02000009000BF00BF64
:1020400000BF002000900846006840F04000086093
:102050000846006800F04000009000BF00BF00BFCD
:10206000002000900846006840F0800008600846A4
:10207000006800F08000009000BF00BF00BF00209B
:1020800000900846006840F48070086008460068C8
:1020900000F48070009000BF00BF4020019001203C
:1020A000029003900320049001A91848FFF71EFD39
:1020B0004FF48060019002200290002003900320E2
:1020C00004900E20059001A91148FFF70FFD4FF471
:1020D0000C60019001A90F48FFF708FD4FF47E4006
:1020E000019001A90C48FFF701FD40F2F560019055
:1020F00001A90A48FFF7FAFC8020019001A90348D2
:10210000FFF7F4FC06B010BD44380240000802405E
:102110000014024000180240001C0240002002404F
:102120002DE9F04104460E461746984600BF94F844
:10213000A000012802D10220BDE8F081012084F82E
:10214000A00000BF022084F8A10008EB880000EB8B
:10215000C80104F1380000EB81052E60A86A304404
:102160006860AF60E86A3844E86042462946204625
:1021700004F098F801202168486284F8A10000BFAB
:10218000002084F8A00000BF00BFD5E72DE9F04192
:1021900005460E461746984600BF95F8A000012850
:1021A00002D10220BDE8F081012085F8A00000BF27
:1021B000022085F8A10008EB880000EBC80105F1BA
:1021C000380000EB8104002020602068304460600B
:1021D0000020A060A0683844E060A662E762424642
:1021E0002146284604F05EF801202968486285F8F7
:1021F000A10000BF002085F8A00000BF00BFD1E70C
:10220000704700BF00F01F02012191404209920077
:1022100002F1E022C2F8001100BF70472DE9F05F23
:1022200080460D461646002705F06CFB07463946EA
:102230002A46334601F00700C0F1070ABAF1040F3D
:1022400002D94FF0040A01E0C0F1070AD14600F1BB
:10225000040ABAF1070F02D24FF0000A01E0A0F120
:10226000030AD4464FF0010A0AFA09FAAAF1010A50
:102270000AEA020A0AFA0CFA4FF0010B0BFA0CFBFD
:10228000ABF1010B0BEA030B4AEA0B042146404673
:1022900005F040FBBDE8F09F00BF00F00702064BD1
:1022A00019684FF6FF031940044B0B4343EA022120
:1022B000014B196000BF70470CED00E00000FA050B
:1022C00038B5002400BF002000902348006840F08B
:1022D0008050214908600846006800F08050009056
:1022E00000BF00BF0120010491FAA1F1B1FA81F110
:1022F0001A4A42F82100FFF715FD044607E0FFF7F0
:1023000011FD001BB0F57A7F01D9032038BD1448B8
:10231000406800F48030B0F5803FF0D101204104E6
:1023200091FAA1F1B1FA81F10C4A42F82100FFF7CC
:10233000F9FC044607E0FFF7F5FC001BB0F57A7FD7
:1023400001D90320E2E70648406800F40030B0F508
:10235000003FF0D10020D9E74038024000000E4293
:1023600000700040F8B5044600250026207800F0F3
:10237000010020B9207800F00200022866D1002078
:10238000CC498866FFF7CEFC054606E0FFF7CAFC9D
:10239000401B022801D90320F8BDC7480068C0F3DC
:1023A000C0600028F2D1207800F0010098B147F613
:1023B000C07191FAA1F1B1FA81F1606888404FF0E3
:1023C000E04292FAA2F2B2FA82F2A1689140084386
:1023D000B94984310860207800F00200022821D138
:1023E000B5488430006800F0E0404FF0E04191FAD9
:1023F000A1F1B1FA81F120FA01F660688101207B38
:1024000041EA006040EA0670AB4984310860AA489E
:102410008C30006820F01F00E169491E0843A6497E
:102420008C3108600120A3498866FFF77BFC0546D4
:1024300006E0FFF777FC401B022801D90320ABE739
:102440009D480068C0F3C0600028F2D0207800F0FA
:102450000400042804D0207800F0080008287DD16A
:10246000002094490867FFF75DFC054606E0FFF78A
:1024700059FC401B022801D903208DE78E480068D3
:10248000C0F340700028F2D1207800F00400042846
:1024900034D189488830006800F0E0404FF0E041D6
:1024A00091FAA1F1B1FA81F120FA01F647F6C07173
:1024B00091FAA1F1B1FA81F1206988404FF0706280
:1024C00092FAA2F2B2FA82F26169914008434FF0A7
:1024D000E04191FAA1F1B1FA81F106FA01F1084364
:1024E000754988310860081D006820F4F851206A99
:1024F000401E41EA002070498C310860207800F0CD
:102500000800082834D16C488830006800F07060FA
:102510004FF0706191FAA1F1B1FA81F120FA01F660
:1025200047F6C07191FAA1F1B1FA81F120698840B2
:102530004FF0706191FAA1F1B1FA81F106FA01F15F
:1025400008434FF0E04292FAA2F2B2FA82F2A16995
:102550009140084358498831086000E01CE0081D9C
:10256000006820F44030616A084353498C310860A8
:10257000012050490867FFF7D5FB054606E0FFF745
:10258000D1FB401B022801D9032005E74A48006817
:10259000C0F340700028F2D0207800F020002028FE
:1025A0007DD100BF0020009043484030006840F0DB
:1025B00080504149403108600846006800F0805072
:1025C000009000BF00BF3D48006840F480703B4968
:1025D0000860FFF7A7FB054606E0FFF7A3FB401BDB
:1025E000022801D90320D7E63448006800F480703F
:1025F0000028F2D030487030006800F44070218D1F
:1026000001F4407188424AD02B487030006820F4B1
:10261000407601202A490860002008602648703072
:10262000066006F0020098B1FFF77CFB054608E063
:10263000FFF778FB401B41F28831884201D9032023
:10264000AAE61D4870300068C0F340000028EFD0B3
:1026500000BF208D00F44070B0F5407F0CD11648CB
:102660000830006820F4F810164AA16A11400843A7
:1026700011490831086007E00F480830006820F46D
:10268000F8100D49083108600B4870300068218D42
:10269000C1F30B01084308497031086000BF20787E
:1026A00000F01000102803D194F82C0006490860AF
:1026B000002071E6000047420038024000700040F0
:1026C000400E4742FFFCFF0FE011474270B5044641
:1026D0000D4600266448006800F00F00A84209D2A9
:1026E00061490D700846006800F00F00A84201D053
:1026F000012070BD207800F00200022807D15B485D
:10270000006820F0F000A16808435849086020786C
:1027100000F00100002877D06068012807D15348F5
:1027200008380068C0F34040B8B90120E1E76068AC
:10273000022802D06068032807D14C480838006896
:10274000C0F3406048B90120D3E748480838006822
:10275000C0F3400008B90120CBE74448006820F0EE
:1027600003006168084341490860FFF7DBFA064649
:102770006068012810D108E0FFF7D4FA801B41F20D
:102780008831884201D90320B3E73848006800F057
:102790000C000428F0D137E06068022810D108E06E
:1027A000FFF7C0FA801B41F28831884201D903202B
:1027B0009FE72E48006800F00C000828F0D123E0C5
:1027C0006068032810D108E0FFF7ACFA801B41F2E3
:1027D0008831884201D903208BE72448006800F043
:1027E0000C000328F0D10FE008E0FFF79BFA801BF4
:1027F00041F28831884201D903207AE71B480068FA
:1028000000F00C000028F0D11748006800F00F001D
:10281000A84209D914490D700846006800F00F005D
:10282000A84201D0012064E7207800F004000428C9
:1028300007D10E48006820F4E050E16808430B49D6
:102840000860207800F00800082808D107480068D0
:1028500020F46040216940EAC100044908600F206B
:10286000FFF78CFA002044E7003C024008380240A1
:102870000F2202600D4A126802F0030242600B4A06
:10288000126802F0F0028260084A126802F4E05214
:10289000C260064A126802F46042D2080261044A29
:1028A000126802F00F020A60704700000838024008
:1028B000003C024010B500F045F80949096801F0F4
:1028C000F001F02292FAA2F2B2FA82F2D140054A65
:1028D000515CC840044908600846006810BD00000B
:1028E0000838024044D900080000002010B5FFF766
:1028F000E1FF0749096801F4E0514FF4E05292FA10
:10290000A2F2B2FA82F2D140024A515CC84010BD34
:102910000838024044D9000810B5FFF7CBFF07493B
:10292000096801F460414FF4604292FAA2F2B2FAEF
:1029300082F2D140024A515CC84010BD08380240C2
:1029400044D9000870B50021002200230020274C44
:10295000246804F00C0424B1042C04D0082C41D1C8
:1029600003E0234840E023483EE0204C241F246835
:1029700004F03F011D4C241F246804F4800484B13A
:102980001C4CB4FBF1F5194C241F246847F6C076A3
:10299000344096FAA6F6B6FA86F6F44005FB04F241
:1029A0000FE0134CB4FBF1F5104C241F246847F6DC
:1029B000C076344096FAA6F6B6FA86F6F44005FBE1
:1029C00004F20A4C241F246804F440344FF44035C8
:1029D00095FAA5F5B5FA85F5EC40641C6300B2FBE9
:1029E000F3F001E0024800BF00BF70BD08380240AC
:1029F0000024F40040787D0138B504460025207895
:102A000000F00100002848D0DE48006800F00C000B
:102A100004280DD0DB48006800F00C00082811D114
:102A2000D848001F006800F48000B0F5800F09D17D
:102A3000D44808380068C0F3404070B3606860BB99
:102A4000012038BD2079CF49891F0870606890B196
:102A5000FFF768F9054606E0FFF764F9401B6428B4
:102A600001D90320EDE7C74808380068C0F34040AB
:102A70000028F1D011E0FFF755F9054606E0FFF711
:102A800051F9401B642801D90320DAE7BD48083812
:102A90000068C0F340400028F1D1207800F0020027
:102AA000022869D1B748006800F00C0058B1B54859
:102AB000006800F00C00082821D1B248001F00680F
:102AC00000F48000D8B9AF4808380068C0F340006F
:102AD00020B1E068012801D00120B2E7A9480838F8
:102AE000006820F0F800F82292FAA2F2B2FA82F21C
:102AF000216991400843A349083908603CE0E06837
:102B000028B30120A0490860FFF70CF9054606E04C
:102B1000FFF708F9401B022801D9032091E79948E3
:102B200008380068C0F340000028F1D09548083804
:102B3000006820F0F800F82292FAA2F2B2FA82F2CB
:102B40002169914008438F490839086014E000204A
:102B50008D490860FFF7E6F8054606E0FFF7E2F862
:102B6000401B022801D903206BE78648083800681B
:102B7000C0F340000028F1D1207800F008000828B8
:102B80002CD16069A8B1012080490860FFF7CAF81C
:102B9000054606E0FFF7C6F8401B022801D90320CE
:102BA0004FE778486C300068C0F340000028F1D04F
:102BB00014E0002075490860FFF7B4F8054606E008
:102BC000FFF7B0F8401B022801D9032039E76D4810
:102BD0006C300068C0F340000028F1D1207800F08C
:102BE0000400042857D100BF002000906548383009
:102BF000006840F08050634938310860084600683A
:102C000000F08050009000BF00BF6148006840F4B1
:102C100080705F490860FFF785F8054606E0FFF71A
:102C200081F8401B022801D903200AE758480068B0
:102C300000F480700028F2D0207A52496831087080
:102C4000A068A0B1FFF76EF8054608E0FFF76AF844
:102C5000401B41F28831884201D90320F1E64948FE
:102C600068300068C0F340000028EFD013E0FFF7A1
:102C700059F8054608E0FFF755F8401B41F2883146
:102C8000884201D90320DCE63E4868300068C0F382
:102C900040000028EFD1A069F0B33A48006800F086
:102CA0000C00082869D0A069022850D100203649BC
:102CB0000866FFF737F8054606E0FFF733F8401BD4
:102CC000022801D90320BCE62E4808380068C0F36A
:102CD00040600028F1D1D4E90701084347F6C072EB
:102CE00092FAA2F2B2FA82F2616A9140084301229A
:102CF000A16AC2EB51014FF4403292FAA2F2B2FA49
:102D000082F2914008434FF0706292FAA2F2B2FA56
:102D100082F2E16A914000E031E008431949091F5D
:102D20000860012018490866FEF7FCFF054606E02A
:102D3000FEF7F8FF401B022801D9032081E6114865
:102D400008380068C0F340600028F1D017E0002088
:102D50000D490866FEF7E6FF054606E0FEF7E2FFCE
:102D6000401B022801D903206BE60648083800689A
:102D7000C0F340600028F1D101E0012061E60020AD
:102D80005FE600000838024000004742800E4742DC
:102D90000070004070B504460D460CB9012070BDAE
:102DA00094F82C0028B9002084F82D00204600F06B
:102DB00011F8022084F82C00211D2068FEF775FD13
:102DC0002946D4E90002FEF7DAFD012084F82C0040
:102DD0000020E4E710B586B0044600BF0020009054
:102DE0004348006840F00100414908600846006817
:102DF00000F00100009000BF00BF00BF0020009065
:102E00003B480838006840F0080039490839086034
:102E10000846006800F00800009000BF00BF00BF37
:102E2000002000900846006840F010000860084646
:102E3000006800F01000009000BF00BF00BF00203D
:102E400000900846006840F02000086008460068CE
:102E500000F02000009000BF00BF00BF00200090E5
:102E60000846006840F0400008600846006800F02E
:102E70004000009000BF00BF00BF00200090084647
:102E8000006840F0800008600846006800F080009C
:102E9000009000BF00BF2C20019002200290012072
:102EA0000390032004900C20059001A91148FEF71F
:102EB0001DFE4CF20370019001A90F48FEF716FEAB
:102EC0004FF68370019001A90C48FEF70FFE4FF6F4
:102ED0003F00019001A90A48FEF708FE48F23710AA
:102EE000019001A90748FEF701FE06B010BD0000E1
:102EF00038380240001C0240000C02400010024022
:102F0000001402400018024070B504460D4694F8C3
:102F10002C00022800D170BD022084F82C00294624
:102F20002068FEF7FCFC012084F82C000020F2E76A
:102F300070B504460D46164694F82C00022800D1C0
:102F400070BD022084F82C00324629462068FEF726
:102F5000EDFC2868022803D1052084F82C0002E04B
:102F6000012084F82C000020EAE710B504460CB9D3
:102F7000012010BD606A00B900BF0021A16294F871
:102F8000510028B9002084F85000204600F034F8A1
:102F9000022084F851002068006820F04000216879
:102FA0000860D4E901010843E16808432169084346
:102FB00061690843218B01F400710843E16908430A
:102FC000216A0843A16A0843216808600421A069B6
:102FD00001EA1040616A0843216848602068C069BE
:102FE00020F400602168C86100206065012084F839
:102FF00051000020BDE7000010B586B0044600BFB8
:10300000002000901748006840F020001549086033
:103010000846006800F02000009000BF00BF00BF1D
:10302000002000900F481430006840F480100D49D3
:10303000143108600846006800F48010009000BF5A
:1030400000BF4FF4607001900220029001200390B5
:10305000032004900520059001A90348FEF746FDD2
:1030600006B010BD30380240001402402DE9F8438C
:1030700004460E4617461D464FF00008C14600BFE5
:1030800094F85000012802D10220BDE8F883012005
:1030900084F8500000BFFEF745FE804694F85100CA
:1030A000012802D04FF0020984E006B117B94FF0B1
:1030B00001097FE0032084F8510000206065266349
:1030C000A786E786A063A087E08760642064A06885
:1030D000B0F5004F05D12068006840F480402168B9
:1030E00008602068006800F04000402805D0206893
:1030F000006840F0400021680860E068B0F5006FAB
:103100001ED119E02068806800F00200022807D173
:1031100030882168C860B61CE08E401EE0860BE057
:103120003DB1681C40B1FEF7FDFDA0EB0800A842D0
:1031300002D34FF003093DE0E08E0028E2D11DE00C
:1031400019E02068806800F00200022807D130787A
:1031500021680873761CE08E401EE0860BE03DB1CE
:10316000681C40B1FEF7DEFDA0EB0800A84202D3C8
:103170004FF003091EE0E08E0028E2D142462946C6
:10318000204604F081FC18B1606D40F020006065BD
:10319000A06850B900BF002000902068C06800906F
:1031A00020688068009000BF00BF606D08B14FF0DC
:1031B000010900BF012084F8510000BF002084F8FD
:1031C000500000BF484660E72DE9F04704460D4631
:1031D00016461F46DDF820804FF00009CA4600BFA2
:1031E00094F85000012802D10220BDE8F0870120A8
:1031F00084F8500000BFFEF795FD814694F8510019
:1032000001280CD06068B0F5827F05D1A06818B99C
:1032100094F85100042802D04FF0020A94E00DB156
:1032200006B117B94FF0010A8EE094F85100012859
:1032300002D1052084F8510000206065A663E7876D
:10324000A7872563E786A7862064606420680068F6
:1032500000F04000402805D02068006840F04000A1
:1032600021680860E068B0F5006F30D128E0E08E9A
:1032700060B12068806800F00200022806D128882A
:103280002168C860AD1CE08E401EE086E08F58B11A
:103290002068806800F0010030B12068C06830808C
:1032A000B61CE08F401EE08708F1010040B1FEF738
:1032B00039FDA0EB0900404502D34FF0030A43E07B
:1032C000E08E0028D3D1E08F0028D0D12FE028E075
:1032D000E08E60B12068806800F00200022806D10C
:1032E00015F8010B21680873E08E401EE086E08F20
:1032F00058B12068806800F0010030B12068C068D3
:1033000006F8010BE08F401EE08708F1010040B194
:10331000FEF708FDA0EB0900404502D34FF0030A79
:1033200012E0E08E0028D3D1E08F0028D0D14A46A9
:103330004146204604F0A8FB28B1606D40F0200013
:1033400060654FF0010A00BF012084F8510000BF02
:10335000002084F8500000BF504646E770B5044690
:103360000E4615460CB9012070BD94F8490028B9E5
:10337000002084F84800204600F01CF804F1080101
:103380002068FEF729FA3146A2682068FEF75EFA47
:103390002946236BD4E90102FEF7FAF9A1682068F7
:1033A00050F8210040F00100A268216841F8220095
:1033B0000020D9E710B586B0044600BF0020009079
:1033C0004548006840F0010043490860084600682D
:1033D00000F00100009000BF00BF00BF002000907F
:1033E0003D480838006840F002003B490839086051
:1033F0000846006800F00200009000BF00BF00BF58
:10340000002000900846006840F008000860084668
:10341000006800F00800009000BF00BF00BF00205F
:1034200000900846006840F01000086008460068F8
:1034300000F01000009000BF00BF00BF002000900F
:103440000846006840F0800008600846006800F008
:103450008000009000BF00BF00BF002000901E4809
:10346000006840F001001C4908600846006800F050
:103470000100009000BF00BF88150190012002905C
:10348000002003900320049001A91448FEF72EFBAE
:10349000102001900120029000200390032004904E
:1034A00001A90F48FEF722FB4CF6B37001900220F1
:1034B000029001200390032004900C20059001A9A4
:1034C0000848FEF713FB4FF68070019001A90648EB
:1034D000FEF70CFB06B010BD383802400004024075
:1034E000001C0240000C0240001002407047704770
:1034F00010B504460CB9012010BD94F8390028B964
:10350000002084F83800204600F00CF8022084F8EF
:103510003900211D206804F011FC012084F83900D5
:103520000020E9E7704701460868C06840F00100E4
:103530000A68D0600868006840F001000A681060FE
:1035400000207047704710B5044620680069C0F33A
:103550004000D8B12068C068C0F34000B0B16FF03F
:10356000020021680861012020762068806900F04F
:10357000030018B12046FFF7E5FF05E0204600F004
:10358000ADF8204600F0ABF80020207620680069F6
:10359000C0F38000D8B12068C068C0F38000B0B12B
:1035A0006FF004002168086102202076206880699D
:1035B00000F4407018B12046FFF7C4FF05E0204634
:1035C00000F08CF8204600F08AF800202076206871
:1035D0000069C0F3C000D8B12068C068C0F3C00063
:1035E000B0B16FF0080021680861042020762068DF
:1035F000C06900F0030018B12046FFF7A3FF05E003
:10360000204600F06BF8204600F069F80020207694
:1036100020680069C0F30010D8B12068C068C0F30A
:103620000010B0B16FF0100021680861082020760A
:103630002068C06900F4407018B12046FFF782FF8F
:1036400005E0204600F04AF8204600F048F8002047
:1036500020762068006900F0010058B12068C06839
:1036600000F0010030B16FF00100216808612046D0
:1036700000F036F820680069C0F3C01058B1206827
:10368000C068C0F3C01030B16FF0800021680861DD
:103690002046FFF72BFF20680069C0F3801058B167
:1036A0002068C068C0F3801030B16FF0400021681E
:1036B0000861204600F019F820680069C0F3401046
:1036C00058B12068C068C0F3401030B16FF02000DE
:1036D000216808612046FFF70AFF10BD7047704758
:1036E00010B50446FEF724FB10BD70477047014635
:1036F0000022002391F8392091F83A3042EA030081
:103700007047F8B50446002500262068006800F0E0
:1037100001052068C06800F480767DB176B100BFF5
:1037200000200090206800680090206840680090A9
:1037300000BF00BFE06B40F00100E063206800685C
:10374000C0F340052068406900F001067DB176B104
:1037500000BF00200090206800680090206840684A
:10376000009000BF00BFE06B40F00400E063206801
:103770000068C0F380052068406900F001067DB153
:1037800076B100BF0020009020680068009020689B
:103790004068009000BF00BFE06B40F00200E063B3
:1037A00020680068C0F3C0052068406900F0010689
:1037B0007DB176B100BF00200090206800680090C5
:1037C00020684068009000BF00BFE06B40F0080038
:1037D000E06320680068C0F340152068C06800F00E
:1037E00020061DB116B1204604F02AFB20680068AF
:1037F000C0F3C0152068C06800F080061DB116B186
:10380000204604F025FD20680068C0F3801520687C
:10381000C06800F040061DB116B1204604F000FB60
:10382000E06B38B1202084F8390084F83A00204653
:10383000FFF75CFFF8BD10B504460CB9012010BDC0
:10384000A06900B100E000BF94F8390028B9002059
:1038500084F83800204600F027F8242084F8390046
:103860002068C06820F400502168C860204604F039
:103870003BFB2068006920F49040216808612068C3
:10388000406920F02A00216848612068C06840F43F
:1038900000502168C8600020E063202084F83900CF
:1038A00084F83A000020CAE710B586B004462A49D9
:1038B000206888424DD100BF002000902748006852
:1038C00040F00100254908600846006800F001004A
:1038D000009000BF00BF00BF0020009008460068B5
:1038E00040F0010008600846006800F00100009008
:1038F00000BF00BF00BF00200090184814300068CF
:1039000040F010001549143108600846006800F0C6
:103910001000009000BF00BF4815019002200290E7
:1039200001200390022004900720059001A90C4873
:10393000FEF7DCF84FF48060019001A90848FEF71B
:10394000D5F82520FEF75DFC032211462520FEF761
:1039500065FC06B010BD0000001001403038024088
:103960000000024010B5034693F83A0020282FD1FA
:1039700001B10AB9012010BD00BF93F83800012839
:1039800001D10220F7E7012083F8380000BF9962D7
:103990009A85DA850020D863222083F83A001868D7
:1039A000C06840F480701C68E0601868406940F0AE
:1039B00001001C68606100BF002083F8380000BF70
:1039C0001868C06840F020001C68E0600020D2E762
:1039D0000220D0E71D4A0168914236D11C4909886E
:1039E00001F4004189BB1A49098801F4804171B191
:1039F000184909780A2903D00021154A118024E0CA
:103A00001349098841F40041114A11801DE0114910
:103A100009780D2906D10E49098841F480410C4AE4
:103A2000118012E00B490978094A1288C2F30D028D
:103A3000094B995406490988491C054A11801146C9
:103A40000988C72901DD002111807047001001405D
:103A50003000002032000020D8010020704700BF55
:103A6000FEE7000038B504460748006818B1204654
:103A700001F088FF07E00548009443880288002190
:103A8000084600F089F938BD840100208C00002030
:103A90008B490872032842D1898848F252529142D8
:103AA0000ED14FF4A071864A1180F02151802C2153
:103AB00051812A2191812B21D1816021D180FDE08A
:103AC0007F49898845F2084291420FD14FF4A07195
:103AD0007B4A1180F0215180222151812021918146
:103AE0002121D18141F20801D180E7E07449898820
:103AF00045F210529142E2D14FF44871704A118060
:103B00004FF4F07151804FF4305151814FF42851EE
:103B100091814FF42C51D181A021D180CEE0042895
:103B200043D16749898848F2525291420ED14FF4ED
:103B3000A071634A1180F02151802C2151812A21EA
:103B400091812B21D181A021D180B7E05C49898866
:103B500045F2084291420FD14FF4A071584A1180AA
:103B6000F021518022215181202191812121D18177
:103B700041F23801D180A1E05149898845F21052C3
:103B800091429CD14FF448714D4A11804FF4F0712D
:103B900051804FF4305151814FF4285191814FF4AD
:103BA0002C51D1816021D18088E0012843D1444942
:103BB000898848F2525291420ED1F021404A118038
:103BC0004FF4A07151802C2151812A2191812B2108
:103BD000D181C021D18071E03949898845F20842FC
:103BE00091420FD1F021364A11804FF4A0715180DB
:103BF00022215181202191812121D1814FF48151B4
:103C0000D1805BE02E49898845F21052914255D10E
:103C10004FF4F0712A4A11804FF4487151804FF4EB
:103C2000305151814FF4285191814FF42C51D18161
:103C3000C021D18042E02249898848F25252914203
:103C40000ED1F0211E4A11804FF4A07151802C2119
:103C500051812A2191812B21D1810021D1802DE018
:103C60001749898845F2084291420FD1F021144A40
:103C700011804FF4A0715180222151812021918126
:103C80002121D18141F21001D18017E00C498988AE
:103C900045F21052914211D14FF4F071084A11804F
:103CA0004FF4487151804FF4305151814FF42851F5
:103CB00091814FF42C51D1810021D18070470000B7
:103CC0008C00002070B504460D4616462F4800684B
:103CD00028B132462946204601F0A8FE70BD2C4886
:103CE000808848F25251884214D12949888901F0CC
:103CF000F7FD201201F0E8FDE0B201F0E5FD2449F6
:103D0000C88901F0EDFD281201F0DEFDE8B201F0F6
:103D1000DBFD32E01E48808845F20841884206D12A
:103D200001231A462946204601F0CCFB25E018481D
:103D3000808845F2105188421FD11549888901F0C9
:103D4000CFFD201201F0C0FD11498989491C88B2BC
:103D500001F0C6FDE0B201F0B7FD0D49C88901F0E0
:103D6000BFFD281201F0B0FD0949C989491C88B27C
:103D700001F0B6FDE8B201F0A7FD0548408905490C
:103D80000880891C0E8000BFA8E700008401002085
:103D90008C000020FEFF01602DE9FC5F04460D460B
:103DA00016461F46DDF830900020019083462948D2
:103DB000006840B13B46324629462046CDF8009087
:103DC00001F002FF44E02448808845F2084188421F
:103DD0001FD1781B83B2301B82B22946204601F0E6
:103DE00071FB01F0B5FD4FF0000B05E01FFA89F003
:103DF00001F0A8FD0BF1010B781B311B484358451E
:103E0000F4D81548438802880021084601F05AFB7F
:103E10001EE0301B401C80B20190A84616E04146CF
:103E2000204601F0F7FA01F093FD4FF0000A06E09A
:103E30000A49A1F800900AF101001FFA80FA0198DE
:103E40008245F5DB08F101001FFA80F8B845E6DD90
:103E5000BDE8FC9F840100208C000020000002606F
:103E600000B587B000BF002001902448006840F0F2
:103E70000100224908600846006800F00100019036
:103E800000BF00BF00BF002001900846006840F05E
:103E9000040008600846006800F00400019000BFBC
:103EA00000BF07200290012003900490032005909A
:103EB00002A91348FDF71AFE4420029002A91148F6
:103EC000FDF714FE012211460D48FDF725FF0122E2
:103ED00002210B48FDF720FF012204210848FDF7CD
:103EE0001BFF012204210748FDF716FF0022402195
:103EF0000448FDF711FF07B000BD00003038024054
:103F0000000002400008024000B595B000BF00204C
:103F10000190FE48006840F00200FC490860084635
:103F2000006800F00200019000BF00BF00BF002049
:103F300001900846006840F00400086008460068E8
:103F400000F00400019000BF00BF4020029000205C
:103F50000390022004900320059002A9EC48FDF78D
:103F6000C5FD4FF48070029002A9EA48FDF7BEFD3E
:103F70004FF48071E748FDF7C7FE88B94021E44857
:103F8000FDF7C2FE20B14FF40040E349888003E012
:103F900047F21600E049888001F0C4FF01F01EBA24
:103FA0004FF02040DD490860DD484860002088600F
:103FB0000021DA48C1600161102141610021816165
:103FC000C16141624FF4805181620021C1624FF4AE
:103FD000804101630021416381634FF48011C1631B
:103FE0000F200E9000200F9046201090002014907B
:103FF00004200790002008900420099000200D90D4
:1040000007AA0EA9C548FFF7A9F90A2004F09FF9ED
:1040100000224FF40061C348FDF77EFE0A2004F041
:1040200096F901221021C048FDF776FE0A2004F01F
:104030008EF9042001F0E2F901F0D6F9B649888042
:1040400001F0D2F9B4498880084680884FF6FF71A4
:1040500001EA0020B049888001F0C6F9AE4989889C
:104060000843AD4988800846808848F2525188420A
:1040700048D0002001F0C2F9A7498880084680880E
:1040800045F2084188423DD04FF4704001F028FCD1
:10409000552001F019FC4FF2010001F021FCAA208B
:1040A00001F012FC4FF2020001F01AFC522001F064
:1040B0000BFC4FF2030001F013FC082001F004FC9C
:1040C0004FF2040001F00CFC012001F0FDFB4FF465
:1040D000454001F093F901F087F98F49888008463F
:1040E00080884FF6FF7101EA00208B4988804CF2EE
:1040F000015001F083F901F077F987498988084375
:10410000854988808448808848F2525188427CD111
:10411000112001F0E5FB782004F019F9362001F0B8
:10412000DFFB002001F0D0FB3A2001F0D9FB052095
:1041300001F0CAFBB22001F0D3FB0C2001F0C4FB5C
:104140000C2001F0C1FB002001F0BEFB332001F088
:10415000BBFB332001F0B8FBB72001F0C1FB3520D9
:1041600001F0B2FBBB2001F0BBFB282001F0ACFB4F
:10417000C02001F0B5FB2C2001F0A6FBC22001F00D
:10418000AFFB012001F0A0FBC32001F0A9FB0B2035
:1041900001F09AFBC42001F0A3FB202001F094FB66
:1041A000C62001F09DFB0F2001F08EFBD02001F016
:1041B00097FBA42001F088FBA12001F085FBE02003
:1041C00001F08EFBD02001F07FFB012001F07CFB91
:1041D000082001F079FB0F2001F076FB112001F09F
:1041E00073FB2A2001F070FB362001F06DFB552097
:1041F00001F06AFB442001F067FB3A2001F064FB08
:104200000B2001F061FB062000E04DE001F05CFBBB
:10421000112001F059FB202001F056FBE12001F0B4
:104220005FFBD02001F050FB022001F04DFB072086
:1042300001F04AFB0A2001F047FB0B2001F044FB90
:10424000182001F041FB342001F03EFB432001F037
:104250003BFB4A2001F038FB2B2001F035FB1B20F3
:1042600001F032FB1C2001F02FFB222001F02CFB7F
:104270001F2001F029FB292001F032FB2C2001F046
:104280002FFB0420FFF704FC362001F029FB224914
:10429000C88801F019FB204843880288002108469D
:1042A00001F010F901F089B81B48808845F20841F7
:1042B00088427DD14FF48071012001F053FB4FF40F
:1042C000E061022001F04EFB41F23001032001F0D9
:1042D00049FB0021042001F045FB40F202210820A7
:1042E00001F040FB0021092001F03CFB00210A20E5
:1042F00001F038FB00210C2001F034FB00210D20DF
:1043000001F030FB00210F2010E0000030380240A7
:1043100000080240000402408C0000203C00002005
:10432000040100A0000C0240001C024001F01AFB36
:104330000021102001F016FB0021112001F012FBDA
:104340000021122001F00EFB0021132001F00AFBD6
:10435000C82003F0FCFF0721112001F003FB3220ED
:1043600003F0F5FF41F2B021102001F0FBFA3220FA
:1043700003F0EDFF40F2BD11122001F0F3FA3220FC
:1043800003F0E5FF4FF4A051132001F0EBFA0E21EA
:10439000292001F0E7FA322003F0D9FF0021202084
:1043A00001F0E0FA40F23F11212001F0DBFA00E0D9
:1043B000B3E040F60D31302001F0D4FA41F623117C
:1043C000312001F0CFFA41F62641322001F0CAFA3D
:1043D00042F21C61332001F0C5FA42F21941342047
:1043E00001F0C0FA40F60B51352001F0BBFA41F262
:1043F0000601362001F0B6FA4FF4C261372001F011
:10440000B1FA40F20671382001F0ACFA4FF4417174
:10441000392001F0A7FA40F605613A2001F0A2FA2E
:1044200040F601613B2001F09DFA4FF487713C207A
:1044300001F098FA40F20E513D2001F093FA40F25B
:1044400003413E2001F08EFA40F207613F2001F067
:1044500089FA0021502001F085FAEF21512001F066
:1044600081FA0021522001F07DFA40F23F115320E1
:1044700001F078FA4FF42741602001F073FA01212E
:10448000612001F06FFA00216A2001F06BFA00212F
:10449000802001F067FA0021812001F063FA0021F9
:1044A000822001F05FFA0021832001F05BFA0021F5
:1044B000842001F057FA0021852001F053FA1021E1
:1044C000902001F04FFA0021922001F04BFA0321D5
:1044D000932001F047FA4FF48871952001F042FAD9
:1044E0000021972001F03EFA0021982001F03AFACD
:1044F0000420FFF7CDFAFE48C188032001F032FA0C
:104500004FF48971072001F02DFAF9484388028899
:104510000021084600F0D6FFC4E6F548808845F241
:1045200010518842F8D1322003F011FF55214FF489
:10453000704001F017FAAA214FF2010001F012FABF
:1045400052214FF2020001F00DFA08214FF2030050
:1045500001F008FA01214FF2040001F003FA86216C
:104560004BF6014001F0FEF96A214BF6024001F0E2
:10457000F9F986214BF6015001F0F4F96A214BF666
:10458000025001F0EFF967214BF6016001F0EAF902
:1045900000214FF4514001F0E5F95D214DF2011089
:1045A00001F0E0F900214DF2021001F0DBF96B217E
:1045B0004DF2031001F0D6F900214DF2041001F084
:1045C000D1F984214DF2051001F0CCF900214DF212
:1045D000061001F0C7F99C214DF2071001F0C2F955
:1045E00000214DF2081001F0BDF9B1214DF2091082
:1045F00001F0B8F900214DF20A1001F0B3F9D92108
:104600004DF20B1001F0AEF900214DF20C1001F04B
:10461000A9F9FD214DF20D1001F0A4F901214DF28F
:104620000E1001F09FF938214DF20F1001F09AF9A8
:1046300001214DF2101001F095F968214DF2111091
:1046400001F090F901214DF2121001F08BF9B9211E
:104650004DF2131001F086F901214DF2141001F012
:1046600081F9FB214DF2151001F07CF902214DF288
:10467000161001F077F963214DF2171001F072F96D
:1046800002214DF2181001F06DF9B9214DF2191007
:1046900001F068F902214DF21A1001F063F9BB2113
:1046A0004DF21B1001F05EF903214DF21C1001F0D8
:1046B00059F903214DF21D1001F054F903214DF277
:1046C0001E1001F04FF946214DF21F1001F04AF97A
:1046D00003214DF2201001F045F969214DF221101E
:1046E00001F040F903214DF2221001F03BF98F2136
:1046F0004DF2231001F036F903214DF2241001F0A0
:1047000031F9A4214DF2251001F02CF903214DF2CD
:10471000261001F027F9B9214DF2271001F022F9F6
:1047200003214DF2281001F01DF9C7214DF2291087
:1047300001F018F903214DF22A1001F013F9C921F3
:104740004DF22B1001F00EF903214DF22C1001F067
:1047500009F9CB214DF22D1001F004F903214DF29E
:104760002E1001F0FFF8CB214DF22F1001F0FAF8D6
:1047700003214DF2301001F0F5F8CB214DF231104C
:1047800001F0F0F803214DF2321001F0EBF8CC21EA
:104790004DF2331001F0E6F800214FF4524001F0E1
:1047A000E1F85D214DF2012001F0DCF800214DF22D
:1047B000022001F0D7F86B214DF2032001F0D2F86E
:1047C00000214DF2042001F0CDF884214DF20520A6
:1047D00001F0C8F800214DF2062001F0C3F89C2139
:1047E0004DF2072001F0BEF800214DF2082001F043
:1047F000B9F8B1214DF2092001F0B4F800214DF2D1
:104800000A2001F0AFF8D9214DF20B2001F0AAF8EF
:1048100000214DF20C2001F0A5F8FD214DF20D20F4
:1048200001F0A0F801214DF20E2001F09BF8382193
:104830004DF20F2001F096F801214DF2102001F009
:1048400091F868214DF2112001F08CF801214DF210
:10485000122001F087F8B9214DF2132001F082F8FF
:1048600001214DF2142001F07DF8FB214DF21520BD
:1048700001F078F802214DF2162001F073F863215F
:104880004DF2172001F06EF802214DF2182001F0D0
:1048900069F8B9214DF2192001F064F802214DF2B6
:1048A0001A2001F05FF8BB214DF21B2001F05AF8ED
:1048B00003214DF21C2001F055F803214DF21D207B
:1048C00001F050F803214DF21E2001F04BF8462173
:1048D0004DF21F2001F046F803214DF2202001F097
:1048E00041F869214DF2212001F03CF8032101E05B
:1048F0008C0000204DF2222001F034F88F214DF27F
:10490000232001F02FF803214DF2242001F02AF892
:10491000A4214DF2252001F025F803214DF2262097
:1049200001F020F8B9214DF2272001F01BF80321F6
:104930004DF2282001F016F8C7214DF2292001F090
:1049400011F803214DF22A2001F00CF8C9214DF293
:104950002B2001F007F803214DF22C2001F002F882
:10496000CB214DF22D2000F0FDFF03214DF22E2032
:1049700000F0F8FFCB214DF22F2000F0F3FF0321D0
:104980004DF2302000F0EEFFCB214DF2312000F04F
:10499000E9FF03214DF2322000F0E4FFCC214DF27B
:1049A000332000F0DFFF00214FF4534000F0DAFF26
:1049B0005D214DF2013000F0D5FF00214DF20230B3
:1049C00000F0D0FF6B214DF2033000F0CBFF00214F
:1049D0004DF2043000F0C6FF84214DF2053000F0A6
:1049E000C1FF00214DF2063000F0BCFF9C214DF2CA
:1049F000073000F0B7FF00214DF2083000F0B2FFA1
:104A0000B1214DF2093000F0ADFF00214DF20A3026
:104A100000F0A8FFD9214DF20B3000F0A3FF0021D8
:104A20004DF20C3000F09EFFFD214DF20D3000F0F4
:104A300099FF01214DF20E3000F094FF38214DF224
:104A40000F3000F08FFF01214DF2103000F08AFF8F
:104A500068214DF2113000F085FF01214DF2123036
:104A600000F080FFB9214DF2133000F07BFF0121EF
:104A70004DF2143000F076FFFB214DF2153000F0BE
:104A800071FF02214DF2163000F06CFF63214DF2F0
:104A9000173000F067FF02214DF2183000F062FF7E
:104AA000B9214DF2193000F05DFF02214DF21A30AC
:104AB00000F058FFBB214DF21B3000F053FF0321E3
:104AC0004DF21C3000F04EFF03214DF21D3000F07E
:104AD00049FF03214DF21E3000F044FF46214DF204
:104AE0001F3000F03FFF03214DF2203000F03AFF6D
:104AF00069214DF2213000F035FF03214DF22230C3
:104B000000F030FF8F214DF2233000F02BFF032106
:104B10004DF2243000F026FFA4214DF2253000F0A4
:104B200021FF03214DF2263000F01CFFB9214DF288
:104B3000273000F017FF03214DF2283000F012FF5C
:104B4000C7214DF2293000F00DFF03214DF22A302C
:104B500000F008FFC9214DF22B3000F003FF0321C4
:104B60004DF22C3000F0FEFECB214DF22D3000F046
:104B7000F9FE03214DF22E3000F0F4FECB214DF270
:104B80002F3000F0EFFE03214DF2303000F0EAFE4E
:104B9000CB214DF2313000F0E5FE03214DF23230F1
:104BA00000F0E0FECC214DF2333000F0DBFE0021BE
:104BB0004FF4544000F0D6FE5D214DF2014000F06C
:104BC000D1FE00214DF2024000F0CCFE6B214DF2EF
:104BD000034000F0C7FE00214DF2044000F0C2FE89
:104BE00084214DF2054000F0BDFE00214DF206404B
:104BF00000F0B8FE9C214DF2074000F0B3FE00210A
:104C00004DF2084000F0AEFEB1214DF2094000F037
:104C1000A9FE00214DF20A4000F0A4FED9214DF278
:104C20000B4000F09FFE00214DF20C4000F09AFE78
:104C3000FD214DF20D4000F095FE01214DF20E4098
:104C400000F090FE38214DF20F4000F08BFE012164
:104C50004DF2104000F086FE68214DF2114000F048
:104C600081FE01214DF2124000F07CFEB9214DF28F
:104C7000134000F077FE01214DF2144000F072FE67
:104C8000FB214DF2154000F06DFE02214DF2164061
:104C900000F068FE63214DF2174000F063FE022130
:104CA0004DF2184000F05EFEB9214DF2194000F0BF
:104CB00059FE02214DF21A4000F054FEBB214DF284
:104CC0001B4000F04FFE03214DF21C4000F04AFE55
:104CD00003214DF21D4000F045FE03214DF21E4020
:104CE00000F040FE46214DF21F4000F03BFE032144
:104CF0004DF2204000F036FE69214DF2214000F0D7
:104D000031FE03214DF2224000F02CFE8F214DF2A6
:104D1000234000F027FE03214DF2244000F022FE44
:104D2000A4214DF2254000F01DFE03214DF2264046
:104D300000F018FEB9214DF2274000F013FE0321C8
:104D40004DF2284000F00EFEC7214DF2294000F040
:104D500009FE03214DF22A4000F004FEC9214DF264
:104D60002B4000F0FFFD03214DF22C4000F0FAFD36
:104D7000CB214DF22D4000F0F5FD03214DF22E40E8
:104D800000F0F0FDCB214DF22F4000F0EBFD0321B0
:104D90004DF2304000F0E6FDCB214DF2314000F005
:104DA000E1FD03214DF2324000F0DCFDCC214DF25B
:104DB000334000F0D7FD00214FF4554000F0D2FD04
:104DC0005D214DF2015000F0CDFD00214DF2025069
:104DD00000F0C8FD6B214DF2035000F0C3FD00212F
:104DE0004DF2045000F0BEFD84214DF2055000F05C
:104DF000B9FD00214DF2065000F0B4FD9C214DF2AA
:104E0000075000F0AFFD00214DF2085000F0AAFD60
:104E1000B1214DF2095000F0A5FD00214DF20A50DC
:104E200000F0A0FDD9214DF20B5000F09BFD0021B8
:104E30004DF20C5000F096FDFD214DF20D5000F0AA
:104E400091FD01214DF20E5000F08CFD38214DF204
:104E50000F5000F087FD01214DF2105000F082FD4F
:104E600068214DF2115000F07DFD01214DF21250EC
:104E700000F078FDB9214DF2135000F073FD0121CF
:104E80004DF2145000F06EFDFB214DF2155000F074
:104E900069FD02214DF2165000F064FD63214DF2D0
:104EA000175000F05FFD02214DF2185000F05AFD3E
:104EB000B9214DF2195000F055FD02214DF21A5062
:104EC00000F050FDBB214DF21B5000F04BFD0321C3
:104ED0004DF21C5000F046FD03214DF21D5000F034
:104EE00041FD03214DF21E5000F03CFD46214DF2E4
:104EF0001F5000F037FD03214DF2205000F032FD2D
:104F000069214DF2215000F02DFD03214DF2225078
:104F100000F028FD8F214DF2235000F023FD0321E6
:104F20004DF2245000F01EFDA4214DF2255000F05A
:104F300019FD03214DF2265000F014FDB9214DF268
:104F4000275000F00FFD03214DF2285000F00AFD1C
:104F5000C7214DF2295000F005FD03214DF22A50E2
:104F600000F000FDC9214DF22B5000F0FBFC0321A5
:104F70004DF22C5000F0F6FCCB214DF22D5000F0FC
:104F8000F1FC03214DF22E5000F0ECFCCB214DF250
:104F90002F5000F0E7FC03214DF2305000F0E2FC0E
:104FA000CB214DF2315000F0DDFC03214DF23250A7
:104FB00000F0D8FCCC214DF2335000F0D3FC00219E
:104FC0004FF4564000F0CEFC5D214DF2016000F040
:104FD000C9FC00214DF2026000F0C4FC6B214DF2CF
:104FE000036000F0BFFC00214DF2046000F0BAFC49
:104FF00084214DF2056000F0B5FC00214DF2066001
:1050000000F0B0FC9C214DF2076000F0ABFC0021E9
:105010004DF2086000F0A6FCB1214DF2096000F0ED
:10502000A1FC00214DF20A6000F09CFCD9214DF258
:105030000B6000F097FC00214DF20C6000F092FC38
:10504000FD214DF20D6000F08DFC01214DF20E604E
:1050500000F088FC38214DF20F6000F083FC012144
:105060004DF2106000F07EFC68214DF2116000F0FE
:1050700079FC01214DF2126000F074FCB9214DF26F
:10508000136000F06FFC01214DF2146000F06AFC27
:10509000FB214DF2156000F065FC02214DF2166017
:1050A00000F060FC63214DF2176000F05BFC022110
:1050B0004DF2186000F056FCB9214DF2196000F075
:1050C00051FC02214DF21A6000F04CFCBB214DF264
:1050D0001B6000F047FC03214DF21C6000F042FC15
:1050E00003214DF21D6000F03DFC03214DF21E60D6
:1050F00000F038FC46214DF21F6000F033FC032124
:105100004DF2206000F02EFC69214DF2216000F08C
:1051100029FC03214DF2226000F024FC8F214DF286
:10512000236000F01FFC03214DF2246000F01AFC04
:10513000A4214DF2256000F015FC03214DF22660FC
:1051400000F010FCB9214DF2276000F00BFC0321A8
:105150004DF2286000F006FCC7214DF2296000F0F6
:1051600001FC03214DF22A6000F0FCFBC9214DF245
:105170002B6000F0F7FB03214DF22C6000F0F2FBF6
:10518000CB214DF22D6000F0EDFB03214DF22E609E
:1051900000F0E8FBCB214DF22F6000F0E3FB032190
:1051A0004DF2306000F0DEFBCB214DF2316000F0BB
:1051B000D9FB03214DF2326000F0D4FBCC214DF23B
:1051C000336000F0CFFB24214FF43A4000F0CAFBDB
:1051D00024214BF6012000F0C5FB24214BF60220D0
:1051E00000F0C0FB24214FF4394000F0BBFB242128
:1051F0004BF6011000F0B6FB24214BF6021000F034
:10520000B1FB55214FF4704000F0ACFBAA214FF2E6
:10521000010000F0A7FB52214FF2020000F0A2FBB8
:1052200008214FF2030000F09DFB00214FF2040023
:1052300000F098FBCC214FF4314000F093FB0521A6
:105240004FF43C4000F08EFB05214BF6014000F08E
:1052500089FB05214BF6024000F084FB01214FF44D
:10526000384000F07FFB03214BF6010000F07AFB91
:1052700003214BF6020000F075FB03214BF60300FF
:1052800000F070FB07214BF6025000F06BFB312160
:105290004BF6035000F066FB07214BF6026000F06E
:1052A00061FB31214BF6036000F05CFB07214BF6FC
:1052B000027000F057FB31214BF6037000F052FBF7
:1052C000AA214FF47F4000F04DFB55214FF60170AD
:1052D00000F048FB25214FF6027000F043FB01214E
:1052E0004FF6037000F03EFB11214FF2043000F046
:1052F00039FB10214FF2063000F034FB00214FF251
:10530000083000F02FFB00214FF4545000F02AFB2E
:1053100055214FF4685000F025FB00214FF4285030
:1053200000F020FB002142F6012000F01BFB0121D0
:1053300042F6022000F016FBDF2142F6032000F0C7
:1053400011FB00214FF42C5000F00CFB002142F621
:10535000013000F007FB032142F6023000F002FBAF
:105360001F2142F6033000F0FDFA4FF4885000F0A0
:10537000B7FA0A2002F0EBFF4FF4245000F0B0FA25
:10538000052002F0E4FF55214FF4685000F0EAFADE
:1053900060214FF4585000F0E5FA0420FEF778FB46
:1053A0000F48C1884FF4585000F0DCFA0C4843888D
:1053B00002880021084600F085F80948808845F2F7
:1053C0001051884203D101200649086002E0002004
:1053D000044908604FF6FF70FEF744FB15B000BDAE
:1053E0008C000020A082404208B50348008800904D
:1053F000BDF8000008BD00000000026010B50446C2
:10540000204600F06DFA052002F0ADFFFFF7ECFF3B
:1054100010BD000030B504460D462948808848F28A
:105420005251884214D12649888900F059FA201235
:1054300000F04AFAE0B200F047FA2149C88900F0CA
:105440004FFA281200F040FAE8B200F03DFA36E0D8
:105450001B48808845F2084188420AD1184988894A
:10546000214600F07FFA1649C889294600F07AFAE9
:1054700025E01348808845F2105188421FD1104919
:10548000888900F02DFA201200F01EFA0C49898953
:10549000491C88B200F024FAE0B200F015FA08497D
:1054A000C88900F01DFA281200F00EFA0449C989D3
:1054B000491C88B200F014FAE8B200F005FA30BDD9
:1054C0008C0000202DE9FC4F04460D46904699467D
:1054D0000026B2460027B3460020019000908A487B
:1054E000808848F25251884232D1264604EB0800A7
:1054F000401E1FFA80FA2F4605EB0900401E1FFAD6
:1055000080FB019600978049888900F0E9F9301204
:1055100000F0DAF9F0B200F0D7F94FEA2A2000F0F3
:10552000D3F90AF0FF0000F0CFF97749C88900F0FD
:10553000D7F9381200F0C8F9F8B200F0C5F94FEA0F
:105540002B2000F0C1F90BF0FF0000F0BDF9D5E011
:105550006D48808845F20841884273D16A48007AD4
:1055600003281CD168484088401BA0EB090086B284
:1055700065484088401B401E1FFA80FA6248008838
:10558000001BA0EB080087B25F480088001B401E8C
:105590001FFA80FBCDF804A0CDF800B040E05A48D7
:1055A000007A04280ED12E4605EB0900401E1FFA92
:1055B00080FA274604EB0800401E1FFA80FB019684
:1055C00000972DE05048007A012814D14E480088F9
:1055D000001BA0EB080086B24B480088001B401E51
:1055E0001FFA80FA2F4605EB09001FFA80FBCDF861
:1055F00004A0009714E0264604EB0800401E1FFAA2
:1056000080FA41484088401BA0EB090087B23E4821
:105610004088401B401E1FFA80FB0196CDF800B069
:105620003146502000F09EF95146512000F09AF981
:105630003946522000F096F95946532000F092F96D
:105640005CE0FFE73048808845F21051884255D130
:10565000264604EB0800401E1FFA80FA2F4605EB91
:105660000900401E1FFA80FB019600972649888991
:1056700000F036F9301200F027F923498989491CD6
:1056800088B200F02DF9F0B200F01EF91E498989A8
:10569000891C88B200F024F94FEA2A2000F014F99E
:1056A00019498989C91C88B200F01AF90AF0FF006B
:1056B00000F00AF91449C88900F012F9381200F014
:1056C00003F91149C989491C88B200F009F9F8B2F7
:1056D00000F0FAF80C49C989891C88B200F000F979
:1056E0004FEA2B2000F0F0F80749C989C91C88B29D
:1056F00000F0F6F80BF0FF0000F0E6F8DDE900102E
:10570000FFF788FEBDE8FC8F8C0000202DE9F84FE4
:1057100080460F4616461C46BB462046E31704EB60
:105720005373DB1021464FEAE47C04EB5C7C4FEAC8
:10573000EC0CA4EBCC0CBCF1000F02D04FF0010C30
:1057400001E04FF0000C6344224604EBD27C4FEAA8
:105750006C0C03FB0CF3DBB20093A6F12000C6B285
:1057600000255EE00C2C07D106EB46002F4901EB2B
:10577000800010F805901BE0102C05D12C4800EBA0
:10578000061010F8059013E0182C07D106EBC600A0
:10579000284901EB800010F8059009E0202C05D184
:1057A000254800EBC61010F8059001E0BDE8F88F21
:1057B0004FF0000A2FE009F0800030B11F48394651
:1057C00002684046FEF77EFA07E00A9828B91C48AE
:1057D000394602684046FEF775FA4FEA49604FEADB
:1057E0001069781C87B217484088B84200DCDDE7B2
:1057F000A7EB0B00A0420AD15F4608F101001FFA97
:1058000080F810480088404500DCCFE706E00AF148
:10581000010000F0FF0ABAF1080FCCDB00BF681CE2
:10582000C5B2009885429DDB00BFBFE70492000827
:1058300078960008689C0008C4A900082000002091
:10584000240000208C0000202DE9F84F05460E466C
:1058500090469946DDE90A4705F0FF0A08EB050086
:105860001FFA80F809EB06001FFA80F921E0454590
:1058700002DB5546301986B24E4500DB1FE004EBD3
:10588000D47105EB61010F4A1288914202DD0025B7
:10589000301986B2002000903A78234631462846D7
:1058A000FFF734FF204604EBD07105EB61018DB2A8
:1058B0007F1C38787E2802DC38782028D7DA00BFB1
:1058C000BDE8F88F8C00002001B5BDF80000009005
:1058D000BDF800000149088008BD0000000002601A
:1058E00001B5BDF800000090BDF800000149088036
:1058F00008BD0000FEFF016070B50546072419E0F1
:105900004FF480200D4908600120A040284018B1C4
:1059100002200B49886103E04FF400300849886198
:10592000012002F020FD042004490860012002F05B
:105930001AFD641E002CE3DA70BD00001808024056
:10594000000002400149088070470000000002602A
:105950000248408902490880704700008C000020FE
:10596000FEFF0160024A1080921C11807047000007
:10597000FEFF016010B50020FBF7ACFE0220FBF734
:10598000A9FE10BD18B5044606480094008B401EC1
:1059900083B20448C08A401E82B20021084600F04B
:1059A00013F918BD8401002070B58CB004460E4672
:1059B0001546082000900494069609956846FCF761
:1059C000D1FC10B900200CB070BD0120FBE7000035
:1059D0001449487514490872022801D001280ED1D3
:1059E000104989880F4AD1821146098811831146CE
:1059F000C98A0D4A11800B49098B518011E0032897
:105A000001D004280DD107490988064AD1821146E0
:105A1000898811831146C98A034A11800149098B7B
:105A200051807047840100208C00002070B5634BCA
:105A30005B7D042B2CD1624B9B8847F21604A3425A
:105A400010D15E4B1D685B685B1A5B1E05FB030390
:105A50005A4DED696B43594D2D7D5A4E56F82550E0
:105A6000EA52A9E0564B9B88B3F5004FF9D1534B4E
:105A70005D681B681B1A5B1E05FB03134F4DED6928
:105A80006B434E4D2D7D4F4E56F82550EA5293E014
:105A90004A4B5B7D032B2ED1494B9B8847F2160462
:105AA000A34211D1454B1B681B1A5B1E434D2D6849
:105AB00005FB0133414DED696B43404D2D7D414E5A
:105AC00056F82550EA5277E03D4B9B88B3F5004FDE
:105AD00072D13A4B5B685B1A5B1E384D6D6805FBF3
